{"abi":[{"type":"constructor","inputs":[],"stateMutability":"nonpayable"},{"type":"function","name":"admin","inputs":[],"outputs":[{"name":"","type":"address","internalType":"address"}],"stateMutability":"view"},{"type":"function","name":"blacklistEntity","inputs":[{"name":"policyId","type":"uint256","internalType":"uint256"},{"name":"entity_","type":"address","internalType":"address"}],"outputs":[],"stateMutability":"nonpayable"},{"type":"function","name":"checkCredential","inputs":[{"name":"entity_","type":"address","internalType":"address"},{"name":"policyId","type":"uint32","internalType":"uint32"}],"outputs":[{"name":"","type":"bool","internalType":"bool"}],"stateMutability":"view"},{"type":"function","name":"checkCredential","inputs":[{"name":"policyId","type":"uint256","internalType":"uint256"},{"name":"entityA_","type":"address","internalType":"address"},{"name":"entityB_","type":"address","internalType":"address"}],"outputs":[{"name":"","type":"bool","internalType":"bool"}],"stateMutability":"view"},{"type":"function","name":"checkCredential","inputs":[{"name":"policyId","type":"uint256","internalType":"uint256"},{"name":"entity_","type":"address","internalType":"address"}],"outputs":[{"name":"","type":"bool","internalType":"bool"}],"stateMutability":"view"},{"type":"function","name":"collectFees","inputs":[{"name":"to","type":"address","internalType":"address"}],"outputs":[],"stateMutability":"nonpayable"},{"type":"function","name":"createCredential","inputs":[{"name":"tradingAddress","type":"address","internalType":"address"},{"name":"policyId","type":"uint256","internalType":"uint256"},{"name":"validFrom","type":"uint256","internalType":"uint256"},{"name":"validUntil","type":"uint256","internalType":"uint256"},{"name":"cost","type":"uint256","internalType":"uint256"},{"name":"key","type":"bytes","internalType":"bytes"},{"name":"signature","type":"bytes","internalType":"bytes"},{"name":"backdoor","type":"bytes","internalType":"bytes"}],"outputs":[],"stateMutability":"payable"},{"type":"function","name":"entityBlacklisted","inputs":[{"name":"policyId","type":"uint256","internalType":"uint256"},{"name":"entity_","type":"address","internalType":"address"}],"outputs":[{"name":"","type":"bool","internalType":"bool"}],"stateMutability":"view"},{"type":"function","name":"entityData","inputs":[{"name":"policyId","type":"uint256","internalType":"uint256"},{"name":"entity_","type":"address","internalType":"address"}],"outputs":[{"name":"","type":"tuple","internalType":"struct ICoreV2Base.EntityData","components":[{"name":"blacklisted","type":"bool","internalType":"bool"},{"name":"exp","type":"uint64","internalType":"uint64"}]}],"stateMutability":"view"},{"type":"function","name":"entityExp","inputs":[{"name":"policyId","type":"uint256","internalType":"uint256"},{"name":"entity_","type":"address","internalType":"address"}],"outputs":[{"name":"","type":"uint256","internalType":"uint256"}],"stateMutability":"view"},{"type":"function","name":"getKeyHash","inputs":[{"name":"key","type":"bytes","internalType":"bytes"}],"outputs":[{"name":"","type":"bytes32","internalType":"bytes32"}],"stateMutability":"pure"},{"type":"function","name":"keyDetails","inputs":[{"name":"keyHash","type":"bytes32","internalType":"bytes32"}],"outputs":[{"name":"","type":"tuple","internalType":"struct ICoreV2Base.KeyEntry","components":[{"name":"isValid","type":"bool","internalType":"bool"},{"name":"validFrom","type":"uint64","internalType":"uint64"},{"name":"validTo","type":"uint64","internalType":"uint64"}]}],"stateMutability":"view"},{"type":"function","name":"keyExists","inputs":[{"name":"keyHash","type":"bytes32","internalType":"bytes32"}],"outputs":[{"name":"","type":"bool","internalType":"bool"}],"stateMutability":"view"},{"type":"function","name":"keyValidFrom","inputs":[{"name":"keyHash","type":"bytes32","internalType":"bytes32"}],"outputs":[{"name":"","type":"uint256","internalType":"uint256"}],"stateMutability":"view"},{"type":"function","name":"keyValidTo","inputs":[{"name":"keyHash","type":"bytes32","internalType":"bytes32"}],"outputs":[{"name":"","type":"uint256","internalType":"uint256"}],"stateMutability":"view"},{"type":"function","name":"packAuthMessage","inputs":[{"name":"tradingAddress","type":"address","internalType":"address"},{"name":"policyId","type":"uint256","internalType":"uint256"},{"name":"validFrom","type":"uint256","internalType":"uint256"},{"name":"validUntil","type":"uint256","internalType":"uint256"},{"name":"cost","type":"uint256","internalType":"uint256"},{"name":"backdoor","type":"bytes","internalType":"bytes"}],"outputs":[{"name":"","type":"bytes","internalType":"bytes"}],"stateMutability":"pure"},{"type":"function","name":"registerKey","inputs":[{"name":"validFrom","type":"uint256","internalType":"uint256"},{"name":"validTo","type":"uint256","internalType":"uint256"},{"name":"key","type":"bytes","internalType":"bytes"}],"outputs":[],"stateMutability":"nonpayable"},{"type":"function","name":"revokeKey","inputs":[{"name":"keyHash","type":"bytes32","internalType":"bytes32"}],"outputs":[],"stateMutability":"nonpayable"},{"type":"function","name":"setAdmin","inputs":[{"name":"newAdmin","type":"address","internalType":"address"}],"outputs":[],"stateMutability":"nonpayable"},{"type":"function","name":"unblacklistEntity","inputs":[{"name":"policyId","type":"uint256","internalType":"uint256"},{"name":"entity_","type":"address","internalType":"address"}],"outputs":[],"stateMutability":"nonpayable"},{"type":"event","name":"AdminSet","inputs":[{"name":"oldAdmin","type":"address","indexed":true,"internalType":"address"},{"name":"newAdmin","type":"address","indexed":true,"internalType":"address"}],"anonymous":false},{"type":"event","name":"CredentialCreated","inputs":[{"name":"policyId","type":"uint256","indexed":true,"internalType":"uint256"},{"name":"entity","type":"address","indexed":true,"internalType":"address"},{"name":"exp","type":"uint256","indexed":true,"internalType":"uint256"},{"name":"backdoor","type":"bytes","indexed":false,"internalType":"bytes"}],"anonymous":false},{"type":"event","name":"CredentialRevoked","inputs":[{"name":"policyId","type":"uint256","indexed":true,"internalType":"uint256"},{"name":"entity","type":"address","indexed":true,"internalType":"address"}],"anonymous":false},{"type":"event","name":"EntityBlacklisted","inputs":[{"name":"policyId","type":"uint256","indexed":true,"internalType":"uint256"},{"name":"entity","type":"address","indexed":true,"internalType":"address"}],"anonymous":false},{"type":"event","name":"EntityUnblacklisted","inputs":[{"name":"policyId","type":"uint256","indexed":true,"internalType":"uint256"},{"name":"entity","type":"address","indexed":true,"internalType":"address"}],"anonymous":false},{"type":"event","name":"KeyRegistered","inputs":[{"name":"keyHash","type":"bytes32","indexed":true,"internalType":"bytes32"},{"name":"validFrom","type":"uint256","indexed":true,"internalType":"uint256"},{"name":"validTo","type":"uint256","indexed":true,"internalType":"uint256"},{"name":"publicKey","type":"bytes","indexed":false,"internalType":"bytes"}],"anonymous":false},{"type":"event","name":"KeyRevoked","inputs":[{"name":"keyHash","type":"bytes32","indexed":true,"internalType":"bytes32"}],"anonymous":false},{"type":"error","name":"ErrCallerNotAdmin","inputs":[{"name":"caller","type":"address","internalType":"address"}]},{"type":"error","name":"ErrFailedSendOfValue","inputs":[]},{"type":"error","name":"ErrInvalidCredential","inputs":[{"name":"policyId","type":"uint256","internalType":"uint256"},{"name":"entity","type":"address","internalType":"address"},{"name":"reason","type":"string","internalType":"string"}]},{"type":"error","name":"ErrInvalidKeyRegistration","inputs":[{"name":"reason","type":"string","internalType":"string"}]},{"type":"error","name":"ErrKeyNotFound","inputs":[{"name":"keyHash","type":"bytes32","internalType":"bytes32"}]}],"bytecode":{"object":"0x6080604052348015600f57600080fd5b50600080546001600160a01b0319163390811782556040519091907fbf265e8326285a2747e33e54d5945f7111f2b5edb826eb8c08d4677779b3ff97908290a36116158061005e6000396000f3fe60806040526004361061011f5760003560e01c80638776b120116100a0578063d43548b011610064578063d43548b014610412578063d6b3fa8a146104c0578063f260fd93146104f0578063f851a4401461052b578063fff4cbd01461055357600080fd5b80638776b120146102d0578063a3111824146102f0578063a480ca7914610336578063a5e8823c14610356578063c06d332e146103f257600080fd5b80634e081d26116100e75780634e081d26146101ef57806353fe520014610240578063572f22101461027d578063642e3d741461029d578063704b6c02146102b057600080fd5b80632303bdff146101245780632520d38b1461014657806337deb7911461017f578063466d137b146101af5780634db64cfd146101cf575b600080fd5b34801561013057600080fd5b5061014461013f3660046110de565b610580565b005b34801561015257600080fd5b5061016c6101613660046111ad565b805160209091012090565b6040519081526020015b60405180910390f35b34801561018b57600080fd5b5061019f61019a3660046111e1565b610683565b6040519015158152602001610176565b3480156101bb57600080fd5b5061019f6101ca366004611221565b61069e565b3480156101db57600080fd5b506101446101ea3660046110de565b6106c3565b3480156101fb57600080fd5b5061016c61020a3660046110de565b60009182526002602090815260408084206001600160a01b0393909316845291905290205461010090046001600160401b031690565b34801561024c57600080fd5b5061016c61025b36600461125d565b600090815260016020526040902054600160481b90046001600160401b031690565b34801561028957600080fd5b5061014461029836600461125d565b6107bf565b6101446102ab3660046112be565b61085e565b3480156102bc57600080fd5b506101446102cb36600461139c565b61087b565b3480156102dc57600080fd5b5061019f6102eb3660046110de565b6108f3565b3480156102fc57600080fd5b5061019f61030b3660046110de565b60009182526002602090815260408084206001600160a01b0393909316845291905290205460ff1690565b34801561034257600080fd5b5061014461035136600461139c565b610970565b34801561036257600080fd5b506103cc6103713660046110de565b60408051808201825260008082526020918201819052938452600281528184206001600160a01b039390931684529182529182902082518084019093525460ff81161515835261010090046001600160401b03169082015290565b604080518251151581526020928301516001600160401b03169281019290925201610176565b3480156103fe57600080fd5b5061014461040d3660046113b7565b6109aa565b34801561041e57600080fd5b5061048b61042d36600461125d565b6040805160608082018352600080835260208084018290529284018190529384526001825292829020825193840183525460ff8116151584526001600160401b036101008204811692850192909252600160481b9004169082015290565b604080518251151581526020808401516001600160401b03908116918301919091529282015190921690820152606001610176565b3480156104cc57600080fd5b5061019f6104db36600461125d565b60009081526001602052604090205460ff1690565b3480156104fc57600080fd5b5061016c61050b36600461125d565b60009081526001602052604090205461010090046001600160401b031690565b34801561053757600080fd5b506000546040516001600160a01b039091168152602001610176565b34801561055f57600080fd5b5061057361056e366004611406565b610b52565b6040516101769190611480565b6000546001600160a01b031633146105b25760405163e5c221f160e01b81523360048201526024015b60405180910390fd5b60008281526002602090815260408083206001600160a01b038516845290915290205460ff1615156001036105e5575050565b6040805180820182526001815260006020808301828152868352600282528483206001600160a01b038716808552925284832084518154925168ffffffffffffffffff1990931690151568ffffffffffffffff001916176101006001600160401b0390931692909202919091179055925191929185917fbe6199662454a2f1cb1932fe7337a3517c4045351a92039ff9a832239c1538e091a3505050565b60006106958263ffffffff16846108f3565b90505b92915050565b60006106aa84846108f3565b80156106bb57506106bb84836108f3565b949350505050565b6000546001600160a01b031633146106f05760405163e5c221f160e01b81523360048201526024016105a9565b60008281526002602090815260408083206001600160a01b038516845290915281205460ff1615159003610722575050565b60408051808201825260008082526020808301828152868352600282528483206001600160a01b038716808552925284832084518154925168ffffffffffffffffff1990931690151568ffffffffffffffff001916176101006001600160401b0390931692909202919091179055925191929185917f4650f4112b7820b3280d1b34bc78495e39d66cdde80d57eb2b97e040523b50c791a3505050565b6000546001600160a01b031633146107ec5760405163e5c221f160e01b81523360048201526024016105a9565b60008181526001602052604090205460ff1661081e576040516316f88f9560e21b8152600481018290526024016105a9565b600081815260016020526040808220805460ff191690555182917fd76dbee353f8817df12bf008d3fec1c2f26c9afc1e832f74757756b060b25f8291a250565b61086e8b8b8a8a8a8a8888610cdf565b5050505050505050505050565b6000546001600160a01b031633146108a85760405163e5c221f160e01b81523360048201526024016105a9565b600080546001600160a01b0319166001600160a01b0383169081178255604051909133917fbf265e8326285a2747e33e54d5945f7111f2b5edb826eb8c08d4677779b3ff979190a350565b60008281526002602090815260408083206001600160a01b0385168452825280832081518083019092525460ff81161580158084526101009092046001600160401b03169383019390935290919061095757504281602001516001600160401b0316115b15610966576001915050610698565b5060009392505050565b6000546001600160a01b0316331461099d5760405163e5c221f160e01b81523360048201526024016105a9565b6109a78147611049565b50565b6000546001600160a01b031633146109d75760405163e5c221f160e01b81523360048201526024016105a9565b828211610a0d57604051633b980f2d60e11b815260206004820152600360248201526204956560ec1b60448201526064016105a9565b42821015610a2e57604051633b980f2d60e11b81526004016105a9906114ce565b8051602082012060009060008181526001602052604090205490915060ff1615610a8157604051633b980f2d60e11b815260206004820152600360248201526225a0a960e91b60448201526064016105a9565b6040805160608101825260018082526001600160401b0380881660208085019182528883168587019081526000888152949091529285902093518454915193518316600160481b0270ffffffffffffffff00000000000000000019949093166101000268ffffffffffffffff00199115159190911668ffffffffffffffffff19909216919091171791909116179055518390859083907fb03f7c2697f23a603f90828b122a7965ae777fe68a85074a26d0805d8a1b7cd190610b44908790611480565b60405180910390a450505050565b606062ffffff871115610ba457604051634ef89b4d60e01b8152600481018890526001600160a01b038916602482015260606044820152600360648201526214125160ea1b608482015260a4016105a9565b63ffffffff861115610bf557604051634ef89b4d60e01b8152600481018890526001600160a01b038916602482015260606044820152600360648201526221a12360e91b608482015260a4016105a9565b63ffffffff851115610c4657604051634ef89b4d60e01b8152600481018890526001600160a01b038916602482015260606044820152600360648201526242565560e81b608482015260a4016105a9565b6fffffffffffffffffffffffffffffffff841115610ca357604051634ef89b4d60e01b8152600481018890526001600160a01b038916602482015260606044820152600360648201526210d4d560ea1b608482015260a4016105a9565b876000888888888888604051602001610cc39897969594939291906114f1565b6040516020818303038152906040529050979650505050505050565b843414610d2b57604051634ef89b4d60e01b8152600481018890526001600160a01b038916602482015260606044820152600360648201526215905360ea1b608482015260a4016105a9565b60004290506000610d7186868080601f01602080910402602001604051908101604052809392919081815260200183838082843760009201919091525061016192505050565b60008181526001602090815260408083208151606081018352905460ff81161580158084526001600160401b036101008404811696850196909652600160481b9092049094169282019290925293945090610dd9575081602001516001600160401b03168410155b8015610df2575081604001516001600160401b03168411155b905080610e3e57604051634ef89b4d60e01b8152600481018c90526001600160a01b038d16602482015260606044820152600360648201526242444b60e81b608482015260a4016105a9565b50505080871015610e66578789604051634ef89b4d60e01b81526004016105a9929190611578565b60008881526002602090815260408083206001600160a01b038d16845282529182902082518084019093525460ff811615801584526101009091046001600160401b031691830191909152610efa57604051634ef89b4d60e01b8152600481018a90526001600160a01b038b166024820152606060448201526003606482015262424c4b60e81b608482015260a4016105a9565b80602001516001600160401b03168811610f5357604051634ef89b4d60e01b8152600481018a90526001600160a01b038b16602482015260606044820152600360648201526214d51360ea1b608482015260a4016105a9565b8781602001906001600160401b031690816001600160401b03168152505080600260008b815260200190815260200160002060008c6001600160a01b03166001600160a01b0316815260200190815260200160002060008201518160000160006101000a81548160ff02191690831515021790555060208201518160000160016101000a8154816001600160401b0302191690836001600160401b03160217905550905050878a6001600160a01b03168a7f83f42f3150cb5cd2d71c8407e059b5dcda37f6ceb70eaedbe2efb4fe99a256e287876040516110359291906115b0565b60405180910390a450505050505050505050565b6000826001600160a01b03168260405160006040518083038185875af1925050503d8060008114611096576040519150601f19603f3d011682016040523d82523d6000602084013e61109b565b606091505b50509050806110bd57604051635a1c887760e01b815260040160405180910390fd5b505050565b80356001600160a01b03811681146110d957600080fd5b919050565b600080604083850312156110f157600080fd5b82359150611101602084016110c2565b90509250929050565b634e487b7160e01b600052604160045260246000fd5b600082601f83011261113157600080fd5b81356001600160401b0381111561114a5761114a61110a565b604051601f8201601f19908116603f011681016001600160401b03811182821017156111785761117861110a565b60405281815283820160200185101561119057600080fd5b816020850160208301376000918101602001919091529392505050565b6000602082840312156111bf57600080fd5b81356001600160401b038111156111d557600080fd5b6106bb84828501611120565b600080604083850312156111f457600080fd5b6111fd836110c2565b9150602083013563ffffffff8116811461121657600080fd5b809150509250929050565b60008060006060848603121561123657600080fd5b83359250611246602085016110c2565b9150611254604085016110c2565b90509250925092565b60006020828403121561126f57600080fd5b5035919050565b60008083601f84011261128857600080fd5b5081356001600160401b0381111561129f57600080fd5b6020830191508360208285010111156112b757600080fd5b9250929050565b60008060008060008060008060008060006101008c8e0312156112e057600080fd5b6112e98c6110c2565b9a5060208c0135995060408c0135985060608c0135975060808c0135965060a08c01356001600160401b0381111561132057600080fd5b61132c8e828f01611276565b90975095505060c08c01356001600160401b0381111561134b57600080fd5b6113578e828f01611276565b90955093505060e08c01356001600160401b0381111561137657600080fd5b6113828e828f01611276565b915080935050809150509295989b509295989b9093969950565b6000602082840312156113ae57600080fd5b610695826110c2565b6000806000606084860312156113cc57600080fd5b833592506020840135915060408401356001600160401b038111156113f057600080fd5b6113fc86828701611120565b9150509250925092565b600080600080600080600060c0888a03121561142157600080fd5b61142a886110c2565b96506020880135955060408801359450606088013593506080880135925060a08801356001600160401b0381111561146157600080fd5b61146d8a828b01611276565b989b979a50959850939692959293505050565b602081526000825180602084015260005b818110156114ae5760208186018101516040868401015201611491565b506000604082850101526040601f19601f83011684010191505092915050565b60208152600061069860208301600381526204558560ec1b602082015260400190565b6bffffffffffffffffffffffff1960608a811b821683526001600160f81b031960f88b901b1660148401526001600160e81b031960e88a901b1660158401526001600160e01b031960e089811b8216601886015288901b16601c84015285901b16602082015260006034820181848683375060009301928352509098975050505050505050565b8281526001600160a01b03821660208201526060604082018190526003908201526204558560ec1b6080820152600060a082016106bb565b60208152816020820152818360408301376000818301604090810191909152601f909201601f1916010191905056fea264697066735822122083e5b6e3252719b4d7ae3dd8d294a416cac82dd2d38b4d8353aa08695d72ca6864736f6c634300081a0033","linkReferences":{}},"methodIdentifiers":{"admin()":"f851a440","blacklistEntity(uint256,address)":"2303bdff","checkCredential(address,uint32)":"37deb791","checkCredential(uint256,address)":"8776b120","checkCredential(uint256,address,address)":"466d137b","collectFees(address)":"a480ca79","createCredential(address,uint256,uint256,uint256,uint256,bytes,bytes,bytes)":"642e3d74","entityBlacklisted(uint256,address)":"a3111824","entityData(uint256,address)":"a5e8823c","entityExp(uint256,address)":"4e081d26","getKeyHash(bytes)":"2520d38b","keyDetails(bytes32)":"d43548b0","keyExists(bytes32)":"d6b3fa8a","keyValidFrom(bytes32)":"f260fd93","keyValidTo(bytes32)":"53fe5200","packAuthMessage(address,uint256,uint256,uint256,uint256,bytes)":"fff4cbd0","registerKey(uint256,uint256,bytes)":"c06d332e","revokeKey(bytes32)":"572f2210","setAdmin(address)":"704b6c02","unblacklistEntity(uint256,address)":"4db64cfd"},"id":25}