{"abi":[{"type":"constructor","inputs":[{"name":"_credentialCache_","type":"address","internalType":"address"}],"stateMutability":"nonpayable"},{"type":"function","name":"CREDENTIALCACHE","inputs":[],"outputs":[{"name":"","type":"address","internalType":"address"}],"stateMutability":"view"},{"type":"function","name":"UPGRADE_INTERFACE_VERSION","inputs":[],"outputs":[{"name":"","type":"string","internalType":"string"}],"stateMutability":"view"},{"type":"function","name":"checkCredential","inputs":[{"name":"policyId_","type":"uint256","internalType":"uint256"},{"name":"entity_","type":"address","internalType":"address"}],"outputs":[{"name":"","type":"bool","internalType":"bool"}],"stateMutability":"view"},{"type":"function","name":"initialize","inputs":[{"name":"initialOwner_","type":"address","internalType":"address"}],"outputs":[],"stateMutability":"nonpayable"},{"type":"function","name":"owner","inputs":[],"outputs":[{"name":"","type":"address","internalType":"address"}],"stateMutability":"view"},{"type":"function","name":"proxiableUUID","inputs":[],"outputs":[{"name":"","type":"bytes32","internalType":"bytes32"}],"stateMutability":"view"},{"type":"function","name":"renounceOwnership","inputs":[],"outputs":[],"stateMutability":"nonpayable"},{"type":"function","name":"transferOwnership","inputs":[{"name":"newOwner","type":"address","internalType":"address"}],"outputs":[],"stateMutability":"nonpayable"},{"type":"function","name":"upgradeToAndCall","inputs":[{"name":"newImplementation","type":"address","internalType":"address"},{"name":"data","type":"bytes","internalType":"bytes"}],"outputs":[],"stateMutability":"payable"},{"type":"event","name":"Initialized","inputs":[{"name":"version","type":"uint64","indexed":false,"internalType":"uint64"}],"anonymous":false},{"type":"event","name":"OwnershipTransferred","inputs":[{"name":"previousOwner","type":"address","indexed":true,"internalType":"address"},{"name":"newOwner","type":"address","indexed":true,"internalType":"address"}],"anonymous":false},{"type":"event","name":"Upgraded","inputs":[{"name":"implementation","type":"address","indexed":true,"internalType":"address"}],"anonymous":false},{"type":"error","name":"AddressEmptyCode","inputs":[{"name":"target","type":"address","internalType":"address"}]},{"type":"error","name":"ERC1967InvalidImplementation","inputs":[{"name":"implementation","type":"address","internalType":"address"}]},{"type":"error","name":"ERC1967NonPayable","inputs":[]},{"type":"error","name":"FailedInnerCall","inputs":[]},{"type":"error","name":"InvalidInitialization","inputs":[]},{"type":"error","name":"NotInitializing","inputs":[]},{"type":"error","name":"OwnableInvalidOwner","inputs":[{"name":"owner","type":"address","internalType":"address"}]},{"type":"error","name":"OwnableUnauthorizedAccount","inputs":[{"name":"account","type":"address","internalType":"address"}]},{"type":"error","name":"PolicyOverflows","inputs":[]},{"type":"error","name":"UUPSUnauthorizedCallContext","inputs":[]},{"type":"error","name":"UUPSUnsupportedProxiableUUID","inputs":[{"name":"slot","type":"bytes32","internalType":"bytes32"}]}],"bytecode":{"object":"0x60c060405230608052348015610013575f80fd5b50604051610c93380380610c93833981016040819052610032916100ff565b6001600160a01b03811660a05261004761004d565b5061012c565b7ff0c57e16840df040f15088dc2f81fe391c3923bec73e23a9662efc9c229c6a00805468010000000000000000900460ff161561009d5760405163f92ee8a960e01b815260040160405180910390fd5b80546001600160401b03908116146100fc5780546001600160401b0319166001600160401b0390811782556040519081527fc7f505b2f371ae2175ee4913f4499e1f2633a7b5936321eed1cdaeb6115181d29060200160405180910390a15b50565b5f6020828403121561010f575f80fd5b81516001600160a01b0381168114610125575f80fd5b9392505050565b60805160a051610b316101625f395f81816101c401526102a301525f81816104760152818161049f01526105e30152610b315ff3fe608060405260043610610084575f3560e01c80638da5cb5b116100575780638da5cb5b14610107578063ad3cb1cc14610157578063c4d66de814610194578063e881d08a146101b3578063f2fde38b146101e6575f80fd5b80634f1ef2861461008857806352d1902d1461009d578063715018a6146100c45780638776b120146100d8575b5f80fd5b61009b610096366004610953565b610205565b005b3480156100a8575f80fd5b506100b1610224565b6040519081526020015b60405180910390f35b3480156100cf575f80fd5b5061009b61023f565b3480156100e3575f80fd5b506100f76100f2366004610a17565b610252565b60405190151581526020016100bb565b348015610112575f80fd5b507f9016d09d72d40fdae2fd8ceac6b6234c7706214fd39c1cd1e609a0528c199300546001600160a01b03165b6040516001600160a01b0390911681526020016100bb565b348015610162575f80fd5b50610187604051806040016040528060058152602001640352e302e360dc1b81525081565b6040516100bb9190610a41565b34801561019f575f80fd5b5061009b6101ae366004610a76565b610313565b3480156101be575f80fd5b5061013f7f000000000000000000000000000000000000000000000000000000000000000081565b3480156101f1575f80fd5b5061009b610200366004610a76565b610429565b61020d61046b565b6102168261050f565b6102208282610517565b5050565b5f61022d6105d8565b505f80516020610adc83398151915290565b610247610621565b6102505f61067c565b565b5f63ffffffff8311156102785760405163687ddf6760e11b815260040160405180910390fd5b6040516337deb79160e01b81526001600160a01b03838116600483015263ffffffff851660248301527f000000000000000000000000000000000000000000000000000000000000000016906337deb79190604401602060405180830381865afa1580156102e8573d5f803e3d5ffd5b505050506040513d601f19601f8201168201806040525081019061030c9190610a8f565b9392505050565b7ff0c57e16840df040f15088dc2f81fe391c3923bec73e23a9662efc9c229c6a008054600160401b810460ff16159067ffffffffffffffff165f811580156103585750825b90505f8267ffffffffffffffff1660011480156103745750303b155b905081158015610382575080155b156103a05760405163f92ee8a960e01b815260040160405180910390fd5b845467ffffffffffffffff1916600117855583156103ca57845460ff60401b1916600160401b1785555b6103d3866106ec565b6103db6106fd565b831561042157845460ff60401b19168555604051600181527fc7f505b2f371ae2175ee4913f4499e1f2633a7b5936321eed1cdaeb6115181d29060200160405180910390a15b505050505050565b610431610621565b6001600160a01b03811661045f57604051631e4fbdf760e01b81525f60048201526024015b60405180910390fd5b6104688161067c565b50565b306001600160a01b037f00000000000000000000000000000000000000000000000000000000000000001614806104f157507f00000000000000000000000000000000000000000000000000000000000000006001600160a01b03166104e55f80516020610adc833981519152546001600160a01b031690565b6001600160a01b031614155b156102505760405163703e46dd60e11b815260040160405180910390fd5b610468610621565b816001600160a01b03166352d1902d6040518163ffffffff1660e01b8152600401602060405180830381865afa925050508015610571575060408051601f3d908101601f1916820190925261056e91810190610aae565b60015b61059957604051634c9c8ce360e01b81526001600160a01b0383166004820152602401610456565b5f80516020610adc83398151915281146105c957604051632a87526960e21b815260048101829052602401610456565b6105d38383610705565b505050565b306001600160a01b037f000000000000000000000000000000000000000000000000000000000000000016146102505760405163703e46dd60e11b815260040160405180910390fd5b336106537f9016d09d72d40fdae2fd8ceac6b6234c7706214fd39c1cd1e609a0528c199300546001600160a01b031690565b6001600160a01b0316146102505760405163118cdaa760e01b8152336004820152602401610456565b7f9016d09d72d40fdae2fd8ceac6b6234c7706214fd39c1cd1e609a0528c19930080546001600160a01b031981166001600160a01b03848116918217845560405192169182907f8be0079c531659141344cd1fd0a4f28419497f9722a3daafe3b4186f6b6457e0905f90a3505050565b6106f461075a565b610468816107a3565b61025061075a565b61070e826107ab565b6040516001600160a01b038316907fbc7cd75a20ee27fd9adebab32041f755214dbc6bffa90cc0225b39da2e5c2d3b905f90a2805115610752576105d3828261080e565b610220610880565b7ff0c57e16840df040f15088dc2f81fe391c3923bec73e23a9662efc9c229c6a0054600160401b900460ff1661025057604051631afcd79f60e31b815260040160405180910390fd5b61043161075a565b806001600160a01b03163b5f036107e057604051634c9c8ce360e01b81526001600160a01b0382166004820152602401610456565b5f80516020610adc83398151915280546001600160a01b0319166001600160a01b0392909216919091179055565b60605f80846001600160a01b03168460405161082a9190610ac5565b5f60405180830381855af49150503d805f8114610862576040519150601f19603f3d011682016040523d82523d5f602084013e610867565b606091505b509150915061087785838361089f565b95945050505050565b34156102505760405163b398979f60e01b815260040160405180910390fd5b6060826108b4576108af826108fb565b61030c565b81511580156108cb57506001600160a01b0384163b155b156108f457604051639996b31560e01b81526001600160a01b0385166004820152602401610456565b5092915050565b80511561090b5780518082602001fd5b604051630a12f52160e11b815260040160405180910390fd5b80356001600160a01b038116811461093a575f80fd5b919050565b634e487b7160e01b5f52604160045260245ffd5b5f8060408385031215610964575f80fd5b61096d83610924565b9150602083013567ffffffffffffffff811115610988575f80fd5b8301601f81018513610998575f80fd5b803567ffffffffffffffff8111156109b2576109b261093f565b604051601f8201601f19908116603f0116810167ffffffffffffffff811182821017156109e1576109e161093f565b6040528181528282016020018710156109f8575f80fd5b816020840160208301375f602083830101528093505050509250929050565b5f8060408385031215610a28575f80fd5b82359150610a3860208401610924565b90509250929050565b602081525f82518060208401528060208501604085015e5f604082850101526040601f19601f83011684010191505092915050565b5f60208284031215610a86575f80fd5b61030c82610924565b5f60208284031215610a9f575f80fd5b8151801515811461030c575f80fd5b5f60208284031215610abe575f80fd5b5051919050565b5f82518060208501845e5f92019182525091905056fe360894a13ba1a3210667c828492db98dca3e2076cc3735a920a3ca505d382bbca2646970667358221220c19d406745958780bd871d4eac8e16be39f322f0778957d36024d05c2a90f77564736f6c634300081a0033","linkReferences":{}},"methodIdentifiers":{"CREDENTIALCACHE()":"e881d08a","UPGRADE_INTERFACE_VERSION()":"ad3cb1cc","checkCredential(uint256,address)":"8776b120","initialize(address)":"c4d66de8","owner()":"8da5cb5b","proxiableUUID()":"52d1902d","renounceOwnership()":"715018a6","transferOwnership(address)":"f2fde38b","upgradeToAndCall(address,bytes)":"4f1ef286"},"storageLayout":{"storage":[],"types":{}},"id":53}