{"abi":[{"type":"constructor","inputs":[],"stateMutability":"nonpayable"},{"type":"function","name":"admin","inputs":[],"outputs":[{"name":"","type":"address","internalType":"address"}],"stateMutability":"view"},{"type":"function","name":"blacklistEntity","inputs":[{"name":"policyId","type":"uint256","internalType":"uint256"},{"name":"entity_","type":"address","internalType":"address"}],"outputs":[],"stateMutability":"nonpayable"},{"type":"function","name":"checkCredential","inputs":[{"name":"entity_","type":"address","internalType":"address"},{"name":"policyId","type":"uint32","internalType":"uint32"}],"outputs":[{"name":"","type":"bool","internalType":"bool"}],"stateMutability":"view"},{"type":"function","name":"checkCredential","inputs":[{"name":"policyId","type":"uint256","internalType":"uint256"},{"name":"entityA_","type":"address","internalType":"address"},{"name":"entityB_","type":"address","internalType":"address"}],"outputs":[{"name":"","type":"bool","internalType":"bool"}],"stateMutability":"view"},{"type":"function","name":"checkCredential","inputs":[{"name":"policyId","type":"uint256","internalType":"uint256"},{"name":"entity_","type":"address","internalType":"address"}],"outputs":[{"name":"","type":"bool","internalType":"bool"}],"stateMutability":"view"},{"type":"function","name":"collectFees","inputs":[{"name":"to","type":"address","internalType":"address"}],"outputs":[],"stateMutability":"nonpayable"},{"type":"function","name":"createCredential","inputs":[{"name":"tradingAddress","type":"address","internalType":"address"},{"name":"policyId","type":"uint256","internalType":"uint256"},{"name":"validFrom","type":"uint256","internalType":"uint256"},{"name":"validUntil","type":"uint256","internalType":"uint256"},{"name":"cost","type":"uint256","internalType":"uint256"},{"name":"key","type":"bytes","internalType":"bytes"},{"name":"signature","type":"bytes","internalType":"bytes"},{"name":"backdoor","type":"bytes","internalType":"bytes"}],"outputs":[],"stateMutability":"payable"},{"type":"function","name":"entityBlacklisted","inputs":[{"name":"policyId","type":"uint256","internalType":"uint256"},{"name":"entity_","type":"address","internalType":"address"}],"outputs":[{"name":"","type":"bool","internalType":"bool"}],"stateMutability":"view"},{"type":"function","name":"entityData","inputs":[{"name":"policyId","type":"uint256","internalType":"uint256"},{"name":"entity_","type":"address","internalType":"address"}],"outputs":[{"name":"","type":"tuple","internalType":"struct ICoreV2Base.EntityData","components":[{"name":"blacklisted","type":"bool","internalType":"bool"},{"name":"exp","type":"uint64","internalType":"uint64"}]}],"stateMutability":"view"},{"type":"function","name":"entityExp","inputs":[{"name":"policyId","type":"uint256","internalType":"uint256"},{"name":"entity_","type":"address","internalType":"address"}],"outputs":[{"name":"","type":"uint256","internalType":"uint256"}],"stateMutability":"view"},{"type":"function","name":"getKeyHash","inputs":[{"name":"key","type":"bytes","internalType":"bytes"}],"outputs":[{"name":"","type":"bytes32","internalType":"bytes32"}],"stateMutability":"pure"},{"type":"function","name":"keyDetails","inputs":[{"name":"keyHash","type":"bytes32","internalType":"bytes32"}],"outputs":[{"name":"","type":"tuple","internalType":"struct ICoreV2Base.KeyEntry","components":[{"name":"isValid","type":"bool","internalType":"bool"},{"name":"validFrom","type":"uint64","internalType":"uint64"},{"name":"validTo","type":"uint64","internalType":"uint64"}]}],"stateMutability":"view"},{"type":"function","name":"keyExists","inputs":[{"name":"keyHash","type":"bytes32","internalType":"bytes32"}],"outputs":[{"name":"","type":"bool","internalType":"bool"}],"stateMutability":"view"},{"type":"function","name":"keyValidFrom","inputs":[{"name":"keyHash","type":"bytes32","internalType":"bytes32"}],"outputs":[{"name":"","type":"uint256","internalType":"uint256"}],"stateMutability":"view"},{"type":"function","name":"keyValidTo","inputs":[{"name":"keyHash","type":"bytes32","internalType":"bytes32"}],"outputs":[{"name":"","type":"uint256","internalType":"uint256"}],"stateMutability":"view"},{"type":"function","name":"packAuthMessage","inputs":[{"name":"tradingAddress","type":"address","internalType":"address"},{"name":"policyId","type":"uint256","internalType":"uint256"},{"name":"validFrom","type":"uint256","internalType":"uint256"},{"name":"validUntil","type":"uint256","internalType":"uint256"},{"name":"cost","type":"uint256","internalType":"uint256"},{"name":"backdoor","type":"bytes","internalType":"bytes"}],"outputs":[{"name":"","type":"bytes","internalType":"bytes"}],"stateMutability":"pure"},{"type":"function","name":"pkcs1Sha256","inputs":[{"name":"_sha256","type":"bytes32","internalType":"bytes32"},{"name":"_s","type":"bytes","internalType":"bytes"},{"name":"_e","type":"bytes","internalType":"bytes"},{"name":"_m","type":"bytes","internalType":"bytes"}],"outputs":[{"name":"","type":"bool","internalType":"bool"}],"stateMutability":"view"},{"type":"function","name":"registerKey","inputs":[{"name":"validFrom","type":"uint256","internalType":"uint256"},{"name":"validTo","type":"uint256","internalType":"uint256"},{"name":"key","type":"bytes","internalType":"bytes"}],"outputs":[],"stateMutability":"nonpayable"},{"type":"function","name":"revokeKey","inputs":[{"name":"keyHash","type":"bytes32","internalType":"bytes32"}],"outputs":[],"stateMutability":"nonpayable"},{"type":"function","name":"setAdmin","inputs":[{"name":"newAdmin","type":"address","internalType":"address"}],"outputs":[],"stateMutability":"nonpayable"},{"type":"function","name":"unblacklistEntity","inputs":[{"name":"policyId","type":"uint256","internalType":"uint256"},{"name":"entity_","type":"address","internalType":"address"}],"outputs":[],"stateMutability":"nonpayable"},{"type":"event","name":"AdminSet","inputs":[{"name":"oldAdmin","type":"address","indexed":true,"internalType":"address"},{"name":"newAdmin","type":"address","indexed":true,"internalType":"address"}],"anonymous":false},{"type":"event","name":"CredentialCreated","inputs":[{"name":"policyId","type":"uint256","indexed":true,"internalType":"uint256"},{"name":"entity","type":"address","indexed":true,"internalType":"address"},{"name":"exp","type":"uint256","indexed":true,"internalType":"uint256"},{"name":"backdoor","type":"bytes","indexed":false,"internalType":"bytes"}],"anonymous":false},{"type":"event","name":"CredentialRevoked","inputs":[{"name":"policyId","type":"uint256","indexed":true,"internalType":"uint256"},{"name":"entity","type":"address","indexed":true,"internalType":"address"}],"anonymous":false},{"type":"event","name":"EntityBlacklisted","inputs":[{"name":"policyId","type":"uint256","indexed":true,"internalType":"uint256"},{"name":"entity","type":"address","indexed":true,"internalType":"address"}],"anonymous":false},{"type":"event","name":"EntityUnblacklisted","inputs":[{"name":"policyId","type":"uint256","indexed":true,"internalType":"uint256"},{"name":"entity","type":"address","indexed":true,"internalType":"address"}],"anonymous":false},{"type":"event","name":"KeyRegistered","inputs":[{"name":"keyHash","type":"bytes32","indexed":true,"internalType":"bytes32"},{"name":"validFrom","type":"uint256","indexed":true,"internalType":"uint256"},{"name":"validTo","type":"uint256","indexed":true,"internalType":"uint256"},{"name":"publicKey","type":"bytes","indexed":false,"internalType":"bytes"}],"anonymous":false},{"type":"event","name":"KeyRevoked","inputs":[{"name":"keyHash","type":"bytes32","indexed":true,"internalType":"bytes32"}],"anonymous":false},{"type":"error","name":"ErrAlreadyInitialized","inputs":[]},{"type":"error","name":"ErrCallerNotAdmin","inputs":[{"name":"caller","type":"address","internalType":"address"}]},{"type":"error","name":"ErrFailedSendOfValue","inputs":[]},{"type":"error","name":"ErrInvalidCredential","inputs":[{"name":"policyId","type":"uint256","internalType":"uint256"},{"name":"entity","type":"address","internalType":"address"},{"name":"reason","type":"string","internalType":"string"}]},{"type":"error","name":"ErrInvalidKeyRegistration","inputs":[{"name":"reason","type":"string","internalType":"string"}]},{"type":"error","name":"ErrKeyNotFound","inputs":[{"name":"keyHash","type":"bytes32","internalType":"bytes32"}]}],"bytecode":{"object":"0x6080604052348015600e575f80fd5b5060156019565b6081565b5f546001600160a01b03161560415760405163027d126360e01b815260040160405180910390fd5b5f80546001600160a01b0319163390811782556040519091907fbf265e8326285a2747e33e54d5945f7111f2b5edb826eb8c08d4677779b3ff97908290a3565b611aa78061008e5f395ff3fe608060405260043610610126575f3560e01c8063704b6c02116100a8578063c06d332e1161006d578063c06d332e14610406578063d43548b014610425578063d6b3fa8a146104d1578063f260fd93146104ff578063f851a44014610538578063fff4cbd01461055e575f80fd5b8063704b6c02146102cb5780638776b120146102ea578063a311182414610309578063a480ca791461034d578063a5e8823c1461036c575f80fd5b80634db64cfd116100ee5780634db64cfd146101f05780634e081d261461020f57806353fe52001461025e578063572f221014610299578063642e3d74146102b8575f80fd5b80632303bdff1461012a5780632520d38b1461014b57806337deb791146101835780633a8d43b3146101b2578063466d137b146101d1575b5f80fd5b348015610135575f80fd5b506101496101443660046114b2565b61058a565b005b348015610156575f80fd5b50610170610165366004611579565b805160209091012090565b6040519081526020015b60405180910390f35b34801561018e575f80fd5b506101a261019d3660046115aa565b61068a565b604051901515815260200161017a565b3480156101bd575f80fd5b506101a26101cc3660046115e7565b6106a4565b3480156101dc575f80fd5b506101a26101eb36600461167c565b610918565b3480156101fb575f80fd5b5061014961020a3660046114b2565b610934565b34801561021a575f80fd5b506101706102293660046114b2565b5f9182526002602090815260408084206001600160a01b0393909316845291905290205461010090046001600160401b031690565b348015610269575f80fd5b506101706102783660046116b5565b5f90815260016020526040902054600160481b90046001600160401b031690565b3480156102a4575f80fd5b506101496102b33660046116b5565b610a2d565b6101496102c6366004611710565b610ac9565b3480156102d6575f80fd5b506101496102e53660046117e4565b610b42565b3480156102f5575f80fd5b506101a26103043660046114b2565b610bb8565b348015610314575f80fd5b506101a26103233660046114b2565b5f9182526002602090815260408084206001600160a01b0393909316845291905290205460ff1690565b348015610358575f80fd5b506101496103673660046117e4565b610c33565b348015610377575f80fd5b506103e06103863660046114b2565b6040805180820182525f8082526020918201819052938452600281528184206001600160a01b039390931684529182529182902082518084019093525460ff81161515835261010090046001600160401b03169082015290565b604080518251151581526020928301516001600160401b0316928101929092520161017a565b348015610411575f80fd5b506101496104203660046117fd565b610c6c565b348015610430575f80fd5b5061049c61043f3660046116b5565b60408051606080820183525f80835260208084018290529284018190529384526001825292829020825193840183525460ff8116151584526001600160401b036101008204811692850192909252600160481b9004169082015290565b604080518251151581526020808401516001600160401b0390811691830191909152928201519092169082015260600161017a565b3480156104dc575f80fd5b506101a26104eb3660046116b5565b5f9081526001602052604090205460ff1690565b34801561050a575f80fd5b506101706105193660046116b5565b5f9081526001602052604090205461010090046001600160401b031690565b348015610543575f80fd5b505f546040516001600160a01b03909116815260200161017a565b348015610569575f80fd5b5061057d610578366004611848565b610e10565b60405161017a91906118bc565b5f546001600160a01b031633146105bb5760405163e5c221f160e01b81523360048201526024015b60405180910390fd5b5f8281526002602090815260408083206001600160a01b038516845290915290205460ff1615156001036105ed575050565b604080518082018252600181525f6020808301828152868352600282528483206001600160a01b038716808552925284832084518154925168ffffffffffffffffff1990931690151568ffffffffffffffff001916176101006001600160401b0390931692909202919091179055925191929185917fbe6199662454a2f1cb1932fe7337a3517c4045351a92039ff9a832239c1538e091a3505050565b5f61069b8263ffffffff1684610bb8565b90505b92915050565b80515f9060408110156106ba575f915050610910565b845181146106cb575f915050610910565b83516040516001915f916106eb91859182908b908b908b90602001611908565b60408051601f1981840301815291905280519091505f846001600160401b03811115610719576107196114dc565b6040519080825280601f01601f191660200182016040528015610743576020820181803683370190505b5090508460208201836020860160055f19fa61075d575f93505b8361076f575f95505050505050610910565b5f806031601288850103515f1a0361078657601191505b816107a057602f601088850103515f1a036107a057600f91505b816107a9575f95505b6025828803039050600160f01b6001600160f01b031960208501511603156107cf575f95505b806022840101602284015b818110156107fa5760ff81515f1a10156107f2575f97505b6001016107da565b5080515f1a15610808575f96505b508561081d575f975050505050505050610910565b6011820361086557602381840101516effffffffffffffffffffffffffffff19166f3031300d06096086480165030402010560801b818118911461085f575f96505b506108a2565b6023818401015170ffffffffffffffffffffffffffffffffff19166e302f300b060960864801650304020160881b81811891146108a0575f96505b505b856108b6575f975050505050505050610910565b602160f51b6001600160f01b03198383602387010101511603156108d8575f95505b8281018201602501518c8118908d146108ef575f96505b5085610904575f975050505050505050610910565b60019750505050505050505b949350505050565b5f6109238484610bb8565b801561091057506109108483610bb8565b5f546001600160a01b031633146109605760405163e5c221f160e01b81523360048201526024016105b2565b5f8281526002602090815260408083206001600160a01b038516845290915281205460ff1615159003610991575050565b6040805180820182525f8082526020808301828152868352600282528483206001600160a01b038716808552925284832084518154925168ffffffffffffffffff1990931690151568ffffffffffffffff001916176101006001600160401b0390931692909202919091179055925191929185917f4650f4112b7820b3280d1b34bc78495e39d66cdde80d57eb2b97e040523b50c791a3505050565b5f546001600160a01b03163314610a595760405163e5c221f160e01b81523360048201526024016105b2565b5f8181526001602052604090205460ff16610a8a576040516316f88f9560e21b8152600481018290526024016105b2565b5f81815260016020526040808220805460ff191690555182917fd76dbee353f8817df12bf008d3fec1c2f26c9afc1e832f74757756b060b25f8291a250565b610adc8b8b8b8b8b8b8b8b8b8b8b610f9c565b610b2557604051634ef89b4d60e01b8152600481018b90526001600160a01b038c16602482015260606044820152600360648201526253494760e81b608482015260a4016105b2565b610b358b8b8a8a8a8a8888611062565b5050505050505050505050565b5f546001600160a01b03163314610b6e5760405163e5c221f160e01b81523360048201526024016105b2565b5f80546001600160a01b0319166001600160a01b0383169081178255604051909133917fbf265e8326285a2747e33e54d5945f7111f2b5edb826eb8c08d4677779b3ff979190a350565b5f8281526002602090815260408083206001600160a01b0385168452825280832081518083019092525460ff81161580158084526101009092046001600160401b031693830193909352909190610c1b57504281602001516001600160401b0316115b15610c2a57600191505061069e565b505f9392505050565b5f546001600160a01b03163314610c5f5760405163e5c221f160e01b81523360048201526024016105b2565b610c6981476113bf565b50565b5f546001600160a01b03163314610c985760405163e5c221f160e01b81523360048201526024016105b2565b828211610cce57604051633b980f2d60e11b815260206004820152600360248201526204956560ec1b60448201526064016105b2565b42821015610cef57604051633b980f2d60e11b81526004016105b290611943565b805160208201205f905f8181526001602052604090205490915060ff1615610d4057604051633b980f2d60e11b815260206004820152600360248201526225a0a960e91b60448201526064016105b2565b6040805160608101825260018082526001600160401b0380881660208085019182528883168587019081525f888152949091529285902093518454915193518316600160481b0270ffffffffffffffff00000000000000000019949093166101000268ffffffffffffffff00199115159190911668ffffffffffffffffff19909216919091171791909116179055518390859083907fb03f7c2697f23a603f90828b122a7965ae777fe68a85074a26d0805d8a1b7cd190610e029087906118bc565b60405180910390a450505050565b606062ffffff871115610e6257604051634ef89b4d60e01b8152600481018890526001600160a01b038916602482015260606044820152600360648201526214125160ea1b608482015260a4016105b2565b63ffffffff861115610eb357604051634ef89b4d60e01b8152600481018890526001600160a01b038916602482015260606044820152600360648201526221a12360e91b608482015260a4016105b2565b63ffffffff851115610f0457604051634ef89b4d60e01b8152600481018890526001600160a01b038916602482015260606044820152600360648201526242565560e81b608482015260a4016105b2565b6fffffffffffffffffffffffffffffffff841115610f6157604051634ef89b4d60e01b8152600481018890526001600160a01b038916602482015260606044820152600360648201526210d4d560ea1b608482015260a4016105b2565b875f888888888888604051602001610f80989796959493929190611965565b6040516020818303038152906040529050979650505050505050565b5f80610fad8d8d8d8d8d8989610e10565b90505f604051806040016040528060018152602001600360f81b81525090506110508288888080601f0160208091040260200160405190810160405280939291908181526020018383808284375f81840152601f19601f82011690508083019250505050505050838c8c8080601f0160208091040260200160405190810160405280939291908181526020018383808284375f9201919091525061143492505050565b9e9d5050505050505050505050505050565b8434146110ae57604051634ef89b4d60e01b8152600481018890526001600160a01b038916602482015260606044820152600360648201526215905360ea1b608482015260a4016105b2565b5f4290505f6110f186868080601f0160208091040260200160405190810160405280939291908181526020018383808284375f9201919091525061016592505050565b5f8181526001602090815260408083208151606081018352905460ff81161580158084526001600160401b036101008404811696850196909652600160481b9092049094169282019290925293945090611158575081602001516001600160401b03168410155b8015611171575081604001516001600160401b03168411155b9050806111bd57604051634ef89b4d60e01b8152600481018c90526001600160a01b038d16602482015260606044820152600360648201526242444b60e81b608482015260a4016105b2565b505050808710156111e5578789604051634ef89b4d60e01b81526004016105b29291906119ea565b5f8881526002602090815260408083206001600160a01b038d16845282529182902082518084019093525460ff811615801584526101009091046001600160401b03169183019190915261127857604051634ef89b4d60e01b8152600481018a90526001600160a01b038b166024820152606060448201526003606482015262424c4b60e81b608482015260a4016105b2565b80602001516001600160401b031688116112d157604051634ef89b4d60e01b8152600481018a90526001600160a01b038b16602482015260606044820152600360648201526214d51360ea1b608482015260a4016105b2565b8781602001906001600160401b031690816001600160401b0316815250508060025f8b81526020019081526020015f205f8c6001600160a01b03166001600160a01b031681526020019081526020015f205f820151815f015f6101000a81548160ff0219169083151502179055506020820151815f0160016101000a8154816001600160401b0302191690836001600160401b03160217905550905050878a6001600160a01b03168a7f83f42f3150cb5cd2d71c8407e059b5dcda37f6ceb70eaedbe2efb4fe99a256e287876040516113ab929190611a21565b60405180910390a450505050505050505050565b5f826001600160a01b0316826040515f6040518083038185875af1925050503d805f8114611408576040519150601f19603f3d011682016040523d82523d5f602084013e61140d565b606091505b505090508061142f57604051635a1c887760e01b815260040160405180910390fd5b505050565b5f61148e6002866040516114489190611a4f565b602060405180830381855afa158015611463573d5f803e3d5ffd5b5050506040513d601f19601f820116820180604052508101906114869190611a5a565b8585856106a4565b95945050505050565b80356001600160a01b03811681146114ad575f80fd5b919050565b5f80604083850312156114c3575f80fd5b823591506114d360208401611497565b90509250929050565b634e487b7160e01b5f52604160045260245ffd5b5f82601f8301126114ff575f80fd5b81356001600160401b03811115611518576115186114dc565b604051601f8201601f19908116603f011681016001600160401b0381118282101715611546576115466114dc565b60405281815283820160200185101561155d575f80fd5b816020850160208301375f918101602001919091529392505050565b5f60208284031215611589575f80fd5b81356001600160401b0381111561159e575f80fd5b610910848285016114f0565b5f80604083850312156115bb575f80fd5b6115c483611497565b9150602083013563ffffffff811681146115dc575f80fd5b809150509250929050565b5f805f80608085870312156115fa575f80fd5b8435935060208501356001600160401b03811115611616575f80fd5b611622878288016114f0565b93505060408501356001600160401b0381111561163d575f80fd5b611649878288016114f0565b92505060608501356001600160401b03811115611664575f80fd5b611670878288016114f0565b91505092959194509250565b5f805f6060848603121561168e575f80fd5b8335925061169e60208501611497565b91506116ac60408501611497565b90509250925092565b5f602082840312156116c5575f80fd5b5035919050565b5f8083601f8401126116dc575f80fd5b5081356001600160401b038111156116f2575f80fd5b602083019150836020828501011115611709575f80fd5b9250929050565b5f805f805f805f805f805f6101008c8e03121561172b575f80fd5b6117348c611497565b9a5060208c0135995060408c0135985060608c0135975060808c0135965060a08c01356001600160401b0381111561176a575f80fd5b6117768e828f016116cc565b90975095505060c08c01356001600160401b03811115611794575f80fd5b6117a08e828f016116cc565b90955093505060e08c01356001600160401b038111156117be575f80fd5b6117ca8e828f016116cc565b915080935050809150509295989b509295989b9093969950565b5f602082840312156117f4575f80fd5b61069b82611497565b5f805f6060848603121561180f575f80fd5b833592506020840135915060408401356001600160401b03811115611832575f80fd5b61183e868287016114f0565b9150509250925092565b5f805f805f805f60c0888a03121561185e575f80fd5b61186788611497565b96506020880135955060408801359450606088013593506080880135925060a08801356001600160401b0381111561189d575f80fd5b6118a98a828b016116cc565b989b979a50959850939692959293505050565b602081525f82518060208401528060208501604085015e5f604082850101526040601f19601f83011684010191505092915050565b5f81518060208401855e5f93019283525090919050565b8681528560208201528460408201525f61193761193161192b60608501886118f1565b866118f1565b846118f1565b98975050505050505050565b602081525f61069e60208301600381526204558560ec1b602082015260400190565b6bffffffffffffffffffffffff1960608a811b821683526001600160f81b031960f88b901b1660148401526001600160e81b031960e88a901b1660158401526001600160e01b031960e089811b8216601886015288901b16601c84015285901b1660208201525f603482018184868337505f9301928352509098975050505050505050565b8281526001600160a01b03821660208201526060604082018190526003908201526204558560ec1b60808201525f60a08201610910565b60208152816020820152818360408301375f818301604090810191909152601f909201601f19160101919050565b5f61069b82846118f1565b5f60208284031215611a6a575f80fd5b505191905056fea2646970667358221220f6fce5e82935fbd07a8ca30f0479a673fcf720f96ff64554354bb64542ff6c4464736f6c634300081a0033","linkReferences":{}},"methodIdentifiers":{"admin()":"f851a440","blacklistEntity(uint256,address)":"2303bdff","checkCredential(address,uint32)":"37deb791","checkCredential(uint256,address)":"8776b120","checkCredential(uint256,address,address)":"466d137b","collectFees(address)":"a480ca79","createCredential(address,uint256,uint256,uint256,uint256,bytes,bytes,bytes)":"642e3d74","entityBlacklisted(uint256,address)":"a3111824","entityData(uint256,address)":"a5e8823c","entityExp(uint256,address)":"4e081d26","getKeyHash(bytes)":"2520d38b","keyDetails(bytes32)":"d43548b0","keyExists(bytes32)":"d6b3fa8a","keyValidFrom(bytes32)":"f260fd93","keyValidTo(bytes32)":"53fe5200","packAuthMessage(address,uint256,uint256,uint256,uint256,bytes)":"fff4cbd0","pkcs1Sha256(bytes32,bytes,bytes,bytes)":"3a8d43b3","registerKey(uint256,uint256,bytes)":"c06d332e","revokeKey(bytes32)":"572f2210","setAdmin(address)":"704b6c02","unblacklistEntity(uint256,address)":"4db64cfd"},"storageLayout":{"storage":[{"astId":53710,"contract":"src/static/KeyringCoreV2.sol:KeyringCoreV2","label":"_admin","offset":0,"slot":"0","type":"t_address"},{"astId":53716,"contract":"src/static/KeyringCoreV2.sol:KeyringCoreV2","label":"_keys","offset":0,"slot":"1","type":"t_mapping(t_bytes32,t_struct(KeyEntry)54455_storage)"},{"astId":53724,"contract":"src/static/KeyringCoreV2.sol:KeyringCoreV2","label":"_entityData","offset":0,"slot":"2","type":"t_mapping(t_uint256,t_mapping(t_address,t_struct(EntityData)54447_storage))"}],"types":{"t_address":{"encoding":"inplace","label":"address","numberOfBytes":"20"},"t_bool":{"encoding":"inplace","label":"bool","numberOfBytes":"1"},"t_bytes32":{"encoding":"inplace","label":"bytes32","numberOfBytes":"32"},"t_mapping(t_address,t_struct(EntityData)54447_storage)":{"encoding":"mapping","key":"t_address","label":"mapping(address => struct ICoreV2Base.EntityData)","numberOfBytes":"32","value":"t_struct(EntityData)54447_storage"},"t_mapping(t_bytes32,t_struct(KeyEntry)54455_storage)":{"encoding":"mapping","key":"t_bytes32","label":"mapping(bytes32 => struct ICoreV2Base.KeyEntry)","numberOfBytes":"32","value":"t_struct(KeyEntry)54455_storage"},"t_mapping(t_uint256,t_mapping(t_address,t_struct(EntityData)54447_storage))":{"encoding":"mapping","key":"t_uint256","label":"mapping(uint256 => mapping(address => struct ICoreV2Base.EntityData))","numberOfBytes":"32","value":"t_mapping(t_address,t_struct(EntityData)54447_storage)"},"t_struct(EntityData)54447_storage":{"encoding":"inplace","label":"struct ICoreV2Base.EntityData","numberOfBytes":"32","members":[{"astId":54444,"contract":"src/static/KeyringCoreV2.sol:KeyringCoreV2","label":"blacklisted","offset":0,"slot":"0","type":"t_bool"},{"astId":54446,"contract":"src/static/KeyringCoreV2.sol:KeyringCoreV2","label":"exp","offset":1,"slot":"0","type":"t_uint64"}]},"t_struct(KeyEntry)54455_storage":{"encoding":"inplace","label":"struct ICoreV2Base.KeyEntry","numberOfBytes":"32","members":[{"astId":54450,"contract":"src/static/KeyringCoreV2.sol:KeyringCoreV2","label":"isValid","offset":0,"slot":"0","type":"t_bool"},{"astId":54452,"contract":"src/static/KeyringCoreV2.sol:KeyringCoreV2","label":"validFrom","offset":1,"slot":"0","type":"t_uint64"},{"astId":54454,"contract":"src/static/KeyringCoreV2.sol:KeyringCoreV2","label":"validTo","offset":9,"slot":"0","type":"t_uint64"}]},"t_uint256":{"encoding":"inplace","label":"uint256","numberOfBytes":"32"},"t_uint64":{"encoding":"inplace","label":"uint64","numberOfBytes":"8"}}},"id":62}