{"abi":[{"type":"constructor","inputs":[],"stateMutability":"nonpayable"},{"type":"function","name":"admin","inputs":[],"outputs":[{"name":"","type":"address","internalType":"address"}],"stateMutability":"view"},{"type":"function","name":"blacklistEntity","inputs":[{"name":"policyId","type":"uint256","internalType":"uint256"},{"name":"entity_","type":"address","internalType":"address"}],"outputs":[],"stateMutability":"nonpayable"},{"type":"function","name":"checkCredential","inputs":[{"name":"entity_","type":"address","internalType":"address"},{"name":"policyId","type":"uint32","internalType":"uint32"}],"outputs":[{"name":"","type":"bool","internalType":"bool"}],"stateMutability":"view"},{"type":"function","name":"checkCredential","inputs":[{"name":"policyId","type":"uint256","internalType":"uint256"},{"name":"entityA_","type":"address","internalType":"address"},{"name":"entityB_","type":"address","internalType":"address"}],"outputs":[{"name":"","type":"bool","internalType":"bool"}],"stateMutability":"view"},{"type":"function","name":"checkCredential","inputs":[{"name":"policyId","type":"uint256","internalType":"uint256"},{"name":"entity_","type":"address","internalType":"address"}],"outputs":[{"name":"","type":"bool","internalType":"bool"}],"stateMutability":"view"},{"type":"function","name":"collectFees","inputs":[{"name":"to","type":"address","internalType":"address"}],"outputs":[],"stateMutability":"nonpayable"},{"type":"function","name":"createCredential","inputs":[{"name":"tradingAddress","type":"address","internalType":"address"},{"name":"policyId","type":"uint256","internalType":"uint256"},{"name":"validFrom","type":"uint256","internalType":"uint256"},{"name":"validUntil","type":"uint256","internalType":"uint256"},{"name":"cost","type":"uint256","internalType":"uint256"},{"name":"key","type":"bytes","internalType":"bytes"},{"name":"signature","type":"bytes","internalType":"bytes"},{"name":"backdoor","type":"bytes","internalType":"bytes"}],"outputs":[],"stateMutability":"payable"},{"type":"function","name":"entityBlacklisted","inputs":[{"name":"policyId","type":"uint256","internalType":"uint256"},{"name":"entity_","type":"address","internalType":"address"}],"outputs":[{"name":"","type":"bool","internalType":"bool"}],"stateMutability":"view"},{"type":"function","name":"entityData","inputs":[{"name":"policyId","type":"uint256","internalType":"uint256"},{"name":"entity_","type":"address","internalType":"address"}],"outputs":[{"name":"","type":"tuple","internalType":"struct ICoreV2Base.EntityData","components":[{"name":"blacklisted","type":"bool","internalType":"bool"},{"name":"exp","type":"uint64","internalType":"uint64"}]}],"stateMutability":"view"},{"type":"function","name":"entityExp","inputs":[{"name":"policyId","type":"uint256","internalType":"uint256"},{"name":"entity_","type":"address","internalType":"address"}],"outputs":[{"name":"","type":"uint256","internalType":"uint256"}],"stateMutability":"view"},{"type":"function","name":"getKeyHash","inputs":[{"name":"key","type":"bytes","internalType":"bytes"}],"outputs":[{"name":"","type":"bytes32","internalType":"bytes32"}],"stateMutability":"pure"},{"type":"function","name":"keyDetails","inputs":[{"name":"keyHash","type":"bytes32","internalType":"bytes32"}],"outputs":[{"name":"","type":"tuple","internalType":"struct ICoreV2Base.KeyEntry","components":[{"name":"isValid","type":"bool","internalType":"bool"},{"name":"validFrom","type":"uint64","internalType":"uint64"},{"name":"validTo","type":"uint64","internalType":"uint64"}]}],"stateMutability":"view"},{"type":"function","name":"keyExists","inputs":[{"name":"keyHash","type":"bytes32","internalType":"bytes32"}],"outputs":[{"name":"","type":"bool","internalType":"bool"}],"stateMutability":"view"},{"type":"function","name":"keyValidFrom","inputs":[{"name":"keyHash","type":"bytes32","internalType":"bytes32"}],"outputs":[{"name":"","type":"uint256","internalType":"uint256"}],"stateMutability":"view"},{"type":"function","name":"keyValidTo","inputs":[{"name":"keyHash","type":"bytes32","internalType":"bytes32"}],"outputs":[{"name":"","type":"uint256","internalType":"uint256"}],"stateMutability":"view"},{"type":"function","name":"packAuthMessage","inputs":[{"name":"tradingAddress","type":"address","internalType":"address"},{"name":"policyId","type":"uint256","internalType":"uint256"},{"name":"validFrom","type":"uint256","internalType":"uint256"},{"name":"validUntil","type":"uint256","internalType":"uint256"},{"name":"cost","type":"uint256","internalType":"uint256"},{"name":"backdoor","type":"bytes","internalType":"bytes"}],"outputs":[{"name":"","type":"bytes","internalType":"bytes"}],"stateMutability":"pure"},{"type":"function","name":"registerKey","inputs":[{"name":"validFrom","type":"uint256","internalType":"uint256"},{"name":"validTo","type":"uint256","internalType":"uint256"},{"name":"key","type":"bytes","internalType":"bytes"}],"outputs":[],"stateMutability":"nonpayable"},{"type":"function","name":"revokeKey","inputs":[{"name":"keyHash","type":"bytes32","internalType":"bytes32"}],"outputs":[],"stateMutability":"nonpayable"},{"type":"function","name":"setAdmin","inputs":[{"name":"newAdmin","type":"address","internalType":"address"}],"outputs":[],"stateMutability":"nonpayable"},{"type":"function","name":"unblacklistEntity","inputs":[{"name":"policyId","type":"uint256","internalType":"uint256"},{"name":"entity_","type":"address","internalType":"address"}],"outputs":[],"stateMutability":"nonpayable"},{"type":"event","name":"AdminSet","inputs":[{"name":"oldAdmin","type":"address","indexed":true,"internalType":"address"},{"name":"newAdmin","type":"address","indexed":true,"internalType":"address"}],"anonymous":false},{"type":"event","name":"CredentialCreated","inputs":[{"name":"policyId","type":"uint256","indexed":true,"internalType":"uint256"},{"name":"entity","type":"address","indexed":true,"internalType":"address"},{"name":"exp","type":"uint256","indexed":true,"internalType":"uint256"},{"name":"backdoor","type":"bytes","indexed":false,"internalType":"bytes"}],"anonymous":false},{"type":"event","name":"CredentialRevoked","inputs":[{"name":"policyId","type":"uint256","indexed":true,"internalType":"uint256"},{"name":"entity","type":"address","indexed":true,"internalType":"address"}],"anonymous":false},{"type":"event","name":"EntityBlacklisted","inputs":[{"name":"policyId","type":"uint256","indexed":true,"internalType":"uint256"},{"name":"entity","type":"address","indexed":true,"internalType":"address"}],"anonymous":false},{"type":"event","name":"EntityUnblacklisted","inputs":[{"name":"policyId","type":"uint256","indexed":true,"internalType":"uint256"},{"name":"entity","type":"address","indexed":true,"internalType":"address"}],"anonymous":false},{"type":"event","name":"KeyRegistered","inputs":[{"name":"keyHash","type":"bytes32","indexed":true,"internalType":"bytes32"},{"name":"validFrom","type":"uint256","indexed":true,"internalType":"uint256"},{"name":"validTo","type":"uint256","indexed":true,"internalType":"uint256"},{"name":"publicKey","type":"bytes","indexed":false,"internalType":"bytes"}],"anonymous":false},{"type":"event","name":"KeyRevoked","inputs":[{"name":"keyHash","type":"bytes32","indexed":true,"internalType":"bytes32"}],"anonymous":false},{"type":"error","name":"ErrAlreadyInitialized","inputs":[]},{"type":"error","name":"ErrCallerNotAdmin","inputs":[{"name":"caller","type":"address","internalType":"address"}]},{"type":"error","name":"ErrFailedSendOfValue","inputs":[]},{"type":"error","name":"ErrInvalidCredential","inputs":[{"name":"policyId","type":"uint256","internalType":"uint256"},{"name":"entity","type":"address","internalType":"address"},{"name":"reason","type":"string","internalType":"string"}]},{"type":"error","name":"ErrInvalidKeyRegistration","inputs":[{"name":"reason","type":"string","internalType":"string"}]},{"type":"error","name":"ErrKeyNotFound","inputs":[{"name":"keyHash","type":"bytes32","internalType":"bytes32"}]}],"bytecode":{"object":"0x6080604052348015600e575f80fd5b5060156019565b6081565b5f546001600160a01b03161560415760405163027d126360e01b815260040160405180910390fd5b5f80546001600160a01b0319163390811782556040519091907fbf265e8326285a2747e33e54d5945f7111f2b5edb826eb8c08d4677779b3ff97908290a3565b6115838061008e5f395ff3fe60806040526004361061011b575f3560e01c80638776b1201161009d578063d43548b011610062578063d43548b0146103fb578063d6b3fa8a146104a7578063f260fd93146104d5578063f851a4401461050e578063fff4cbd014610534575f80fd5b80638776b120146102c0578063a3111824146102df578063a480ca7914610323578063a5e8823c14610342578063c06d332e146103dc575f80fd5b80634e081d26116100e35780634e081d26146101e557806353fe520014610234578063572f22101461026f578063642e3d741461028e578063704b6c02146102a1575f80fd5b80632303bdff1461011f5780632520d38b1461014057806337deb79114610178578063466d137b146101a75780634db64cfd146101c6575b5f80fd5b34801561012a575f80fd5b5061013e610139366004611097565b610560565b005b34801561014b575f80fd5b5061016561015a36600461115e565b805160209091012090565b6040519081526020015b60405180910390f35b348015610183575f80fd5b5061019761019236600461118f565b610660565b604051901515815260200161016f565b3480156101b2575f80fd5b506101976101c13660046111cc565b61067a565b3480156101d1575f80fd5b5061013e6101e0366004611097565b61069e565b3480156101f0575f80fd5b506101656101ff366004611097565b5f9182526002602090815260408084206001600160a01b0393909316845291905290205461010090046001600160401b031690565b34801561023f575f80fd5b5061016561024e366004611205565b5f90815260016020526040902054600160481b90046001600160401b031690565b34801561027a575f80fd5b5061013e610289366004611205565b610797565b61013e61029c366004611260565b610833565b3480156102ac575f80fd5b5061013e6102bb366004611334565b610850565b3480156102cb575f80fd5b506101976102da366004611097565b6108c6565b3480156102ea575f80fd5b506101976102f9366004611097565b5f9182526002602090815260408084206001600160a01b0393909316845291905290205460ff1690565b34801561032e575f80fd5b5061013e61033d366004611334565b610941565b34801561034d575f80fd5b506103b661035c366004611097565b6040805180820182525f8082526020918201819052938452600281528184206001600160a01b039390931684529182529182902082518084019093525460ff81161515835261010090046001600160401b03169082015290565b604080518251151581526020928301516001600160401b0316928101929092520161016f565b3480156103e7575f80fd5b5061013e6103f636600461134d565b61097a565b348015610406575f80fd5b50610472610415366004611205565b60408051606080820183525f80835260208084018290529284018190529384526001825292829020825193840183525460ff8116151584526001600160401b036101008204811692850192909252600160481b9004169082015290565b604080518251151581526020808401516001600160401b0390811691830191909152928201519092169082015260600161016f565b3480156104b2575f80fd5b506101976104c1366004611205565b5f9081526001602052604090205460ff1690565b3480156104e0575f80fd5b506101656104ef366004611205565b5f9081526001602052604090205461010090046001600160401b031690565b348015610519575f80fd5b505f546040516001600160a01b03909116815260200161016f565b34801561053f575f80fd5b5061055361054e366004611398565b610b1e565b60405161016f919061140c565b5f546001600160a01b031633146105915760405163e5c221f160e01b81523360048201526024015b60405180910390fd5b5f8281526002602090815260408083206001600160a01b038516845290915290205460ff1615156001036105c3575050565b604080518082018252600181525f6020808301828152868352600282528483206001600160a01b038716808552925284832084518154925168ffffffffffffffffff1990931690151568ffffffffffffffff001916176101006001600160401b0390931692909202919091179055925191929185917fbe6199662454a2f1cb1932fe7337a3517c4045351a92039ff9a832239c1538e091a3505050565b5f6106718263ffffffff16846108c6565b90505b92915050565b5f61068584846108c6565b8015610696575061069684836108c6565b949350505050565b5f546001600160a01b031633146106ca5760405163e5c221f160e01b8152336004820152602401610588565b5f8281526002602090815260408083206001600160a01b038516845290915281205460ff16151590036106fb575050565b6040805180820182525f8082526020808301828152868352600282528483206001600160a01b038716808552925284832084518154925168ffffffffffffffffff1990931690151568ffffffffffffffff001916176101006001600160401b0390931692909202919091179055925191929185917f4650f4112b7820b3280d1b34bc78495e39d66cdde80d57eb2b97e040523b50c791a3505050565b5f546001600160a01b031633146107c35760405163e5c221f160e01b8152336004820152602401610588565b5f8181526001602052604090205460ff166107f4576040516316f88f9560e21b815260048101829052602401610588565b5f81815260016020526040808220805460ff191690555182917fd76dbee353f8817df12bf008d3fec1c2f26c9afc1e832f74757756b060b25f8291a250565b6108438b8b8a8a8a8a8888610caa565b5050505050505050505050565b5f546001600160a01b0316331461087c5760405163e5c221f160e01b8152336004820152602401610588565b5f80546001600160a01b0319166001600160a01b0383169081178255604051909133917fbf265e8326285a2747e33e54d5945f7111f2b5edb826eb8c08d4677779b3ff979190a350565b5f8281526002602090815260408083206001600160a01b0385168452825280832081518083019092525460ff81161580158084526101009092046001600160401b03169383019390935290919061092957504281602001516001600160401b0316115b15610938576001915050610674565b505f9392505050565b5f546001600160a01b0316331461096d5760405163e5c221f160e01b8152336004820152602401610588565b6109778147611007565b50565b5f546001600160a01b031633146109a65760405163e5c221f160e01b8152336004820152602401610588565b8282116109dc57604051633b980f2d60e11b815260206004820152600360248201526204956560ec1b6044820152606401610588565b428210156109fd57604051633b980f2d60e11b815260040161058890611441565b805160208201205f905f8181526001602052604090205490915060ff1615610a4e57604051633b980f2d60e11b815260206004820152600360248201526225a0a960e91b6044820152606401610588565b6040805160608101825260018082526001600160401b0380881660208085019182528883168587019081525f888152949091529285902093518454915193518316600160481b0270ffffffffffffffff00000000000000000019949093166101000268ffffffffffffffff00199115159190911668ffffffffffffffffff19909216919091171791909116179055518390859083907fb03f7c2697f23a603f90828b122a7965ae777fe68a85074a26d0805d8a1b7cd190610b1090879061140c565b60405180910390a450505050565b606062ffffff871115610b7057604051634ef89b4d60e01b8152600481018890526001600160a01b038916602482015260606044820152600360648201526214125160ea1b608482015260a401610588565b63ffffffff861115610bc157604051634ef89b4d60e01b8152600481018890526001600160a01b038916602482015260606044820152600360648201526221a12360e91b608482015260a401610588565b63ffffffff851115610c1257604051634ef89b4d60e01b8152600481018890526001600160a01b038916602482015260606044820152600360648201526242565560e81b608482015260a401610588565b6fffffffffffffffffffffffffffffffff841115610c6f57604051634ef89b4d60e01b8152600481018890526001600160a01b038916602482015260606044820152600360648201526210d4d560ea1b608482015260a401610588565b875f888888888888604051602001610c8e989796959493929190611463565b6040516020818303038152906040529050979650505050505050565b843414610cf657604051634ef89b4d60e01b8152600481018890526001600160a01b038916602482015260606044820152600360648201526215905360ea1b608482015260a401610588565b5f4290505f610d3986868080601f0160208091040260200160405190810160405280939291908181526020018383808284375f9201919091525061015a92505050565b5f8181526001602090815260408083208151606081018352905460ff81161580158084526001600160401b036101008404811696850196909652600160481b9092049094169282019290925293945090610da0575081602001516001600160401b03168410155b8015610db9575081604001516001600160401b03168411155b905080610e0557604051634ef89b4d60e01b8152600481018c90526001600160a01b038d16602482015260606044820152600360648201526242444b60e81b608482015260a401610588565b50505080871015610e2d578789604051634ef89b4d60e01b81526004016105889291906114e8565b5f8881526002602090815260408083206001600160a01b038d16845282529182902082518084019093525460ff811615801584526101009091046001600160401b031691830191909152610ec057604051634ef89b4d60e01b8152600481018a90526001600160a01b038b166024820152606060448201526003606482015262424c4b60e81b608482015260a401610588565b80602001516001600160401b03168811610f1957604051634ef89b4d60e01b8152600481018a90526001600160a01b038b16602482015260606044820152600360648201526214d51360ea1b608482015260a401610588565b8781602001906001600160401b031690816001600160401b0316815250508060025f8b81526020019081526020015f205f8c6001600160a01b03166001600160a01b031681526020019081526020015f205f820151815f015f6101000a81548160ff0219169083151502179055506020820151815f0160016101000a8154816001600160401b0302191690836001600160401b03160217905550905050878a6001600160a01b03168a7f83f42f3150cb5cd2d71c8407e059b5dcda37f6ceb70eaedbe2efb4fe99a256e28787604051610ff392919061151f565b60405180910390a450505050505050505050565b5f826001600160a01b0316826040515f6040518083038185875af1925050503d805f8114611050576040519150601f19603f3d011682016040523d82523d5f602084013e611055565b606091505b505090508061107757604051635a1c887760e01b815260040160405180910390fd5b505050565b80356001600160a01b0381168114611092575f80fd5b919050565b5f80604083850312156110a8575f80fd5b823591506110b86020840161107c565b90509250929050565b634e487b7160e01b5f52604160045260245ffd5b5f82601f8301126110e4575f80fd5b81356001600160401b038111156110fd576110fd6110c1565b604051601f8201601f19908116603f011681016001600160401b038111828210171561112b5761112b6110c1565b604052818152838201602001851015611142575f80fd5b816020850160208301375f918101602001919091529392505050565b5f6020828403121561116e575f80fd5b81356001600160401b03811115611183575f80fd5b610696848285016110d5565b5f80604083850312156111a0575f80fd5b6111a98361107c565b9150602083013563ffffffff811681146111c1575f80fd5b809150509250929050565b5f805f606084860312156111de575f80fd5b833592506111ee6020850161107c565b91506111fc6040850161107c565b90509250925092565b5f60208284031215611215575f80fd5b5035919050565b5f8083601f84011261122c575f80fd5b5081356001600160401b03811115611242575f80fd5b602083019150836020828501011115611259575f80fd5b9250929050565b5f805f805f805f805f805f6101008c8e03121561127b575f80fd5b6112848c61107c565b9a5060208c0135995060408c0135985060608c0135975060808c0135965060a08c01356001600160401b038111156112ba575f80fd5b6112c68e828f0161121c565b90975095505060c08c01356001600160401b038111156112e4575f80fd5b6112f08e828f0161121c565b90955093505060e08c01356001600160401b0381111561130e575f80fd5b61131a8e828f0161121c565b915080935050809150509295989b509295989b9093969950565b5f60208284031215611344575f80fd5b6106718261107c565b5f805f6060848603121561135f575f80fd5b833592506020840135915060408401356001600160401b03811115611382575f80fd5b61138e868287016110d5565b9150509250925092565b5f805f805f805f60c0888a0312156113ae575f80fd5b6113b78861107c565b96506020880135955060408801359450606088013593506080880135925060a08801356001600160401b038111156113ed575f80fd5b6113f98a828b0161121c565b989b979a50959850939692959293505050565b602081525f82518060208401528060208501604085015e5f604082850101526040601f19601f83011684010191505092915050565b602081525f61067460208301600381526204558560ec1b602082015260400190565b6bffffffffffffffffffffffff1960608a811b821683526001600160f81b031960f88b901b1660148401526001600160e81b031960e88a901b1660158401526001600160e01b031960e089811b8216601886015288901b16601c84015285901b1660208201525f603482018184868337505f9301928352509098975050505050505050565b8281526001600160a01b03821660208201526060604082018190526003908201526204558560ec1b60808201525f60a08201610696565b60208152816020820152818360408301375f818301604090810191909152601f909201601f1916010191905056fea2646970667358221220faf4c01d99f8e40253a20813146b5659f5ec9adf16a7b41217770b7f09aa7d2064736f6c634300081a0033","linkReferences":{}},"methodIdentifiers":{"admin()":"f851a440","blacklistEntity(uint256,address)":"2303bdff","checkCredential(address,uint32)":"37deb791","checkCredential(uint256,address)":"8776b120","checkCredential(uint256,address,address)":"466d137b","collectFees(address)":"a480ca79","createCredential(address,uint256,uint256,uint256,uint256,bytes,bytes,bytes)":"642e3d74","entityBlacklisted(uint256,address)":"a3111824","entityData(uint256,address)":"a5e8823c","entityExp(uint256,address)":"4e081d26","getKeyHash(bytes)":"2520d38b","keyDetails(bytes32)":"d43548b0","keyExists(bytes32)":"d6b3fa8a","keyValidFrom(bytes32)":"f260fd93","keyValidTo(bytes32)":"53fe5200","packAuthMessage(address,uint256,uint256,uint256,uint256,bytes)":"fff4cbd0","registerKey(uint256,uint256,bytes)":"c06d332e","revokeKey(bytes32)":"572f2210","setAdmin(address)":"704b6c02","unblacklistEntity(uint256,address)":"4db64cfd"},"storageLayout":{"storage":[{"astId":53710,"contract":"src/unsafe/KeyringCoreV2Unsafe.sol:KeyringCoreV2Unsafe","label":"_admin","offset":0,"slot":"0","type":"t_address"},{"astId":53716,"contract":"src/unsafe/KeyringCoreV2Unsafe.sol:KeyringCoreV2Unsafe","label":"_keys","offset":0,"slot":"1","type":"t_mapping(t_bytes32,t_struct(KeyEntry)54455_storage)"},{"astId":53724,"contract":"src/unsafe/KeyringCoreV2Unsafe.sol:KeyringCoreV2Unsafe","label":"_entityData","offset":0,"slot":"2","type":"t_mapping(t_uint256,t_mapping(t_address,t_struct(EntityData)54447_storage))"}],"types":{"t_address":{"encoding":"inplace","label":"address","numberOfBytes":"20"},"t_bool":{"encoding":"inplace","label":"bool","numberOfBytes":"1"},"t_bytes32":{"encoding":"inplace","label":"bytes32","numberOfBytes":"32"},"t_mapping(t_address,t_struct(EntityData)54447_storage)":{"encoding":"mapping","key":"t_address","label":"mapping(address => struct ICoreV2Base.EntityData)","numberOfBytes":"32","value":"t_struct(EntityData)54447_storage"},"t_mapping(t_bytes32,t_struct(KeyEntry)54455_storage)":{"encoding":"mapping","key":"t_bytes32","label":"mapping(bytes32 => struct ICoreV2Base.KeyEntry)","numberOfBytes":"32","value":"t_struct(KeyEntry)54455_storage"},"t_mapping(t_uint256,t_mapping(t_address,t_struct(EntityData)54447_storage))":{"encoding":"mapping","key":"t_uint256","label":"mapping(uint256 => mapping(address => struct ICoreV2Base.EntityData))","numberOfBytes":"32","value":"t_mapping(t_address,t_struct(EntityData)54447_storage)"},"t_struct(EntityData)54447_storage":{"encoding":"inplace","label":"struct ICoreV2Base.EntityData","numberOfBytes":"32","members":[{"astId":54444,"contract":"src/unsafe/KeyringCoreV2Unsafe.sol:KeyringCoreV2Unsafe","label":"blacklisted","offset":0,"slot":"0","type":"t_bool"},{"astId":54446,"contract":"src/unsafe/KeyringCoreV2Unsafe.sol:KeyringCoreV2Unsafe","label":"exp","offset":1,"slot":"0","type":"t_uint64"}]},"t_struct(KeyEntry)54455_storage":{"encoding":"inplace","label":"struct ICoreV2Base.KeyEntry","numberOfBytes":"32","members":[{"astId":54450,"contract":"src/unsafe/KeyringCoreV2Unsafe.sol:KeyringCoreV2Unsafe","label":"isValid","offset":0,"slot":"0","type":"t_bool"},{"astId":54452,"contract":"src/unsafe/KeyringCoreV2Unsafe.sol:KeyringCoreV2Unsafe","label":"validFrom","offset":1,"slot":"0","type":"t_uint64"},{"astId":54454,"contract":"src/unsafe/KeyringCoreV2Unsafe.sol:KeyringCoreV2Unsafe","label":"validTo","offset":9,"slot":"0","type":"t_uint64"}]},"t_uint256":{"encoding":"inplace","label":"uint256","numberOfBytes":"32"},"t_uint64":{"encoding":"inplace","label":"uint64","numberOfBytes":"8"}}},"id":64}