{"abi":[{"type":"constructor","inputs":[],"stateMutability":"nonpayable"},{"type":"function","name":"CREDENTIALCACHE","inputs":[],"outputs":[{"name":"","type":"address","internalType":"address"}],"stateMutability":"view"},{"type":"function","name":"TEST","inputs":[],"outputs":[{"name":"","type":"bytes32","internalType":"bytes32"}],"stateMutability":"view"},{"type":"function","name":"UPGRADE_INTERFACE_VERSION","inputs":[],"outputs":[{"name":"","type":"string","internalType":"string"}],"stateMutability":"view"},{"type":"function","name":"checkCredential","inputs":[{"name":"","type":"uint256","internalType":"uint256"},{"name":"","type":"address","internalType":"address"}],"outputs":[{"name":"","type":"bool","internalType":"bool"}],"stateMutability":"pure"},{"type":"function","name":"initialize","inputs":[],"outputs":[],"stateMutability":"nonpayable"},{"type":"function","name":"owner","inputs":[],"outputs":[{"name":"","type":"address","internalType":"address"}],"stateMutability":"view"},{"type":"function","name":"proxiableUUID","inputs":[],"outputs":[{"name":"","type":"bytes32","internalType":"bytes32"}],"stateMutability":"view"},{"type":"function","name":"renounceOwnership","inputs":[],"outputs":[],"stateMutability":"nonpayable"},{"type":"function","name":"transferOwnership","inputs":[{"name":"newOwner","type":"address","internalType":"address"}],"outputs":[],"stateMutability":"nonpayable"},{"type":"function","name":"upgradeToAndCall","inputs":[{"name":"newImplementation","type":"address","internalType":"address"},{"name":"data","type":"bytes","internalType":"bytes"}],"outputs":[],"stateMutability":"payable"},{"type":"event","name":"Initialized","inputs":[{"name":"version","type":"uint64","indexed":false,"internalType":"uint64"}],"anonymous":false},{"type":"event","name":"OwnershipTransferred","inputs":[{"name":"previousOwner","type":"address","indexed":true,"internalType":"address"},{"name":"newOwner","type":"address","indexed":true,"internalType":"address"}],"anonymous":false},{"type":"event","name":"Upgraded","inputs":[{"name":"implementation","type":"address","indexed":true,"internalType":"address"}],"anonymous":false},{"type":"error","name":"AddressEmptyCode","inputs":[{"name":"target","type":"address","internalType":"address"}]},{"type":"error","name":"ERC1967InvalidImplementation","inputs":[{"name":"implementation","type":"address","internalType":"address"}]},{"type":"error","name":"ERC1967NonPayable","inputs":[]},{"type":"error","name":"FailedInnerCall","inputs":[]},{"type":"error","name":"InvalidInitialization","inputs":[]},{"type":"error","name":"NotInitializing","inputs":[]},{"type":"error","name":"OwnableInvalidOwner","inputs":[{"name":"owner","type":"address","internalType":"address"}]},{"type":"error","name":"OwnableUnauthorizedAccount","inputs":[{"name":"account","type":"address","internalType":"address"}]},{"type":"error","name":"PolicyOverflows","inputs":[]},{"type":"error","name":"UUPSUnauthorizedCallContext","inputs":[]},{"type":"error","name":"UUPSUnsupportedProxiableUUID","inputs":[{"name":"slot","type":"bytes32","internalType":"bytes32"}]}],"bytecode":{"object":"0x60a060405230608052348015610013575f80fd5b5061001c610021565b6100d3565b7ff0c57e16840df040f15088dc2f81fe391c3923bec73e23a9662efc9c229c6a00805468010000000000000000900460ff16156100715760405163f92ee8a960e01b815260040160405180910390fd5b80546001600160401b03908116146100d05780546001600160401b0319166001600160401b0390811782556040519081527fc7f505b2f371ae2175ee4913f4499e1f2633a7b5936321eed1cdaeb6115181d29060200160405180910390a15b50565b6080516109ba6100f95f395f8181610385015281816103ae01526104f201526109ba5ff3fe60806040526004361061008f575f3560e01c80638776b120116100575780638776b1201461012a5780638da5cb5b1461015c578063ad3cb1cc146101ac578063e881d08a146101e9578063f2fde38b146101fd575f80fd5b80634f1ef2861461009357806351d977a6146100a857806352d1902d146100ee578063715018a6146101025780638129fc1c14610116575b5f80fd5b6100a66100a13660046107fb565b61021c565b005b3480156100b3575f80fd5b506100db7f852daa74cc3c31fe64542bb9b8764cfb91cc30f9acf9389071ffb44a9eefde4681565b6040519081526020015b60405180910390f35b3480156100f9575f80fd5b506100db61023b565b34801561010d575f80fd5b506100a6610256565b348015610121575f80fd5b506100a6610269565b348015610135575f80fd5b5061014c6101443660046108bf565b600192915050565b60405190151581526020016100e5565b348015610167575f80fd5b507f9016d09d72d40fdae2fd8ceac6b6234c7706214fd39c1cd1e609a0528c199300546001600160a01b03165b6040516001600160a01b0390911681526020016100e5565b3480156101b7575f80fd5b506101dc604051806040016040528060058152602001640352e302e360dc1b81525081565b6040516100e591906108e9565b3480156101f4575f80fd5b50610194600181565b348015610208575f80fd5b506100a661021736600461091e565b610338565b61022461037a565b61022d8261041e565b6102378282610426565b5050565b5f6102446104e7565b505f8051602061096583398151915290565b61025e610530565b6102675f61058b565b565b7ff0c57e16840df040f15088dc2f81fe391c3923bec73e23a9662efc9c229c6a00805460039190600160401b900460ff16806102b35750805467ffffffffffffffff808416911610155b156102d15760405163f92ee8a960e01b815260040160405180910390fd5b805468ffffffffffffffffff191667ffffffffffffffff8316908117600160401b1768ff0000000000000000191682556040519081527fc7f505b2f371ae2175ee4913f4499e1f2633a7b5936321eed1cdaeb6115181d29060200160405180910390a15050565b610340610530565b6001600160a01b03811661036e57604051631e4fbdf760e01b81525f60048201526024015b60405180910390fd5b6103778161058b565b50565b306001600160a01b037f000000000000000000000000000000000000000000000000000000000000000016148061040057507f00000000000000000000000000000000000000000000000000000000000000006001600160a01b03166103f45f80516020610965833981519152546001600160a01b031690565b6001600160a01b031614155b156102675760405163703e46dd60e11b815260040160405180910390fd5b610377610530565b816001600160a01b03166352d1902d6040518163ffffffff1660e01b8152600401602060405180830381865afa925050508015610480575060408051601f3d908101601f1916820190925261047d91810190610937565b60015b6104a857604051634c9c8ce360e01b81526001600160a01b0383166004820152602401610365565b5f8051602061096583398151915281146104d857604051632a87526960e21b815260048101829052602401610365565b6104e283836105fb565b505050565b306001600160a01b037f000000000000000000000000000000000000000000000000000000000000000016146102675760405163703e46dd60e11b815260040160405180910390fd5b336105627f9016d09d72d40fdae2fd8ceac6b6234c7706214fd39c1cd1e609a0528c199300546001600160a01b031690565b6001600160a01b0316146102675760405163118cdaa760e01b8152336004820152602401610365565b7f9016d09d72d40fdae2fd8ceac6b6234c7706214fd39c1cd1e609a0528c19930080546001600160a01b031981166001600160a01b03848116918217845560405192169182907f8be0079c531659141344cd1fd0a4f28419497f9722a3daafe3b4186f6b6457e0905f90a3505050565b61060482610650565b6040516001600160a01b038316907fbc7cd75a20ee27fd9adebab32041f755214dbc6bffa90cc0225b39da2e5c2d3b905f90a2805115610648576104e282826106b3565b610237610725565b806001600160a01b03163b5f0361068557604051634c9c8ce360e01b81526001600160a01b0382166004820152602401610365565b5f8051602061096583398151915280546001600160a01b0319166001600160a01b0392909216919091179055565b60605f80846001600160a01b0316846040516106cf919061094e565b5f60405180830381855af49150503d805f8114610707576040519150601f19603f3d011682016040523d82523d5f602084013e61070c565b606091505b509150915061071c858383610744565b95945050505050565b34156102675760405163b398979f60e01b815260040160405180910390fd5b60608261075957610754826107a3565b61079c565b815115801561077057506001600160a01b0384163b155b1561079957604051639996b31560e01b81526001600160a01b0385166004820152602401610365565b50805b9392505050565b8051156107b35780518082602001fd5b604051630a12f52160e11b815260040160405180910390fd5b80356001600160a01b03811681146107e2575f80fd5b919050565b634e487b7160e01b5f52604160045260245ffd5b5f806040838503121561080c575f80fd5b610815836107cc565b9150602083013567ffffffffffffffff811115610830575f80fd5b8301601f81018513610840575f80fd5b803567ffffffffffffffff81111561085a5761085a6107e7565b604051601f8201601f19908116603f0116810167ffffffffffffffff81118282101715610889576108896107e7565b6040528181528282016020018710156108a0575f80fd5b816020840160208301375f602083830101528093505050509250929050565b5f80604083850312156108d0575f80fd5b823591506108e0602084016107cc565b90509250929050565b602081525f82518060208401528060208501604085015e5f604082850101526040601f19601f83011684010191505092915050565b5f6020828403121561092e575f80fd5b61079c826107cc565b5f60208284031215610947575f80fd5b5051919050565b5f82518060208501845e5f92019182525091905056fe360894a13ba1a3210667c828492db98dca3e2076cc3735a920a3ca505d382bbca26469706673582212205164dd94500eac3f91059e243b2b3424f084e270def23f55cbfbeb7b761cd27264736f6c634300081a0033","linkReferences":{}},"methodIdentifiers":{"CREDENTIALCACHE()":"e881d08a","TEST()":"51d977a6","UPGRADE_INTERFACE_VERSION()":"ad3cb1cc","checkCredential(uint256,address)":"8776b120","initialize()":"8129fc1c","owner()":"8da5cb5b","proxiableUUID()":"52d1902d","renounceOwnership()":"715018a6","transferOwnership(address)":"f2fde38b","upgradeToAndCall(address,bytes)":"4f1ef286"},"storageLayout":{"storage":[],"types":{}},"id":75}