{"abi":[{"type":"constructor","inputs":[],"stateMutability":"nonpayable"},{"type":"function","name":"UPGRADE_INTERFACE_VERSION","inputs":[],"outputs":[{"name":"","type":"string","internalType":"string"}],"stateMutability":"view"},{"type":"function","name":"admin","inputs":[],"outputs":[{"name":"","type":"address","internalType":"address"}],"stateMutability":"view"},{"type":"function","name":"blacklistEntity","inputs":[{"name":"policyId","type":"uint256","internalType":"uint256"},{"name":"entity_","type":"address","internalType":"address"}],"outputs":[],"stateMutability":"nonpayable"},{"type":"function","name":"checkCredential","inputs":[{"name":"entity_","type":"address","internalType":"address"},{"name":"policyId","type":"uint32","internalType":"uint32"}],"outputs":[{"name":"","type":"bool","internalType":"bool"}],"stateMutability":"view"},{"type":"function","name":"checkCredential","inputs":[{"name":"policyId","type":"uint256","internalType":"uint256"},{"name":"entityA_","type":"address","internalType":"address"},{"name":"entityB_","type":"address","internalType":"address"}],"outputs":[{"name":"","type":"bool","internalType":"bool"}],"stateMutability":"view"},{"type":"function","name":"checkCredential","inputs":[{"name":"policyId","type":"uint256","internalType":"uint256"},{"name":"entity_","type":"address","internalType":"address"}],"outputs":[{"name":"","type":"bool","internalType":"bool"}],"stateMutability":"view"},{"type":"function","name":"collectFees","inputs":[{"name":"to","type":"address","internalType":"address"}],"outputs":[],"stateMutability":"nonpayable"},{"type":"function","name":"createCredential","inputs":[{"name":"tradingAddress","type":"address","internalType":"address"},{"name":"policyId","type":"uint256","internalType":"uint256"},{"name":"validFrom","type":"uint256","internalType":"uint256"},{"name":"validUntil","type":"uint256","internalType":"uint256"},{"name":"cost","type":"uint256","internalType":"uint256"},{"name":"key","type":"bytes","internalType":"bytes"},{"name":"signature","type":"bytes","internalType":"bytes"},{"name":"backdoor","type":"bytes","internalType":"bytes"}],"outputs":[],"stateMutability":"payable"},{"type":"function","name":"entityBlacklisted","inputs":[{"name":"policyId","type":"uint256","internalType":"uint256"},{"name":"entity_","type":"address","internalType":"address"}],"outputs":[{"name":"","type":"bool","internalType":"bool"}],"stateMutability":"view"},{"type":"function","name":"entityData","inputs":[{"name":"policyId","type":"uint256","internalType":"uint256"},{"name":"entity_","type":"address","internalType":"address"}],"outputs":[{"name":"","type":"tuple","internalType":"struct ICoreV2Base.EntityData","components":[{"name":"blacklisted","type":"bool","internalType":"bool"},{"name":"exp","type":"uint64","internalType":"uint64"}]}],"stateMutability":"view"},{"type":"function","name":"entityExp","inputs":[{"name":"policyId","type":"uint256","internalType":"uint256"},{"name":"entity_","type":"address","internalType":"address"}],"outputs":[{"name":"","type":"uint256","internalType":"uint256"}],"stateMutability":"view"},{"type":"function","name":"getKeyHash","inputs":[{"name":"key","type":"bytes","internalType":"bytes"}],"outputs":[{"name":"","type":"bytes32","internalType":"bytes32"}],"stateMutability":"pure"},{"type":"function","name":"initialize","inputs":[],"outputs":[],"stateMutability":"nonpayable"},{"type":"function","name":"keyDetails","inputs":[{"name":"keyHash","type":"bytes32","internalType":"bytes32"}],"outputs":[{"name":"","type":"tuple","internalType":"struct ICoreV2Base.KeyEntry","components":[{"name":"isValid","type":"bool","internalType":"bool"},{"name":"validFrom","type":"uint64","internalType":"uint64"},{"name":"validTo","type":"uint64","internalType":"uint64"}]}],"stateMutability":"view"},{"type":"function","name":"keyExists","inputs":[{"name":"keyHash","type":"bytes32","internalType":"bytes32"}],"outputs":[{"name":"","type":"bool","internalType":"bool"}],"stateMutability":"view"},{"type":"function","name":"keyValidFrom","inputs":[{"name":"keyHash","type":"bytes32","internalType":"bytes32"}],"outputs":[{"name":"","type":"uint256","internalType":"uint256"}],"stateMutability":"view"},{"type":"function","name":"keyValidTo","inputs":[{"name":"keyHash","type":"bytes32","internalType":"bytes32"}],"outputs":[{"name":"","type":"uint256","internalType":"uint256"}],"stateMutability":"view"},{"type":"function","name":"owner","inputs":[],"outputs":[{"name":"","type":"address","internalType":"address"}],"stateMutability":"view"},{"type":"function","name":"packAuthMessage","inputs":[{"name":"tradingAddress","type":"address","internalType":"address"},{"name":"policyId","type":"uint256","internalType":"uint256"},{"name":"validFrom","type":"uint256","internalType":"uint256"},{"name":"validUntil","type":"uint256","internalType":"uint256"},{"name":"cost","type":"uint256","internalType":"uint256"},{"name":"backdoor","type":"bytes","internalType":"bytes"}],"outputs":[{"name":"","type":"bytes","internalType":"bytes"}],"stateMutability":"pure"},{"type":"function","name":"pkcs1Sha256","inputs":[{"name":"_sha256","type":"bytes32","internalType":"bytes32"},{"name":"_s","type":"bytes","internalType":"bytes"},{"name":"_e","type":"bytes","internalType":"bytes"},{"name":"_m","type":"bytes","internalType":"bytes"}],"outputs":[{"name":"","type":"bool","internalType":"bool"}],"stateMutability":"view"},{"type":"function","name":"proxiableUUID","inputs":[],"outputs":[{"name":"","type":"bytes32","internalType":"bytes32"}],"stateMutability":"view"},{"type":"function","name":"registerKey","inputs":[{"name":"validFrom","type":"uint256","internalType":"uint256"},{"name":"validTo","type":"uint256","internalType":"uint256"},{"name":"key","type":"bytes","internalType":"bytes"}],"outputs":[],"stateMutability":"nonpayable"},{"type":"function","name":"renounceOwnership","inputs":[],"outputs":[],"stateMutability":"nonpayable"},{"type":"function","name":"revokeKey","inputs":[{"name":"keyHash","type":"bytes32","internalType":"bytes32"}],"outputs":[],"stateMutability":"nonpayable"},{"type":"function","name":"setAdmin","inputs":[{"name":"newAdmin","type":"address","internalType":"address"}],"outputs":[],"stateMutability":"nonpayable"},{"type":"function","name":"transferOwnership","inputs":[{"name":"newOwner","type":"address","internalType":"address"}],"outputs":[],"stateMutability":"nonpayable"},{"type":"function","name":"unblacklistEntity","inputs":[{"name":"policyId","type":"uint256","internalType":"uint256"},{"name":"entity_","type":"address","internalType":"address"}],"outputs":[],"stateMutability":"nonpayable"},{"type":"function","name":"upgradeToAndCall","inputs":[{"name":"newImplementation","type":"address","internalType":"address"},{"name":"data","type":"bytes","internalType":"bytes"}],"outputs":[],"stateMutability":"payable"},{"type":"event","name":"AdminSet","inputs":[{"name":"oldAdmin","type":"address","indexed":true,"internalType":"address"},{"name":"newAdmin","type":"address","indexed":true,"internalType":"address"}],"anonymous":false},{"type":"event","name":"CredentialCreated","inputs":[{"name":"policyId","type":"uint256","indexed":true,"internalType":"uint256"},{"name":"entity","type":"address","indexed":true,"internalType":"address"},{"name":"exp","type":"uint256","indexed":true,"internalType":"uint256"},{"name":"backdoor","type":"bytes","indexed":false,"internalType":"bytes"}],"anonymous":false},{"type":"event","name":"CredentialRevoked","inputs":[{"name":"policyId","type":"uint256","indexed":true,"internalType":"uint256"},{"name":"entity","type":"address","indexed":true,"internalType":"address"}],"anonymous":false},{"type":"event","name":"EntityBlacklisted","inputs":[{"name":"policyId","type":"uint256","indexed":true,"internalType":"uint256"},{"name":"entity","type":"address","indexed":true,"internalType":"address"}],"anonymous":false},{"type":"event","name":"EntityUnblacklisted","inputs":[{"name":"policyId","type":"uint256","indexed":true,"internalType":"uint256"},{"name":"entity","type":"address","indexed":true,"internalType":"address"}],"anonymous":false},{"type":"event","name":"Initialized","inputs":[{"name":"version","type":"uint64","indexed":false,"internalType":"uint64"}],"anonymous":false},{"type":"event","name":"KeyRegistered","inputs":[{"name":"keyHash","type":"bytes32","indexed":true,"internalType":"bytes32"},{"name":"validFrom","type":"uint256","indexed":true,"internalType":"uint256"},{"name":"validTo","type":"uint256","indexed":true,"internalType":"uint256"},{"name":"publicKey","type":"bytes","indexed":false,"internalType":"bytes"}],"anonymous":false},{"type":"event","name":"KeyRevoked","inputs":[{"name":"keyHash","type":"bytes32","indexed":true,"internalType":"bytes32"}],"anonymous":false},{"type":"event","name":"OwnershipTransferred","inputs":[{"name":"previousOwner","type":"address","indexed":true,"internalType":"address"},{"name":"newOwner","type":"address","indexed":true,"internalType":"address"}],"anonymous":false},{"type":"event","name":"Upgraded","inputs":[{"name":"implementation","type":"address","indexed":true,"internalType":"address"}],"anonymous":false},{"type":"error","name":"AddressEmptyCode","inputs":[{"name":"target","type":"address","internalType":"address"}]},{"type":"error","name":"ERC1967InvalidImplementation","inputs":[{"name":"implementation","type":"address","internalType":"address"}]},{"type":"error","name":"ERC1967NonPayable","inputs":[]},{"type":"error","name":"ErrAlreadyInitialized","inputs":[]},{"type":"error","name":"ErrCallerNotAdmin","inputs":[{"name":"caller","type":"address","internalType":"address"}]},{"type":"error","name":"ErrFailedSendOfValue","inputs":[]},{"type":"error","name":"ErrInvalidCredential","inputs":[{"name":"policyId","type":"uint256","internalType":"uint256"},{"name":"entity","type":"address","internalType":"address"},{"name":"reason","type":"string","internalType":"string"}]},{"type":"error","name":"ErrInvalidKeyRegistration","inputs":[{"name":"reason","type":"string","internalType":"string"}]},{"type":"error","name":"ErrKeyNotFound","inputs":[{"name":"keyHash","type":"bytes32","internalType":"bytes32"}]},{"type":"error","name":"FailedInnerCall","inputs":[]},{"type":"error","name":"InvalidInitialization","inputs":[]},{"type":"error","name":"NotInitializing","inputs":[]},{"type":"error","name":"OwnableInvalidOwner","inputs":[{"name":"owner","type":"address","internalType":"address"}]},{"type":"error","name":"OwnableUnauthorizedAccount","inputs":[{"name":"account","type":"address","internalType":"address"}]},{"type":"error","name":"UUPSUnauthorizedCallContext","inputs":[]},{"type":"error","name":"UUPSUnsupportedProxiableUUID","inputs":[{"name":"slot","type":"bytes32","internalType":"bytes32"}]}],"bytecode":{"object":"0x60a060405230608052348015610013575f80fd5b5061001c610021565b6100d3565b7ff0c57e16840df040f15088dc2f81fe391c3923bec73e23a9662efc9c229c6a00805468010000000000000000900460ff16156100715760405163f92ee8a960e01b815260040160405180910390fd5b80546001600160401b03908116146100d05780546001600160401b0319166001600160401b0390811782556040519081527fc7f505b2f371ae2175ee4913f4499e1f2633a7b5936321eed1cdaeb6115181d29060200160405180910390a15b50565b6080516122ac6100f95f395f818161128d015281816112b601526113fa01526122ac5ff3fe6080604052600436106101af575f3560e01c80638129fc1c116100e7578063c06d332e11610087578063f260fd9311610062578063f260fd9314610664578063f2fde38b1461069d578063f851a440146106bc578063fff4cbd0146106d8575f80fd5b8063c06d332e1461056b578063d43548b01461058a578063d6b3fa8a14610636575f80fd5b8063a3111824116100c2578063a311182414610431578063a480ca7914610475578063a5e8823c14610494578063ad3cb1cc1461052e575f80fd5b80638129fc1c146103ae5780638776b120146103c25780638da5cb5b146103e1575f80fd5b80634f1ef28611610152578063572f22101161012d578063572f221014610349578063642e3d7414610368578063704b6c021461037b578063715018a61461039a575f80fd5b80634f1ef286146102e757806352d1902d146102fa57806353fe52001461030e575f80fd5b80633a8d43b31161018d5780633a8d43b31461023b578063466d137b1461025a5780634db64cfd146102795780634e081d2614610298575f80fd5b80632303bdff146101b35780632520d38b146101d457806337deb7911461020c575b5f80fd5b3480156101be575f80fd5b506101d26101cd366004611c42565b6106f7565b005b3480156101df575f80fd5b506101f96101ee366004611d09565b805160209091012090565b6040519081526020015b60405180910390f35b348015610217575f80fd5b5061022b610226366004611d3a565b6107f7565b6040519015158152602001610203565b348015610246575f80fd5b5061022b610255366004611d77565b610811565b348015610265575f80fd5b5061022b610274366004611e0c565b610a85565b348015610284575f80fd5b506101d2610293366004611c42565b610aab565b3480156102a3575f80fd5b506101f96102b2366004611c42565b5f9182526002602090815260408084206001600160a01b0393909316845291905290205461010090046001600160401b031690565b6101d26102f5366004611e45565b610ba4565b348015610305575f80fd5b506101f9610bc3565b348015610319575f80fd5b506101f9610328366004611e8f565b5f90815260016020526040902054600160481b90046001600160401b031690565b348015610354575f80fd5b506101d2610363366004611e8f565b610bde565b6101d2610376366004611eea565b610c7a565b348015610386575f80fd5b506101d2610395366004611fbe565b610cf3565b3480156103a5575f80fd5b506101d2610d69565b3480156103b9575f80fd5b506101d2610d7c565b3480156103cd575f80fd5b5061022b6103dc366004611c42565b610e64565b3480156103ec575f80fd5b507f9016d09d72d40fdae2fd8ceac6b6234c7706214fd39c1cd1e609a0528c199300546001600160a01b03165b6040516001600160a01b039091168152602001610203565b34801561043c575f80fd5b5061022b61044b366004611c42565b5f9182526002602090815260408084206001600160a01b0393909316845291905290205460ff1690565b348015610480575f80fd5b506101d261048f366004611fbe565b610edf565b34801561049f575f80fd5b506105086104ae366004611c42565b6040805180820182525f8082526020918201819052938452600281528184206001600160a01b039390931684529182529182902082518084019093525460ff81161515835261010090046001600160401b03169082015290565b604080518251151581526020928301516001600160401b03169281019290925201610203565b348015610539575f80fd5b5061055e604051806040016040528060058152602001640352e302e360dc1b81525081565b6040516102039190612005565b348015610576575f80fd5b506101d2610585366004612017565b610f18565b348015610595575f80fd5b506106016105a4366004611e8f565b60408051606080820183525f80835260208084018290529284018190529384526001825292829020825193840183525460ff8116151584526001600160401b036101008204811692850192909252600160481b9004169082015290565b604080518251151581526020808401516001600160401b03908116918301919091529282015190921690820152606001610203565b348015610641575f80fd5b5061022b610650366004611e8f565b5f9081526001602052604090205460ff1690565b34801561066f575f80fd5b506101f961067e366004611e8f565b5f9081526001602052604090205461010090046001600160401b031690565b3480156106a8575f80fd5b506101d26106b7366004611fbe565b6110bc565b3480156106c7575f80fd5b505f546001600160a01b0316610419565b3480156106e3575f80fd5b5061055e6106f2366004612062565b6110f6565b5f546001600160a01b031633146107285760405163e5c221f160e01b81523360048201526024015b60405180910390fd5b5f8281526002602090815260408083206001600160a01b038516845290915290205460ff16151560010361075a575050565b604080518082018252600181525f6020808301828152868352600282528483206001600160a01b038716808552925284832084518154925168ffffffffffffffffff1990931690151568ffffffffffffffff001916176101006001600160401b0390931692909202919091179055925191929185917fbe6199662454a2f1cb1932fe7337a3517c4045351a92039ff9a832239c1538e091a3505050565b5f6108088263ffffffff1684610e64565b90505b92915050565b80515f906040811015610827575f915050610a7d565b84518114610838575f915050610a7d565b83516040516001915f9161085891859182908b908b908b906020016120ed565b60408051601f1981840301815291905280519091505f846001600160401b0381111561088657610886611c6c565b6040519080825280601f01601f1916602001820160405280156108b0576020820181803683370190505b5090508460208201836020860160055f19fa6108ca575f93505b836108dc575f95505050505050610a7d565b5f806031601288850103515f1a036108f357601191505b8161090d57602f601088850103515f1a0361090d57600f91505b81610916575f95505b6025828803039050600160f01b6001600160f01b0319602085015116031561093c575f95505b806022840101602284015b818110156109675760ff81515f1a101561095f575f97505b600101610947565b5080515f1a15610975575f96505b508561098a575f975050505050505050610a7d565b601182036109d257602381840101516effffffffffffffffffffffffffffff19166f3031300d06096086480165030402010560801b81811891146109cc575f96505b50610a0f565b6023818401015170ffffffffffffffffffffffffffffffffff19166e302f300b060960864801650304020160881b8181189114610a0d575f96505b505b85610a23575f975050505050505050610a7d565b602160f51b6001600160f01b0319838360238701010151160315610a45575f95505b8281018201602501518c8118908d14610a5c575f96505b5085610a71575f975050505050505050610a7d565b60019750505050505050505b949350505050565b5f610a908484610e64565b8015610aa15750610aa18483610e64565b90505b9392505050565b5f546001600160a01b03163314610ad75760405163e5c221f160e01b815233600482015260240161071f565b5f8281526002602090815260408083206001600160a01b038516845290915281205460ff1615159003610b08575050565b6040805180820182525f8082526020808301828152868352600282528483206001600160a01b038716808552925284832084518154925168ffffffffffffffffff1990931690151568ffffffffffffffff001916176101006001600160401b0390931692909202919091179055925191929185917f4650f4112b7820b3280d1b34bc78495e39d66cdde80d57eb2b97e040523b50c791a3505050565b610bac611282565b610bb582611326565b610bbf828261132e565b5050565b5f610bcc6113ef565b505f8051602061225783398151915290565b5f546001600160a01b03163314610c0a5760405163e5c221f160e01b815233600482015260240161071f565b5f8181526001602052604090205460ff16610c3b576040516316f88f9560e21b81526004810182905260240161071f565b5f81815260016020526040808220805460ff191690555182917fd76dbee353f8817df12bf008d3fec1c2f26c9afc1e832f74757756b060b25f8291a250565b610c8d8b8b8b8b8b8b8b8b8b8b8b611438565b610cd657604051634ef89b4d60e01b8152600481018b90526001600160a01b038c16602482015260606044820152600360648201526253494760e81b608482015260a40161071f565b610ce68b8b8a8a8a8a88886114fe565b5050505050505050505050565b5f546001600160a01b03163314610d1f5760405163e5c221f160e01b815233600482015260240161071f565b5f80546001600160a01b0319166001600160a01b0383169081178255604051909133917fbf265e8326285a2747e33e54d5945f7111f2b5edb826eb8c08d4677779b3ff979190a350565b610d7161185b565b610d7a5f6118b6565b565b610d8461185b565b7ff0c57e16840df040f15088dc2f81fe391c3923bec73e23a9662efc9c229c6a00805460039190600160401b900460ff1680610dcd575080546001600160401b03808416911610155b15610deb5760405163f92ee8a960e01b815260040160405180910390fd5b805468ffffffffffffffffff19166001600160401b03831617600160401b178155610e14611926565b805468ff0000000000000000191681556040516001600160401b03831681527fc7f505b2f371ae2175ee4913f4499e1f2633a7b5936321eed1cdaeb6115181d29060200160405180910390a15050565b5f8281526002602090815260408083206001600160a01b0385168452825280832081518083019092525460ff81161580158084526101009092046001600160401b031693830193909352909190610ec757504281602001516001600160401b0316115b15610ed657600191505061080b565b505f9392505050565b5f546001600160a01b03163314610f0b5760405163e5c221f160e01b815233600482015260240161071f565b610f15814761198f565b50565b5f546001600160a01b03163314610f445760405163e5c221f160e01b815233600482015260240161071f565b828211610f7a57604051633b980f2d60e11b815260206004820152600360248201526204956560ec1b604482015260640161071f565b42821015610f9b57604051633b980f2d60e11b815260040161071f90612128565b805160208201205f905f8181526001602052604090205490915060ff1615610fec57604051633b980f2d60e11b815260206004820152600360248201526225a0a960e91b604482015260640161071f565b6040805160608101825260018082526001600160401b0380881660208085019182528883168587019081525f888152949091529285902093518454915193518316600160481b0270ffffffffffffffff00000000000000000019949093166101000268ffffffffffffffff00199115159190911668ffffffffffffffffff19909216919091171791909116179055518390859083907fb03f7c2697f23a603f90828b122a7965ae777fe68a85074a26d0805d8a1b7cd1906110ae908790612005565b60405180910390a450505050565b6110c461185b565b6001600160a01b0381166110ed57604051631e4fbdf760e01b81525f600482015260240161071f565b610f15816118b6565b606062ffffff87111561114857604051634ef89b4d60e01b8152600481018890526001600160a01b038916602482015260606044820152600360648201526214125160ea1b608482015260a40161071f565b63ffffffff86111561119957604051634ef89b4d60e01b8152600481018890526001600160a01b038916602482015260606044820152600360648201526221a12360e91b608482015260a40161071f565b63ffffffff8511156111ea57604051634ef89b4d60e01b8152600481018890526001600160a01b038916602482015260606044820152600360648201526242565560e81b608482015260a40161071f565b6fffffffffffffffffffffffffffffffff84111561124757604051634ef89b4d60e01b8152600481018890526001600160a01b038916602482015260606044820152600360648201526210d4d560ea1b608482015260a40161071f565b875f88888888888860405160200161126698979695949392919061214a565b6040516020818303038152906040529050979650505050505050565b306001600160a01b037f000000000000000000000000000000000000000000000000000000000000000016148061130857507f00000000000000000000000000000000000000000000000000000000000000006001600160a01b03166112fc5f80516020612257833981519152546001600160a01b031690565b6001600160a01b031614155b15610d7a5760405163703e46dd60e11b815260040160405180910390fd5b610f1561185b565b816001600160a01b03166352d1902d6040518163ffffffff1660e01b8152600401602060405180830381865afa925050508015611388575060408051601f3d908101601f19168201909252611385918101906121cf565b60015b6113b057604051634c9c8ce360e01b81526001600160a01b038316600482015260240161071f565b5f8051602061225783398151915281146113e057604051632a87526960e21b81526004810182905260240161071f565b6113ea83836119ff565b505050565b306001600160a01b037f00000000000000000000000000000000000000000000000000000000000000001614610d7a5760405163703e46dd60e11b815260040160405180910390fd5b5f806114498d8d8d8d8d89896110f6565b90505f604051806040016040528060018152602001600360f81b81525090506114ec8288888080601f0160208091040260200160405190810160405280939291908181526020018383808284375f81840152601f19601f82011690508083019250505050505050838c8c8080601f0160208091040260200160405190810160405280939291908181526020018383808284375f92019190915250611a5492505050565b9e9d5050505050505050505050505050565b84341461154a57604051634ef89b4d60e01b8152600481018890526001600160a01b038916602482015260606044820152600360648201526215905360ea1b608482015260a40161071f565b5f4290505f61158d86868080601f0160208091040260200160405190810160405280939291908181526020018383808284375f920191909152506101ee92505050565b5f8181526001602090815260408083208151606081018352905460ff81161580158084526001600160401b036101008404811696850196909652600160481b90920490941692820192909252939450906115f4575081602001516001600160401b03168410155b801561160d575081604001516001600160401b03168411155b90508061165957604051634ef89b4d60e01b8152600481018c90526001600160a01b038d16602482015260606044820152600360648201526242444b60e81b608482015260a40161071f565b50505080871015611681578789604051634ef89b4d60e01b815260040161071f9291906121e6565b5f8881526002602090815260408083206001600160a01b038d16845282529182902082518084019093525460ff811615801584526101009091046001600160401b03169183019190915261171457604051634ef89b4d60e01b8152600481018a90526001600160a01b038b166024820152606060448201526003606482015262424c4b60e81b608482015260a40161071f565b80602001516001600160401b0316881161176d57604051634ef89b4d60e01b8152600481018a90526001600160a01b038b16602482015260606044820152600360648201526214d51360ea1b608482015260a40161071f565b8781602001906001600160401b031690816001600160401b0316815250508060025f8b81526020019081526020015f205f8c6001600160a01b03166001600160a01b031681526020019081526020015f205f820151815f015f6101000a81548160ff0219169083151502179055506020820151815f0160016101000a8154816001600160401b0302191690836001600160401b03160217905550905050878a6001600160a01b03168a7f83f42f3150cb5cd2d71c8407e059b5dcda37f6ceb70eaedbe2efb4fe99a256e2878760405161184792919061221d565b60405180910390a450505050505050505050565b3361188d7f9016d09d72d40fdae2fd8ceac6b6234c7706214fd39c1cd1e609a0528c199300546001600160a01b031690565b6001600160a01b031614610d7a5760405163118cdaa760e01b815233600482015260240161071f565b7f9016d09d72d40fdae2fd8ceac6b6234c7706214fd39c1cd1e609a0528c19930080546001600160a01b031981166001600160a01b03848116918217845560405192169182907f8be0079c531659141344cd1fd0a4f28419497f9722a3daafe3b4186f6b6457e0905f90a3505050565b5f546001600160a01b03161561194f5760405163027d126360e01b815260040160405180910390fd5b5f80546001600160a01b0319163390811782556040519091907fbf265e8326285a2747e33e54d5945f7111f2b5edb826eb8c08d4677779b3ff97908290a3565b5f826001600160a01b0316826040515f6040518083038185875af1925050503d805f81146119d8576040519150601f19603f3d011682016040523d82523d5f602084013e6119dd565b606091505b50509050806113ea57604051635a1c887760e01b815260040160405180910390fd5b611a0882611ab7565b6040516001600160a01b038316907fbc7cd75a20ee27fd9adebab32041f755214dbc6bffa90cc0225b39da2e5c2d3b905f90a2805115611a4c576113ea8282611b1a565b610bbf611b83565b5f611aae600286604051611a68919061224b565b602060405180830381855afa158015611a83573d5f803e3d5ffd5b5050506040513d601f19601f82011682018060405250810190611aa691906121cf565b858585610811565b95945050505050565b806001600160a01b03163b5f03611aec57604051634c9c8ce360e01b81526001600160a01b038216600482015260240161071f565b5f8051602061225783398151915280546001600160a01b0319166001600160a01b0392909216919091179055565b60605f80846001600160a01b031684604051611b36919061224b565b5f60405180830381855af49150503d805f8114611b6e576040519150601f19603f3d011682016040523d82523d5f602084013e611b73565b606091505b5091509150611aae858383611ba2565b3415610d7a5760405163b398979f60e01b815260040160405180910390fd5b606082611bb757611bb282611bfe565b610aa4565b8151158015611bce57506001600160a01b0384163b155b15611bf757604051639996b31560e01b81526001600160a01b038516600482015260240161071f565b5080610aa4565b805115611c0e5780518082602001fd5b604051630a12f52160e11b815260040160405180910390fd5b80356001600160a01b0381168114611c3d575f80fd5b919050565b5f8060408385031215611c53575f80fd5b82359150611c6360208401611c27565b90509250929050565b634e487b7160e01b5f52604160045260245ffd5b5f82601f830112611c8f575f80fd5b81356001600160401b03811115611ca857611ca8611c6c565b604051601f8201601f19908116603f011681016001600160401b0381118282101715611cd657611cd6611c6c565b604052818152838201602001851015611ced575f80fd5b816020850160208301375f918101602001919091529392505050565b5f60208284031215611d19575f80fd5b81356001600160401b03811115611d2e575f80fd5b610a7d84828501611c80565b5f8060408385031215611d4b575f80fd5b611d5483611c27565b9150602083013563ffffffff81168114611d6c575f80fd5b809150509250929050565b5f805f8060808587031215611d8a575f80fd5b8435935060208501356001600160401b03811115611da6575f80fd5b611db287828801611c80565b93505060408501356001600160401b03811115611dcd575f80fd5b611dd987828801611c80565b92505060608501356001600160401b03811115611df4575f80fd5b611e0087828801611c80565b91505092959194509250565b5f805f60608486031215611e1e575f80fd5b83359250611e2e60208501611c27565b9150611e3c60408501611c27565b90509250925092565b5f8060408385031215611e56575f80fd5b611e5f83611c27565b915060208301356001600160401b03811115611e79575f80fd5b611e8585828601611c80565b9150509250929050565b5f60208284031215611e9f575f80fd5b5035919050565b5f8083601f840112611eb6575f80fd5b5081356001600160401b03811115611ecc575f80fd5b602083019150836020828501011115611ee3575f80fd5b9250929050565b5f805f805f805f805f805f6101008c8e031215611f05575f80fd5b611f0e8c611c27565b9a5060208c0135995060408c0135985060608c0135975060808c0135965060a08c01356001600160401b03811115611f44575f80fd5b611f508e828f01611ea6565b90975095505060c08c01356001600160401b03811115611f6e575f80fd5b611f7a8e828f01611ea6565b90955093505060e08c01356001600160401b03811115611f98575f80fd5b611fa48e828f01611ea6565b915080935050809150509295989b509295989b9093969950565b5f60208284031215611fce575f80fd5b61080882611c27565b5f81518084528060208401602086015e5f602082860101526020601f19601f83011685010191505092915050565b602081525f6108086020830184611fd7565b5f805f60608486031215612029575f80fd5b833592506020840135915060408401356001600160401b0381111561204c575f80fd5b61205886828701611c80565b9150509250925092565b5f805f805f805f60c0888a031215612078575f80fd5b61208188611c27565b96506020880135955060408801359450606088013593506080880135925060a08801356001600160401b038111156120b7575f80fd5b6120c38a828b01611ea6565b989b979a50959850939692959293505050565b5f81518060208401855e5f93019283525090919050565b8681528560208201528460408201525f61211c61211661211060608501886120d6565b866120d6565b846120d6565b98975050505050505050565b602081525f61080b60208301600381526204558560ec1b602082015260400190565b6bffffffffffffffffffffffff1960608a811b821683526001600160f81b031960f88b901b1660148401526001600160e81b031960e88a901b1660158401526001600160e01b031960e089811b8216601886015288901b16601c84015285901b1660208201525f603482018184868337505f9301928352509098975050505050505050565b5f602082840312156121df575f80fd5b5051919050565b8281526001600160a01b03821660208201526060604082018190526003908201526204558560ec1b60808201525f60a08201610aa1565b60208152816020820152818360408301375f818301604090810191909152601f909201601f19160101919050565b5f61080882846120d656fe360894a13ba1a3210667c828492db98dca3e2076cc3735a920a3ca505d382bbca264697066735822122005adb01992fce938c6e9d0e9121b49130b631f8f0f6612dcdc88ce514df4125b64736f6c634300081a0033","linkReferences":{}},"methodIdentifiers":{"UPGRADE_INTERFACE_VERSION()":"ad3cb1cc","admin()":"f851a440","blacklistEntity(uint256,address)":"2303bdff","checkCredential(address,uint32)":"37deb791","checkCredential(uint256,address)":"8776b120","checkCredential(uint256,address,address)":"466d137b","collectFees(address)":"a480ca79","createCredential(address,uint256,uint256,uint256,uint256,bytes,bytes,bytes)":"642e3d74","entityBlacklisted(uint256,address)":"a3111824","entityData(uint256,address)":"a5e8823c","entityExp(uint256,address)":"4e081d26","getKeyHash(bytes)":"2520d38b","initialize()":"8129fc1c","keyDetails(bytes32)":"d43548b0","keyExists(bytes32)":"d6b3fa8a","keyValidFrom(bytes32)":"f260fd93","keyValidTo(bytes32)":"53fe5200","owner()":"8da5cb5b","packAuthMessage(address,uint256,uint256,uint256,uint256,bytes)":"fff4cbd0","pkcs1Sha256(bytes32,bytes,bytes,bytes)":"3a8d43b3","proxiableUUID()":"52d1902d","registerKey(uint256,uint256,bytes)":"c06d332e","renounceOwnership()":"715018a6","revokeKey(bytes32)":"572f2210","setAdmin(address)":"704b6c02","transferOwnership(address)":"f2fde38b","unblacklistEntity(uint256,address)":"4db64cfd","upgradeToAndCall(address,bytes)":"4f1ef286"},"storageLayout":{"storage":[{"astId":53710,"contract":"src/CoreV2_3.sol:CoreV2_3","label":"_admin","offset":0,"slot":"0","type":"t_address"},{"astId":53716,"contract":"src/CoreV2_3.sol:CoreV2_3","label":"_keys","offset":0,"slot":"1","type":"t_mapping(t_bytes32,t_struct(KeyEntry)54455_storage)"},{"astId":53724,"contract":"src/CoreV2_3.sol:CoreV2_3","label":"_entityData","offset":0,"slot":"2","type":"t_mapping(t_uint256,t_mapping(t_address,t_struct(EntityData)54447_storage))"}],"types":{"t_address":{"encoding":"inplace","label":"address","numberOfBytes":"20"},"t_bool":{"encoding":"inplace","label":"bool","numberOfBytes":"1"},"t_bytes32":{"encoding":"inplace","label":"bytes32","numberOfBytes":"32"},"t_mapping(t_address,t_struct(EntityData)54447_storage)":{"encoding":"mapping","key":"t_address","label":"mapping(address => struct ICoreV2Base.EntityData)","numberOfBytes":"32","value":"t_struct(EntityData)54447_storage"},"t_mapping(t_bytes32,t_struct(KeyEntry)54455_storage)":{"encoding":"mapping","key":"t_bytes32","label":"mapping(bytes32 => struct ICoreV2Base.KeyEntry)","numberOfBytes":"32","value":"t_struct(KeyEntry)54455_storage"},"t_mapping(t_uint256,t_mapping(t_address,t_struct(EntityData)54447_storage))":{"encoding":"mapping","key":"t_uint256","label":"mapping(uint256 => mapping(address => struct ICoreV2Base.EntityData))","numberOfBytes":"32","value":"t_mapping(t_address,t_struct(EntityData)54447_storage)"},"t_struct(EntityData)54447_storage":{"encoding":"inplace","label":"struct ICoreV2Base.EntityData","numberOfBytes":"32","members":[{"astId":54444,"contract":"src/CoreV2_3.sol:CoreV2_3","label":"blacklisted","offset":0,"slot":"0","type":"t_bool"},{"astId":54446,"contract":"src/CoreV2_3.sol:CoreV2_3","label":"exp","offset":1,"slot":"0","type":"t_uint64"}]},"t_struct(KeyEntry)54455_storage":{"encoding":"inplace","label":"struct ICoreV2Base.KeyEntry","numberOfBytes":"32","members":[{"astId":54450,"contract":"src/CoreV2_3.sol:CoreV2_3","label":"isValid","offset":0,"slot":"0","type":"t_bool"},{"astId":54452,"contract":"src/CoreV2_3.sol:CoreV2_3","label":"validFrom","offset":1,"slot":"0","type":"t_uint64"},{"astId":54454,"contract":"src/CoreV2_3.sol:CoreV2_3","label":"validTo","offset":9,"slot":"0","type":"t_uint64"}]},"t_uint256":{"encoding":"inplace","label":"uint256","numberOfBytes":"32"},"t_uint64":{"encoding":"inplace","label":"uint64","numberOfBytes":"8"}}},"id":55}