{"abi":[{"type":"constructor","inputs":[],"stateMutability":"nonpayable"},{"type":"function","name":"admin","inputs":[],"outputs":[{"name":"","type":"address","internalType":"address"}],"stateMutability":"view"},{"type":"function","name":"blacklistEntity","inputs":[{"name":"policyId","type":"uint256","internalType":"uint256"},{"name":"entity_","type":"address","internalType":"address"}],"outputs":[],"stateMutability":"nonpayable"},{"type":"function","name":"checkCredential","inputs":[{"name":"entity_","type":"address","internalType":"address"},{"name":"policyId","type":"uint32","internalType":"uint32"}],"outputs":[{"name":"","type":"bool","internalType":"bool"}],"stateMutability":"view"},{"type":"function","name":"checkCredential","inputs":[{"name":"policyId","type":"uint256","internalType":"uint256"},{"name":"entityA_","type":"address","internalType":"address"},{"name":"entityB_","type":"address","internalType":"address"}],"outputs":[{"name":"","type":"bool","internalType":"bool"}],"stateMutability":"view"},{"type":"function","name":"checkCredential","inputs":[{"name":"policyId","type":"uint256","internalType":"uint256"},{"name":"entity_","type":"address","internalType":"address"}],"outputs":[{"name":"","type":"bool","internalType":"bool"}],"stateMutability":"view"},{"type":"function","name":"collectFees","inputs":[{"name":"to","type":"address","internalType":"address"}],"outputs":[],"stateMutability":"nonpayable"},{"type":"function","name":"createCredential","inputs":[{"name":"tradingAddress","type":"address","internalType":"address"},{"name":"policyId","type":"uint256","internalType":"uint256"},{"name":"validFrom","type":"uint256","internalType":"uint256"},{"name":"validUntil","type":"uint256","internalType":"uint256"},{"name":"cost","type":"uint256","internalType":"uint256"},{"name":"key","type":"bytes","internalType":"bytes"},{"name":"signature","type":"bytes","internalType":"bytes"},{"name":"backdoor","type":"bytes","internalType":"bytes"}],"outputs":[],"stateMutability":"payable"},{"type":"function","name":"entityBlacklisted","inputs":[{"name":"policyId","type":"uint256","internalType":"uint256"},{"name":"entity_","type":"address","internalType":"address"}],"outputs":[{"name":"","type":"bool","internalType":"bool"}],"stateMutability":"view"},{"type":"function","name":"entityData","inputs":[{"name":"policyId","type":"uint256","internalType":"uint256"},{"name":"entity_","type":"address","internalType":"address"}],"outputs":[{"name":"","type":"tuple","internalType":"struct ICoreV2Base.EntityData","components":[{"name":"blacklisted","type":"bool","internalType":"bool"},{"name":"exp","type":"uint64","internalType":"uint64"}]}],"stateMutability":"view"},{"type":"function","name":"entityExp","inputs":[{"name":"policyId","type":"uint256","internalType":"uint256"},{"name":"entity_","type":"address","internalType":"address"}],"outputs":[{"name":"","type":"uint256","internalType":"uint256"}],"stateMutability":"view"},{"type":"function","name":"getKeyHash","inputs":[{"name":"key","type":"bytes","internalType":"bytes"}],"outputs":[{"name":"","type":"bytes32","internalType":"bytes32"}],"stateMutability":"pure"},{"type":"function","name":"keyDetails","inputs":[{"name":"keyHash","type":"bytes32","internalType":"bytes32"}],"outputs":[{"name":"","type":"tuple","internalType":"struct ICoreV2Base.KeyEntry","components":[{"name":"isValid","type":"bool","internalType":"bool"},{"name":"validFrom","type":"uint64","internalType":"uint64"},{"name":"validTo","type":"uint64","internalType":"uint64"}]}],"stateMutability":"view"},{"type":"function","name":"keyExists","inputs":[{"name":"keyHash","type":"bytes32","internalType":"bytes32"}],"outputs":[{"name":"","type":"bool","internalType":"bool"}],"stateMutability":"view"},{"type":"function","name":"keyValidFrom","inputs":[{"name":"keyHash","type":"bytes32","internalType":"bytes32"}],"outputs":[{"name":"","type":"uint256","internalType":"uint256"}],"stateMutability":"view"},{"type":"function","name":"keyValidTo","inputs":[{"name":"keyHash","type":"bytes32","internalType":"bytes32"}],"outputs":[{"name":"","type":"uint256","internalType":"uint256"}],"stateMutability":"view"},{"type":"function","name":"packAuthMessage","inputs":[{"name":"tradingAddress","type":"address","internalType":"address"},{"name":"policyId","type":"uint256","internalType":"uint256"},{"name":"validFrom","type":"uint256","internalType":"uint256"},{"name":"validUntil","type":"uint256","internalType":"uint256"},{"name":"cost","type":"uint256","internalType":"uint256"},{"name":"backdoor","type":"bytes","internalType":"bytes"}],"outputs":[{"name":"","type":"bytes","internalType":"bytes"}],"stateMutability":"pure"},{"type":"function","name":"pkcs1Sha256","inputs":[{"name":"_sha256","type":"bytes32","internalType":"bytes32"},{"name":"_s","type":"bytes","internalType":"bytes"},{"name":"_e","type":"bytes","internalType":"bytes"},{"name":"_m","type":"bytes","internalType":"bytes"}],"outputs":[{"name":"","type":"bool","internalType":"bool"}],"stateMutability":"view"},{"type":"function","name":"registerKey","inputs":[{"name":"validFrom","type":"uint256","internalType":"uint256"},{"name":"validTo","type":"uint256","internalType":"uint256"},{"name":"key","type":"bytes","internalType":"bytes"}],"outputs":[],"stateMutability":"nonpayable"},{"type":"function","name":"revokeKey","inputs":[{"name":"keyHash","type":"bytes32","internalType":"bytes32"}],"outputs":[],"stateMutability":"nonpayable"},{"type":"function","name":"setAdmin","inputs":[{"name":"newAdmin","type":"address","internalType":"address"}],"outputs":[],"stateMutability":"nonpayable"},{"type":"function","name":"unblacklistEntity","inputs":[{"name":"policyId","type":"uint256","internalType":"uint256"},{"name":"entity_","type":"address","internalType":"address"}],"outputs":[],"stateMutability":"nonpayable"},{"type":"event","name":"AdminSet","inputs":[{"name":"oldAdmin","type":"address","indexed":true,"internalType":"address"},{"name":"newAdmin","type":"address","indexed":true,"internalType":"address"}],"anonymous":false},{"type":"event","name":"CredentialCreated","inputs":[{"name":"policyId","type":"uint256","indexed":true,"internalType":"uint256"},{"name":"entity","type":"address","indexed":true,"internalType":"address"},{"name":"exp","type":"uint256","indexed":true,"internalType":"uint256"},{"name":"backdoor","type":"bytes","indexed":false,"internalType":"bytes"}],"anonymous":false},{"type":"event","name":"CredentialRevoked","inputs":[{"name":"policyId","type":"uint256","indexed":true,"internalType":"uint256"},{"name":"entity","type":"address","indexed":true,"internalType":"address"}],"anonymous":false},{"type":"event","name":"EntityBlacklisted","inputs":[{"name":"policyId","type":"uint256","indexed":true,"internalType":"uint256"},{"name":"entity","type":"address","indexed":true,"internalType":"address"}],"anonymous":false},{"type":"event","name":"EntityUnblacklisted","inputs":[{"name":"policyId","type":"uint256","indexed":true,"internalType":"uint256"},{"name":"entity","type":"address","indexed":true,"internalType":"address"}],"anonymous":false},{"type":"event","name":"KeyRegistered","inputs":[{"name":"keyHash","type":"bytes32","indexed":true,"internalType":"bytes32"},{"name":"validFrom","type":"uint256","indexed":true,"internalType":"uint256"},{"name":"validTo","type":"uint256","indexed":true,"internalType":"uint256"},{"name":"publicKey","type":"bytes","indexed":false,"internalType":"bytes"}],"anonymous":false},{"type":"event","name":"KeyRevoked","inputs":[{"name":"keyHash","type":"bytes32","indexed":true,"internalType":"bytes32"}],"anonymous":false},{"type":"error","name":"ErrCallerNotAdmin","inputs":[{"name":"caller","type":"address","internalType":"address"}]},{"type":"error","name":"ErrFailedSendOfValue","inputs":[]},{"type":"error","name":"ErrInvalidCredential","inputs":[{"name":"policyId","type":"uint256","internalType":"uint256"},{"name":"entity","type":"address","internalType":"address"},{"name":"reason","type":"string","internalType":"string"}]},{"type":"error","name":"ErrInvalidKeyRegistration","inputs":[{"name":"reason","type":"string","internalType":"string"}]},{"type":"error","name":"ErrKeyNotFound","inputs":[{"name":"keyHash","type":"bytes32","internalType":"bytes32"}]}],"bytecode":{"object":"0x6080604052348015600f57600080fd5b50600080546001600160a01b0319163390811782556040519091907fbf265e8326285a2747e33e54d5945f7111f2b5edb826eb8c08d4677779b3ff97908290a3611b798061005e6000396000f3fe60806040526004361061012a5760003560e01c8063704b6c02116100ab578063c06d332e1161006f578063c06d332e1461041d578063d43548b01461043d578063d6b3fa8a146104eb578063f260fd931461051b578063f851a44014610556578063fff4cbd01461057e57600080fd5b8063704b6c02146102db5780638776b120146102fb578063a31118241461031b578063a480ca7914610361578063a5e8823c1461038157600080fd5b80634db64cfd116100f25780634db64cfd146101fa5780634e081d261461021a57806353fe52001461026b578063572f2210146102a8578063642e3d74146102c857600080fd5b80632303bdff1461012f5780632520d38b1461015157806337deb7911461018a5780633a8d43b3146101ba578063466d137b146101da575b600080fd5b34801561013b57600080fd5b5061014f61014a36600461150b565b6105ab565b005b34801561015d57600080fd5b5061017761016c3660046115da565b805160209091012090565b6040519081526020015b60405180910390f35b34801561019657600080fd5b506101aa6101a536600461160e565b6106ae565b6040519015158152602001610181565b3480156101c657600080fd5b506101aa6101d536600461164e565b6106c9565b3480156101e657600080fd5b506101aa6101f53660046116e9565b61092d565b34801561020657600080fd5b5061014f61021536600461150b565b61094a565b34801561022657600080fd5b5061017761023536600461150b565b60009182526002602090815260408084206001600160a01b0393909316845291905290205461010090046001600160401b031690565b34801561027757600080fd5b50610177610286366004611725565b600090815260016020526040902054600160481b90046001600160401b031690565b3480156102b457600080fd5b5061014f6102c3366004611725565b610a46565b61014f6102d6366004611786565b610ae5565b3480156102e757600080fd5b5061014f6102f6366004611864565b610b5e565b34801561030757600080fd5b506101aa61031636600461150b565b610bd6565b34801561032757600080fd5b506101aa61033636600461150b565b60009182526002602090815260408084206001600160a01b0393909316845291905290205460ff1690565b34801561036d57600080fd5b5061014f61037c366004611864565b610c53565b34801561038d57600080fd5b506103f761039c36600461150b565b60408051808201825260008082526020918201819052938452600281528184206001600160a01b039390931684529182529182902082518084019093525460ff81161515835261010090046001600160401b03169082015290565b604080518251151581526020928301516001600160401b03169281019290925201610181565b34801561042957600080fd5b5061014f61043836600461187f565b610c8d565b34801561044957600080fd5b506104b6610458366004611725565b6040805160608082018352600080835260208084018290529284018190529384526001825292829020825193840183525460ff8116151584526001600160401b036101008204811692850192909252600160481b9004169082015290565b604080518251151581526020808401516001600160401b03908116918301919091529282015190921690820152606001610181565b3480156104f757600080fd5b506101aa610506366004611725565b60009081526001602052604090205460ff1690565b34801561052757600080fd5b50610177610536366004611725565b60009081526001602052604090205461010090046001600160401b031690565b34801561056257600080fd5b506000546040516001600160a01b039091168152602001610181565b34801561058a57600080fd5b5061059e6105993660046118ce565b610e35565b604051610181919061196c565b6000546001600160a01b031633146105dd5760405163e5c221f160e01b81523360048201526024015b60405180910390fd5b60008281526002602090815260408083206001600160a01b038516845290915290205460ff161515600103610610575050565b6040805180820182526001815260006020808301828152868352600282528483206001600160a01b038716808552925284832084518154925168ffffffffffffffffff1990931690151568ffffffffffffffff001916176101006001600160401b0390931692909202919091179055925191929185917fbe6199662454a2f1cb1932fe7337a3517c4045351a92039ff9a832239c1538e091a3505050565b60006106c08263ffffffff1684610bd6565b90505b92915050565b805160009060408110156106e1576000915050610925565b845181146106f3576000915050610925565b83516040516000916107129184919082908a908a908a9060200161199f565b60408051601f1981840301815291905280519091506000836001600160401b0381111561074157610741611537565b6040519080825280601f01601f19166020018201604052801561076b576020820181803683370190505b509050836020820183602086016005600019fa61078c576000805260206000f35b60008060316012878501035160001a036107a557601191505b816107c057602f6010878501035160001a036107c057600f91505b816107cf576000805260206000f35b6025828703039050600160f01b6001600160f01b031960208501511603156107fb576000805260206000f35b806022840101602284015b8181101561082d5760ff815160001a1015610825576000805260206000f35b600101610806565b50805160001a15610842576000805260206000f35b506011820361089157602381840101516effffffffffffffffffffffffffffff19166f3031300d06096086480165030402010560801b818118911461088b576000805260206000f35b506108d4565b6023818401015170ffffffffffffffffffffffffffffffffff19166e302f300b060960864801650304020160881b81811891146108d2576000805260206000f35b505b602160f51b6001600160f01b03198383602387010101511603156108fc576000805260206000f35b8281018201602501518b8118908c14610919576000805260206000f35b50600196505050505050505b949350505050565b60006109398484610bd6565b801561092557506109258483610bd6565b6000546001600160a01b031633146109775760405163e5c221f160e01b81523360048201526024016105d4565b60008281526002602090815260408083206001600160a01b038516845290915281205460ff16151590036109a9575050565b60408051808201825260008082526020808301828152868352600282528483206001600160a01b038716808552925284832084518154925168ffffffffffffffffff1990931690151568ffffffffffffffff001916176101006001600160401b0390931692909202919091179055925191929185917f4650f4112b7820b3280d1b34bc78495e39d66cdde80d57eb2b97e040523b50c791a3505050565b6000546001600160a01b03163314610a735760405163e5c221f160e01b81523360048201526024016105d4565b60008181526001602052604090205460ff16610aa5576040516316f88f9560e21b8152600481018290526024016105d4565b600081815260016020526040808220805460ff191690555182917fd76dbee353f8817df12bf008d3fec1c2f26c9afc1e832f74757756b060b25f8291a250565b610af88b8b8b8b8b8b8b8b8b8b8b610fc2565b610b4157604051634ef89b4d60e01b8152600481018b90526001600160a01b038c16602482015260606044820152600360648201526253494760e81b608482015260a4016105d4565b610b518b8b8a8a8a8a88886110a6565b5050505050505050505050565b6000546001600160a01b03163314610b8b5760405163e5c221f160e01b81523360048201526024016105d4565b600080546001600160a01b0319166001600160a01b0383169081178255604051909133917fbf265e8326285a2747e33e54d5945f7111f2b5edb826eb8c08d4677779b3ff979190a350565b60008281526002602090815260408083206001600160a01b0385168452825280832081518083019092525460ff81161580158084526101009092046001600160401b031693830193909352909190610c3a57504281602001516001600160401b0316115b15610c495760019150506106c3565b5060009392505050565b6000546001600160a01b03163314610c805760405163e5c221f160e01b81523360048201526024016105d4565b610c8a8147611410565b50565b6000546001600160a01b03163314610cba5760405163e5c221f160e01b81523360048201526024016105d4565b828211610cf057604051633b980f2d60e11b815260206004820152600360248201526204956560ec1b60448201526064016105d4565b42821015610d1157604051633b980f2d60e11b81526004016105d4906119fd565b8051602082012060009060008181526001602052604090205490915060ff1615610d6457604051633b980f2d60e11b815260206004820152600360248201526225a0a960e91b60448201526064016105d4565b6040805160608101825260018082526001600160401b0380881660208085019182528883168587019081526000888152949091529285902093518454915193518316600160481b0270ffffffffffffffff00000000000000000019949093166101000268ffffffffffffffff00199115159190911668ffffffffffffffffff19909216919091171791909116179055518390859083907fb03f7c2697f23a603f90828b122a7965ae777fe68a85074a26d0805d8a1b7cd190610e2790879061196c565b60405180910390a450505050565b606062ffffff871115610e8757604051634ef89b4d60e01b8152600481018890526001600160a01b038916602482015260606044820152600360648201526214125160ea1b608482015260a4016105d4565b63ffffffff861115610ed857604051634ef89b4d60e01b8152600481018890526001600160a01b038916602482015260606044820152600360648201526221a12360e91b608482015260a4016105d4565b63ffffffff851115610f2957604051634ef89b4d60e01b8152600481018890526001600160a01b038916602482015260606044820152600360648201526242565560e81b608482015260a4016105d4565b6fffffffffffffffffffffffffffffffff841115610f8657604051634ef89b4d60e01b8152600481018890526001600160a01b038916602482015260606044820152600360648201526210d4d560ea1b608482015260a4016105d4565b876000888888888888604051602001610fa6989796959493929190611a20565b6040516020818303038152906040529050979650505050505050565b600080610fee8d8d62ffffff168d63ffffffff168d63ffffffff168d6001600160a01b03168989610e35565b90506000604051806040016040528060018152602001600360f81b81525090506110948288888080601f016020809104026020016040519081016040528093929190818152602001838380828437600081840152601f19601f82011690508083019250505050505050838c8c8080601f01602080910402602001604051908101604052809392919081815260200183838082843760009201919091525061148992505050565b9e9d5050505050505050505050505050565b8434146110f257604051634ef89b4d60e01b8152600481018890526001600160a01b038916602482015260606044820152600360648201526215905360ea1b608482015260a4016105d4565b6000429050600061113886868080601f01602080910402602001604051908101604052809392919081815260200183838082843760009201919091525061016c92505050565b60008181526001602090815260408083208151606081018352905460ff81161580158084526001600160401b036101008404811696850196909652600160481b90920490941692820192909252939450906111a0575081602001516001600160401b03168410155b80156111b9575081604001516001600160401b03168411155b90508061120557604051634ef89b4d60e01b8152600481018c90526001600160a01b038d16602482015260606044820152600360648201526242444b60e81b608482015260a4016105d4565b5050508087101561122d578789604051634ef89b4d60e01b81526004016105d4929190611aa7565b60008881526002602090815260408083206001600160a01b038d16845282529182902082518084019093525460ff811615801584526101009091046001600160401b0316918301919091526112c157604051634ef89b4d60e01b8152600481018a90526001600160a01b038b166024820152606060448201526003606482015262424c4b60e81b608482015260a4016105d4565b80602001516001600160401b0316881161131a57604051634ef89b4d60e01b8152600481018a90526001600160a01b038b16602482015260606044820152600360648201526214d51360ea1b608482015260a4016105d4565b8781602001906001600160401b031690816001600160401b03168152505080600260008b815260200190815260200160002060008c6001600160a01b03166001600160a01b0316815260200190815260200160002060008201518160000160006101000a81548160ff02191690831515021790555060208201518160000160016101000a8154816001600160401b0302191690836001600160401b03160217905550905050878a6001600160a01b03168a7f83f42f3150cb5cd2d71c8407e059b5dcda37f6ceb70eaedbe2efb4fe99a256e287876040516113fc929190611adf565b60405180910390a450505050505050505050565b6000826001600160a01b03168260405160006040518083038185875af1925050503d806000811461145d576040519150601f19603f3d011682016040523d82523d6000602084013e611462565b606091505b505090508061148457604051635a1c887760e01b815260040160405180910390fd5b505050565b60006114e660028660405161149e9190611b0e565b602060405180830381855afa1580156114bb573d6000803e3d6000fd5b5050506040513d601f19601f820116820180604052508101906114de9190611b2a565b8585856106c9565b95945050505050565b80356001600160a01b038116811461150657600080fd5b919050565b6000806040838503121561151e57600080fd5b8235915061152e602084016114ef565b90509250929050565b634e487b7160e01b600052604160045260246000fd5b600082601f83011261155e57600080fd5b81356001600160401b0381111561157757611577611537565b604051601f8201601f19908116603f011681016001600160401b03811182821017156115a5576115a5611537565b6040528181528382016020018510156115bd57600080fd5b816020850160208301376000918101602001919091529392505050565b6000602082840312156115ec57600080fd5b81356001600160401b0381111561160257600080fd5b6109258482850161154d565b6000806040838503121561162157600080fd5b61162a836114ef565b9150602083013563ffffffff8116811461164357600080fd5b809150509250929050565b6000806000806080858703121561166457600080fd5b8435935060208501356001600160401b0381111561168157600080fd5b61168d8782880161154d565b93505060408501356001600160401b038111156116a957600080fd5b6116b58782880161154d565b92505060608501356001600160401b038111156116d157600080fd5b6116dd8782880161154d565b91505092959194509250565b6000806000606084860312156116fe57600080fd5b8335925061170e602085016114ef565b915061171c604085016114ef565b90509250925092565b60006020828403121561173757600080fd5b5035919050565b60008083601f84011261175057600080fd5b5081356001600160401b0381111561176757600080fd5b60208301915083602082850101111561177f57600080fd5b9250929050565b60008060008060008060008060008060006101008c8e0312156117a857600080fd5b6117b18c6114ef565b9a5060208c0135995060408c0135985060608c0135975060808c0135965060a08c01356001600160401b038111156117e857600080fd5b6117f48e828f0161173e565b90975095505060c08c01356001600160401b0381111561181357600080fd5b61181f8e828f0161173e565b90955093505060e08c01356001600160401b0381111561183e57600080fd5b61184a8e828f0161173e565b915080935050809150509295989b509295989b9093969950565b60006020828403121561187657600080fd5b6106c0826114ef565b60008060006060848603121561189457600080fd5b833592506020840135915060408401356001600160401b038111156118b857600080fd5b6118c48682870161154d565b9150509250925092565b600080600080600080600060c0888a0312156118e957600080fd5b6118f2886114ef565b96506020880135955060408801359450606088013593506080880135925060a08801356001600160401b0381111561192957600080fd5b6119358a828b0161173e565b989b979a50959850939692959293505050565b60005b8381101561196357818101518382015260200161194b565b50506000910152565b602081526000825180602084015261198b816040850160208701611948565b601f01601f19169190910160400192915050565b868152856020820152846040820152600084516119c3816060850160208901611948565b8451908301906119da816060840160208901611948565b84519101606001906119f0818360208801611948565b0198975050505050505050565b6020815260006106c360208301600381526204558560ec1b602082015260400190565b6bffffffffffffffffffffffff1960608a811b821683526001600160f81b031960f88b901b1660148401526001600160e81b031960e88a901b1660158401526001600160e01b031960e089811b8216601886015288901b16601c84015285901b16602082015260006034820181848683375060009301928352509098975050505050505050565b8281526001600160a01b03821660208201526060604082018190526003908201526204558560ec1b6080820152600060a08201610925565b60208152816020820152818360408301376000818301604090810191909152601f909201601f19160101919050565b60008251611b20818460208701611948565b9190910192915050565b600060208284031215611b3c57600080fd5b505191905056fea2646970667358221220123e7b453c4a195ca9a74c69dcd0d79b7acc77a88378193f00fb9cd665d7464764736f6c634300081a0033","linkReferences":{}},"methodIdentifiers":{"admin()":"f851a440","blacklistEntity(uint256,address)":"2303bdff","checkCredential(address,uint32)":"37deb791","checkCredential(uint256,address)":"8776b120","checkCredential(uint256,address,address)":"466d137b","collectFees(address)":"a480ca79","createCredential(address,uint256,uint256,uint256,uint256,bytes,bytes,bytes)":"642e3d74","entityBlacklisted(uint256,address)":"a3111824","entityData(uint256,address)":"a5e8823c","entityExp(uint256,address)":"4e081d26","getKeyHash(bytes)":"2520d38b","keyDetails(bytes32)":"d43548b0","keyExists(bytes32)":"d6b3fa8a","keyValidFrom(bytes32)":"f260fd93","keyValidTo(bytes32)":"53fe5200","packAuthMessage(address,uint256,uint256,uint256,uint256,bytes)":"fff4cbd0","pkcs1Sha256(bytes32,bytes,bytes,bytes)":"3a8d43b3","registerKey(uint256,uint256,bytes)":"c06d332e","revokeKey(bytes32)":"572f2210","setAdmin(address)":"704b6c02","unblacklistEntity(uint256,address)":"4db64cfd"},"id":20}