{"abi":[{"type":"constructor","inputs":[{"name":"version_","type":"uint64","internalType":"uint64"}],"stateMutability":"nonpayable"},{"type":"function","name":"UPGRADE_INTERFACE_VERSION","inputs":[],"outputs":[{"name":"","type":"string","internalType":"string"}],"stateMutability":"view"},{"type":"function","name":"VERSION","inputs":[],"outputs":[{"name":"","type":"uint64","internalType":"uint64"}],"stateMutability":"view"},{"type":"function","name":"initialize","inputs":[],"outputs":[],"stateMutability":"nonpayable"},{"type":"function","name":"owner","inputs":[],"outputs":[{"name":"","type":"address","internalType":"address"}],"stateMutability":"view"},{"type":"function","name":"proxiableUUID","inputs":[],"outputs":[{"name":"","type":"bytes32","internalType":"bytes32"}],"stateMutability":"view"},{"type":"function","name":"renounceOwnership","inputs":[],"outputs":[],"stateMutability":"nonpayable"},{"type":"function","name":"transferOwnership","inputs":[{"name":"newOwner","type":"address","internalType":"address"}],"outputs":[],"stateMutability":"nonpayable"},{"type":"function","name":"upgradeToAndCall","inputs":[{"name":"newImplementation","type":"address","internalType":"address"},{"name":"data","type":"bytes","internalType":"bytes"}],"outputs":[],"stateMutability":"payable"},{"type":"event","name":"Initialized","inputs":[{"name":"version","type":"uint64","indexed":false,"internalType":"uint64"}],"anonymous":false},{"type":"event","name":"OwnershipTransferred","inputs":[{"name":"previousOwner","type":"address","indexed":true,"internalType":"address"},{"name":"newOwner","type":"address","indexed":true,"internalType":"address"}],"anonymous":false},{"type":"event","name":"Upgraded","inputs":[{"name":"implementation","type":"address","indexed":true,"internalType":"address"}],"anonymous":false},{"type":"error","name":"AddressEmptyCode","inputs":[{"name":"target","type":"address","internalType":"address"}]},{"type":"error","name":"ERC1967InvalidImplementation","inputs":[{"name":"implementation","type":"address","internalType":"address"}]},{"type":"error","name":"ERC1967NonPayable","inputs":[]},{"type":"error","name":"FailedInnerCall","inputs":[]},{"type":"error","name":"InvalidInitialization","inputs":[]},{"type":"error","name":"NotInitializing","inputs":[]},{"type":"error","name":"OwnableInvalidOwner","inputs":[{"name":"owner","type":"address","internalType":"address"}]},{"type":"error","name":"OwnableUnauthorizedAccount","inputs":[{"name":"account","type":"address","internalType":"address"}]},{"type":"error","name":"UUPSUnauthorizedCallContext","inputs":[]},{"type":"error","name":"UUPSUnsupportedProxiableUUID","inputs":[{"name":"slot","type":"bytes32","internalType":"bytes32"}]}],"bytecode":{"object":"0x60c060405230608052348015610013575f80fd5b50604051610ac4380380610ac4833981016040819052610032916100ff565b6001600160401b03811660a05261004761004d565b5061012c565b7ff0c57e16840df040f15088dc2f81fe391c3923bec73e23a9662efc9c229c6a00805468010000000000000000900460ff161561009d5760405163f92ee8a960e01b815260040160405180910390fd5b80546001600160401b03908116146100fc5780546001600160401b0319166001600160401b0390811782556040519081527fc7f505b2f371ae2175ee4913f4499e1f2633a7b5936321eed1cdaeb6115181d29060200160405180910390a15b50565b5f6020828403121561010f575f80fd5b81516001600160401b0381168114610125575f80fd5b9392505050565b60805160a0516109626101625f395f8181610194015261024101525f81816103570152818161038001526104c401526109625ff3fe608060405260043610610079575f3560e01c80638da5cb5b1161004c5780638da5cb5b146100e1578063ad3cb1cc14610127578063f2fde38b14610164578063ffa1ad7414610183575f80fd5b80634f1ef2861461007d57806352d1902d14610092578063715018a6146100b95780638129fc1c146100cd575b5f80fd5b61009061008b3660046107cd565b6101cf565b005b34801561009d575f80fd5b506100a66101ee565b6040519081526020015b60405180910390f35b3480156100c4575f80fd5b50610090610209565b3480156100d8575f80fd5b5061009061021c565b3480156100ec575f80fd5b507f9016d09d72d40fdae2fd8ceac6b6234c7706214fd39c1cd1e609a0528c199300546040516001600160a01b0390911681526020016100b0565b348015610132575f80fd5b50610157604051806040016040528060058152602001640352e302e360dc1b81525081565b6040516100b09190610891565b34801561016f575f80fd5b5061009061017e3660046108c6565b61030a565b34801561018e575f80fd5b506101b67f000000000000000000000000000000000000000000000000000000000000000081565b60405167ffffffffffffffff90911681526020016100b0565b6101d761034c565b6101e0826103f0565b6101ea82826103f8565b5050565b5f6101f76104b9565b505f8051602061090d83398151915290565b610211610502565b61021a5f61055d565b565b7ff0c57e16840df040f15088dc2f81fe391c3923bec73e23a9662efc9c229c6a0080547f00000000000000000000000000000000000000000000000000000000000000009190600160401b900460ff16806102855750805467ffffffffffffffff808416911610155b156102a35760405163f92ee8a960e01b815260040160405180910390fd5b805468ffffffffffffffffff191667ffffffffffffffff8316908117600160401b1768ff0000000000000000191682556040519081527fc7f505b2f371ae2175ee4913f4499e1f2633a7b5936321eed1cdaeb6115181d29060200160405180910390a15050565b610312610502565b6001600160a01b03811661034057604051631e4fbdf760e01b81525f60048201526024015b60405180910390fd5b6103498161055d565b50565b306001600160a01b037f00000000000000000000000000000000000000000000000000000000000000001614806103d257507f00000000000000000000000000000000000000000000000000000000000000006001600160a01b03166103c65f8051602061090d833981519152546001600160a01b031690565b6001600160a01b031614155b1561021a5760405163703e46dd60e11b815260040160405180910390fd5b610349610502565b816001600160a01b03166352d1902d6040518163ffffffff1660e01b8152600401602060405180830381865afa925050508015610452575060408051601f3d908101601f1916820190925261044f918101906108df565b60015b61047a57604051634c9c8ce360e01b81526001600160a01b0383166004820152602401610337565b5f8051602061090d83398151915281146104aa57604051632a87526960e21b815260048101829052602401610337565b6104b483836105cd565b505050565b306001600160a01b037f0000000000000000000000000000000000000000000000000000000000000000161461021a5760405163703e46dd60e11b815260040160405180910390fd5b336105347f9016d09d72d40fdae2fd8ceac6b6234c7706214fd39c1cd1e609a0528c199300546001600160a01b031690565b6001600160a01b03161461021a5760405163118cdaa760e01b8152336004820152602401610337565b7f9016d09d72d40fdae2fd8ceac6b6234c7706214fd39c1cd1e609a0528c19930080546001600160a01b031981166001600160a01b03848116918217845560405192169182907f8be0079c531659141344cd1fd0a4f28419497f9722a3daafe3b4186f6b6457e0905f90a3505050565b6105d682610622565b6040516001600160a01b038316907fbc7cd75a20ee27fd9adebab32041f755214dbc6bffa90cc0225b39da2e5c2d3b905f90a280511561061a576104b48282610685565b6101ea6106f7565b806001600160a01b03163b5f0361065757604051634c9c8ce360e01b81526001600160a01b0382166004820152602401610337565b5f8051602061090d83398151915280546001600160a01b0319166001600160a01b0392909216919091179055565b60605f80846001600160a01b0316846040516106a191906108f6565b5f60405180830381855af49150503d805f81146106d9576040519150601f19603f3d011682016040523d82523d5f602084013e6106de565b606091505b50915091506106ee858383610716565b95945050505050565b341561021a5760405163b398979f60e01b815260040160405180910390fd5b60608261072b5761072682610775565b61076e565b815115801561074257506001600160a01b0384163b155b1561076b57604051639996b31560e01b81526001600160a01b0385166004820152602401610337565b50805b9392505050565b8051156107855780518082602001fd5b604051630a12f52160e11b815260040160405180910390fd5b80356001600160a01b03811681146107b4575f80fd5b919050565b634e487b7160e01b5f52604160045260245ffd5b5f80604083850312156107de575f80fd5b6107e78361079e565b9150602083013567ffffffffffffffff811115610802575f80fd5b8301601f81018513610812575f80fd5b803567ffffffffffffffff81111561082c5761082c6107b9565b604051601f8201601f19908116603f0116810167ffffffffffffffff8111828210171561085b5761085b6107b9565b604052818152828201602001871015610872575f80fd5b816020840160208301375f602083830101528093505050509250929050565b602081525f82518060208401528060208501604085015e5f604082850101526040601f19601f83011684010191505092915050565b5f602082840312156108d6575f80fd5b61076e8261079e565b5f602082840312156108ef575f80fd5b5051919050565b5f82518060208501845e5f92019182525091905056fe360894a13ba1a3210667c828492db98dca3e2076cc3735a920a3ca505d382bbca2646970667358221220f0d393485042d148584888426765ee263c21244b932414400ef2d3db1ed2f3e864736f6c634300081a0033","linkReferences":{}},"methodIdentifiers":{"UPGRADE_INTERFACE_VERSION()":"ad3cb1cc","VERSION()":"ffa1ad74","initialize()":"8129fc1c","owner()":"8da5cb5b","proxiableUUID()":"52d1902d","renounceOwnership()":"715018a6","transferOwnership(address)":"f2fde38b","upgradeToAndCall(address,bytes)":"4f1ef286"},"storageLayout":{"storage":[],"types":{}},"id":73}