{"abi":[{"type":"constructor","inputs":[{"name":"_credentialCache_","type":"address","internalType":"address"}],"stateMutability":"nonpayable"},{"type":"function","name":"CREDENTIALCACHE","inputs":[],"outputs":[{"name":"","type":"address","internalType":"address"}],"stateMutability":"view"},{"type":"function","name":"UPGRADE_INTERFACE_VERSION","inputs":[],"outputs":[{"name":"","type":"string","internalType":"string"}],"stateMutability":"view"},{"type":"function","name":"checkCredential","inputs":[{"name":"policyId_","type":"uint256","internalType":"uint256"},{"name":"entity_","type":"address","internalType":"address"}],"outputs":[{"name":"","type":"bool","internalType":"bool"}],"stateMutability":"view"},{"type":"function","name":"initialize","inputs":[{"name":"initialOwner_","type":"address","internalType":"address"}],"outputs":[],"stateMutability":"nonpayable"},{"type":"function","name":"owner","inputs":[],"outputs":[{"name":"","type":"address","internalType":"address"}],"stateMutability":"view"},{"type":"function","name":"proxiableUUID","inputs":[],"outputs":[{"name":"","type":"bytes32","internalType":"bytes32"}],"stateMutability":"view"},{"type":"function","name":"renounceOwnership","inputs":[],"outputs":[],"stateMutability":"nonpayable"},{"type":"function","name":"transferOwnership","inputs":[{"name":"newOwner","type":"address","internalType":"address"}],"outputs":[],"stateMutability":"nonpayable"},{"type":"function","name":"upgradeToAndCall","inputs":[{"name":"newImplementation","type":"address","internalType":"address"},{"name":"data","type":"bytes","internalType":"bytes"}],"outputs":[],"stateMutability":"payable"},{"type":"event","name":"Initialized","inputs":[{"name":"version","type":"uint64","indexed":false,"internalType":"uint64"}],"anonymous":false},{"type":"event","name":"OwnershipTransferred","inputs":[{"name":"previousOwner","type":"address","indexed":true,"internalType":"address"},{"name":"newOwner","type":"address","indexed":true,"internalType":"address"}],"anonymous":false},{"type":"event","name":"Upgraded","inputs":[{"name":"implementation","type":"address","indexed":true,"internalType":"address"}],"anonymous":false},{"type":"error","name":"AddressEmptyCode","inputs":[{"name":"target","type":"address","internalType":"address"}]},{"type":"error","name":"ERC1967InvalidImplementation","inputs":[{"name":"implementation","type":"address","internalType":"address"}]},{"type":"error","name":"ERC1967NonPayable","inputs":[]},{"type":"error","name":"FailedInnerCall","inputs":[]},{"type":"error","name":"InvalidInitialization","inputs":[]},{"type":"error","name":"NotInitializing","inputs":[]},{"type":"error","name":"OwnableInvalidOwner","inputs":[{"name":"owner","type":"address","internalType":"address"}]},{"type":"error","name":"OwnableUnauthorizedAccount","inputs":[{"name":"account","type":"address","internalType":"address"}]},{"type":"error","name":"PolicyOverflows","inputs":[]},{"type":"error","name":"UUPSUnauthorizedCallContext","inputs":[]},{"type":"error","name":"UUPSUnsupportedProxiableUUID","inputs":[{"name":"slot","type":"bytes32","internalType":"bytes32"}]}],"bytecode":{"object":"0x60c06040523060805234801561001457600080fd5b50604051610cf3380380610cf383398101604081905261003391610100565b6001600160a01b03811660a05261004861004e565b50610130565b7ff0c57e16840df040f15088dc2f81fe391c3923bec73e23a9662efc9c229c6a00805468010000000000000000900460ff161561009e5760405163f92ee8a960e01b815260040160405180910390fd5b80546001600160401b03908116146100fd5780546001600160401b0319166001600160401b0390811782556040519081527fc7f505b2f371ae2175ee4913f4499e1f2633a7b5936321eed1cdaeb6115181d29060200160405180910390a15b50565b60006020828403121561011257600080fd5b81516001600160a01b038116811461012957600080fd5b9392505050565b60805160a051610b8961016a600039600081816101ce01526102b201526000818161048a015281816104b301526105f90152610b896000f3fe6080604052600436106100865760003560e01c80638da5cb5b116100595780638da5cb5b1461010d578063ad3cb1cc1461015e578063c4d66de81461019c578063e881d08a146101bc578063f2fde38b146101f057600080fd5b80634f1ef2861461008b57806352d1902d146100a0578063715018a6146100c85780638776b120146100dd575b600080fd5b61009e610099366004610974565b610210565b005b3480156100ac57600080fd5b506100b561022f565b6040519081526020015b60405180910390f35b3480156100d457600080fd5b5061009e61024c565b3480156100e957600080fd5b506100fd6100f8366004610a3e565b610260565b60405190151581526020016100bf565b34801561011957600080fd5b507f9016d09d72d40fdae2fd8ceac6b6234c7706214fd39c1cd1e609a0528c199300546001600160a01b03165b6040516001600160a01b0390911681526020016100bf565b34801561016a57600080fd5b5061018f604051806040016040528060058152602001640352e302e360dc1b81525081565b6040516100bf9190610a8e565b3480156101a857600080fd5b5061009e6101b7366004610ac1565b610324565b3480156101c857600080fd5b506101467f000000000000000000000000000000000000000000000000000000000000000081565b3480156101fc57600080fd5b5061009e61020b366004610ac1565b61043c565b61021861047f565b61022182610524565b61022b828261052c565b5050565b60006102396105ee565b50600080516020610b3483398151915290565b610254610637565b61025e6000610692565b565b600063ffffffff8311156102875760405163687ddf6760e11b815260040160405180910390fd5b6040516337deb79160e01b81526001600160a01b03838116600483015263ffffffff851660248301527f000000000000000000000000000000000000000000000000000000000000000016906337deb79190604401602060405180830381865afa1580156102f9573d6000803e3d6000fd5b505050506040513d601f19601f8201168201806040525081019061031d9190610adc565b9392505050565b7ff0c57e16840df040f15088dc2f81fe391c3923bec73e23a9662efc9c229c6a008054600160401b810460ff16159067ffffffffffffffff1660008115801561036a5750825b905060008267ffffffffffffffff1660011480156103875750303b155b905081158015610395575080155b156103b35760405163f92ee8a960e01b815260040160405180910390fd5b845467ffffffffffffffff1916600117855583156103dd57845460ff60401b1916600160401b1785555b6103e686610703565b6103ee610714565b831561043457845460ff60401b19168555604051600181527fc7f505b2f371ae2175ee4913f4499e1f2633a7b5936321eed1cdaeb6115181d29060200160405180910390a15b505050505050565b610444610637565b6001600160a01b03811661047357604051631e4fbdf760e01b8152600060048201526024015b60405180910390fd5b61047c81610692565b50565b306001600160a01b037f000000000000000000000000000000000000000000000000000000000000000016148061050657507f00000000000000000000000000000000000000000000000000000000000000006001600160a01b03166104fa600080516020610b34833981519152546001600160a01b031690565b6001600160a01b031614155b1561025e5760405163703e46dd60e11b815260040160405180910390fd5b61047c610637565b816001600160a01b03166352d1902d6040518163ffffffff1660e01b8152600401602060405180830381865afa925050508015610586575060408051601f3d908101601f1916820190925261058391810190610afe565b60015b6105ae57604051634c9c8ce360e01b81526001600160a01b038316600482015260240161046a565b600080516020610b3483398151915281146105df57604051632a87526960e21b81526004810182905260240161046a565b6105e9838361071c565b505050565b306001600160a01b037f0000000000000000000000000000000000000000000000000000000000000000161461025e5760405163703e46dd60e11b815260040160405180910390fd5b336106697f9016d09d72d40fdae2fd8ceac6b6234c7706214fd39c1cd1e609a0528c199300546001600160a01b031690565b6001600160a01b03161461025e5760405163118cdaa760e01b815233600482015260240161046a565b7f9016d09d72d40fdae2fd8ceac6b6234c7706214fd39c1cd1e609a0528c19930080546001600160a01b031981166001600160a01b03848116918217845560405192169182907f8be0079c531659141344cd1fd0a4f28419497f9722a3daafe3b4186f6b6457e090600090a3505050565b61070b610772565b61047c816107bb565b61025e610772565b610725826107c3565b6040516001600160a01b038316907fbc7cd75a20ee27fd9adebab32041f755214dbc6bffa90cc0225b39da2e5c2d3b90600090a280511561076a576105e98282610828565b61022b61089e565b7ff0c57e16840df040f15088dc2f81fe391c3923bec73e23a9662efc9c229c6a0054600160401b900460ff1661025e57604051631afcd79f60e31b815260040160405180910390fd5b610444610772565b806001600160a01b03163b6000036107f957604051634c9c8ce360e01b81526001600160a01b038216600482015260240161046a565b600080516020610b3483398151915280546001600160a01b0319166001600160a01b0392909216919091179055565b6060600080846001600160a01b0316846040516108459190610b17565b600060405180830381855af49150503d8060008114610880576040519150601f19603f3d011682016040523d82523d6000602084013e610885565b606091505b50915091506108958583836108bd565b95945050505050565b341561025e5760405163b398979f60e01b815260040160405180910390fd5b6060826108d2576108cd82610919565b61031d565b81511580156108e957506001600160a01b0384163b155b1561091257604051639996b31560e01b81526001600160a01b038516600482015260240161046a565b5092915050565b8051156109295780518082602001fd5b604051630a12f52160e11b815260040160405180910390fd5b80356001600160a01b038116811461095957600080fd5b919050565b634e487b7160e01b600052604160045260246000fd5b6000806040838503121561098757600080fd5b61099083610942565b9150602083013567ffffffffffffffff8111156109ac57600080fd5b8301601f810185136109bd57600080fd5b803567ffffffffffffffff8111156109d7576109d761095e565b604051601f8201601f19908116603f0116810167ffffffffffffffff81118282101715610a0657610a0661095e565b604052818152828201602001871015610a1e57600080fd5b816020840160208301376000602083830101528093505050509250929050565b60008060408385031215610a5157600080fd5b82359150610a6160208401610942565b90509250929050565b60005b83811015610a85578181015183820152602001610a6d565b50506000910152565b6020815260008251806020840152610aad816040850160208701610a6a565b601f01601f19169190910160400192915050565b600060208284031215610ad357600080fd5b61031d82610942565b600060208284031215610aee57600080fd5b8151801515811461031d57600080fd5b600060208284031215610b1057600080fd5b5051919050565b60008251610b29818460208701610a6a565b919091019291505056fe360894a13ba1a3210667c828492db98dca3e2076cc3735a920a3ca505d382bbca26469706673582212203a2eb185ddcb35e24d1059ec7d174103832d37847ebc87aea9005c5842f5d0a164736f6c634300081a0033","linkReferences":{}},"methodIdentifiers":{"CREDENTIALCACHE()":"e881d08a","UPGRADE_INTERFACE_VERSION()":"ad3cb1cc","checkCredential(uint256,address)":"8776b120","initialize(address)":"c4d66de8","owner()":"8da5cb5b","proxiableUUID()":"52d1902d","renounceOwnership()":"715018a6","transferOwnership(address)":"f2fde38b","upgradeToAndCall(address,bytes)":"4f1ef286"},"storageLayout":{"storage":[],"types":{}},"id":53}