{"abi":[{"type":"constructor","inputs":[{"name":"_coreContract","type":"address","internalType":"address"},{"name":"_masterAdmin","type":"address","internalType":"address"}],"stateMutability":"nonpayable"},{"type":"function","name":"addBlacklistManager","inputs":[{"name":"policyId","type":"uint256","internalType":"uint256"},{"name":"manager","type":"address","internalType":"address"}],"outputs":[],"stateMutability":"nonpayable"},{"type":"function","name":"blacklistEntity","inputs":[{"name":"policyId","type":"uint256","internalType":"uint256"},{"name":"entity_","type":"address","internalType":"address"}],"outputs":[],"stateMutability":"nonpayable"},{"type":"function","name":"blacklistManagers","inputs":[{"name":"","type":"uint256","internalType":"uint256"},{"name":"","type":"address","internalType":"address"}],"outputs":[{"name":"","type":"bool","internalType":"bool"}],"stateMutability":"view"},{"type":"function","name":"collectFees","inputs":[{"name":"to","type":"address","internalType":"address"}],"outputs":[],"stateMutability":"nonpayable"},{"type":"function","name":"coreContract","inputs":[],"outputs":[{"name":"","type":"address","internalType":"contract KeyringCoreV2Base"}],"stateMutability":"view"},{"type":"function","name":"feeCollectorAdmin","inputs":[],"outputs":[{"name":"","type":"address","internalType":"address"}],"stateMutability":"view"},{"type":"function","name":"keyManagerAdmin","inputs":[],"outputs":[{"name":"","type":"address","internalType":"address"}],"stateMutability":"view"},{"type":"function","name":"masterAdmin","inputs":[],"outputs":[{"name":"","type":"address","internalType":"address"}],"stateMutability":"view"},{"type":"function","name":"registerKey","inputs":[{"name":"validFrom","type":"uint256","internalType":"uint256"},{"name":"validTo","type":"uint256","internalType":"uint256"},{"name":"key","type":"bytes","internalType":"bytes"}],"outputs":[],"stateMutability":"nonpayable"},{"type":"function","name":"removeBlacklistManager","inputs":[{"name":"policyId","type":"uint256","internalType":"uint256"},{"name":"manager","type":"address","internalType":"address"}],"outputs":[],"stateMutability":"nonpayable"},{"type":"function","name":"revokeKey","inputs":[{"name":"keyHash","type":"bytes32","internalType":"bytes32"}],"outputs":[],"stateMutability":"nonpayable"},{"type":"function","name":"setAdminOnBaseContract","inputs":[{"name":"_admin","type":"address","internalType":"address"}],"outputs":[],"stateMutability":"nonpayable"},{"type":"function","name":"setFeeCollectorAdmin","inputs":[{"name":"_admin","type":"address","internalType":"address"}],"outputs":[],"stateMutability":"nonpayable"},{"type":"function","name":"setKeyManagerAdmin","inputs":[{"name":"_admin","type":"address","internalType":"address"}],"outputs":[],"stateMutability":"nonpayable"},{"type":"function","name":"setMasterAdmin","inputs":[{"name":"_admin","type":"address","internalType":"address"}],"outputs":[],"stateMutability":"nonpayable"},{"type":"function","name":"unblacklistEntity","inputs":[{"name":"policyId","type":"uint256","internalType":"uint256"},{"name":"entity_","type":"address","internalType":"address"}],"outputs":[],"stateMutability":"nonpayable"},{"type":"event","name":"BlacklistManagerAdded","inputs":[{"name":"policyId","type":"uint256","indexed":true,"internalType":"uint256"},{"name":"manager","type":"address","indexed":true,"internalType":"address"}],"anonymous":false},{"type":"event","name":"BlacklistManagerRemoved","inputs":[{"name":"policyId","type":"uint256","indexed":true,"internalType":"uint256"},{"name":"manager","type":"address","indexed":true,"internalType":"address"}],"anonymous":false},{"type":"event","name":"MasterAdminSet","inputs":[{"name":"newMasterAdmin","type":"address","indexed":true,"internalType":"address"}],"anonymous":false},{"type":"event","name":"RoleAssigned","inputs":[{"name":"role","type":"string","indexed":false,"internalType":"string"},{"name":"assignedTo","type":"address","indexed":true,"internalType":"address"}],"anonymous":false},{"type":"error","name":"Unauthorized","inputs":[{"name":"reason","type":"string","internalType":"string"}]}],"bytecode":{"object":"0x60a060405234801561000f575f80fd5b50604051610c79380380610c7983398101604081905261002e9161009a565b6001600160a01b038281166080525f80546001600160a01b03191691831691821781556040517f3dfb6c6d21810b686165869b055f693e744f89585a0489d144380e4cd185f79f9190a250506100cb565b80516001600160a01b0381168114610095575f80fd5b919050565b5f80604083850312156100ab575f80fd5b6100b48361007f565b91506100c26020840161007f565b90509250929050565b608051610b6c61010d5f395f818161023001528181610305015281816103d60152818161045c015281816106850152818161070c01526109520152610b6c5ff3fe608060405234801561000f575f80fd5b50600436106100fb575f3560e01c8063bf71963f11610093578063e80db5db11610063578063e80db5db1461022b578063ede6346d14610252578063f484599e14610265578063fa9ad19514610278575f80fd5b8063bf71963f146101df578063c06d332e146101f2578063ca04b33414610205578063d1bb2d9d14610218575f80fd5b8063572f2210116100ce578063572f2210146101935780636da7cf7d146101a6578063a06b89ea146101b9578063a480ca79146101cc575f80fd5b80632303bdff146100ff5780632a68f64e146101145780632d93a53e146101435780634db64cfd14610180575b5f80fd5b61011261010d36600461099c565b61028b565b005b5f54610126906001600160a01b031681565b6040516001600160a01b0390911681526020015b60405180910390f35b61017061015136600461099c565b600360209081525f928352604080842090915290825290205460ff1681565b604051901515815260200161013a565b61011261018e36600461099c565b610361565b6101126101a13660046109c6565b610405565b6101126101b436600461099c565b6104bf565b6101126101c73660046109dd565b610540565b6101126101da3660046109dd565b6105e6565b600154610126906001600160a01b031681565b610112610200366004610a11565b6106b4565b6101126102133660046109dd565b610777565b61011261022636600461099c565b610814565b6101267f000000000000000000000000000000000000000000000000000000000000000081565b6101126102603660046109dd565b610898565b600254610126906001600160a01b031681565b6101126102863660046109dd565b610909565b5f82815260036020908152604080832033845290915290205460ff166102df5760405163973d02cb60e01b8152602060048201526003602482015262424c4d60e81b60448201526064015b60405180910390fd5b604051632303bdff60e01b8152600481018390526001600160a01b0382811660248301527f00000000000000000000000000000000000000000000000000000000000000001690632303bdff906044015b5f604051808303815f87803b158015610347575f80fd5b505af1158015610359573d5f803e3d5ffd5b505050505050565b5f82815260036020908152604080832033845290915290205460ff166103b05760405163973d02cb60e01b815260206004820152600360248201526255424d60e81b60448201526064016102d6565b604051634db64cfd60e01b8152600481018390526001600160a01b0382811660248301527f00000000000000000000000000000000000000000000000000000000000000001690634db64cfd90604401610330565b6001546001600160a01b031633146104465760405163973d02cb60e01b815260206004820152600360248201526225a6a760e91b60448201526064016102d6565b604051630572f22160e41b8152600481018290527f00000000000000000000000000000000000000000000000000000000000000006001600160a01b03169063572f2210906024015b5f604051808303815f87803b1580156104a6575f80fd5b505af11580156104b8573d5f803e3d5ffd5b5050505050565b5f546001600160a01b031633146104e95760405163973d02cb60e01b81526004016102d690610ad6565b5f8281526003602090815260408083206001600160a01b0385168085529252808320805460ff1916905551909184917f4fb4e99b3d66039ce4d5507bb173a706d71c0e949bcb95ea58a8ef0391f7968d9190a35050565b5f546001600160a01b0316331461056a5760405163973d02cb60e01b81526004016102d690610ad6565b600180546001600160a01b0383166001600160a01b031990911681179091556040517f1cf4c2f10398d18e27c3336eeadbf9ce9571462b7cb30d5d9a4024580f208d21906105db906020808252600f908201526e25b2bca6b0b730b3b2b920b236b4b760891b604082015260600190565b60405180910390a250565b6002546001600160a01b031633146106275760405163973d02cb60e01b815260206004820152600360248201526246434160e81b60448201526064016102d6565b306001600160a01b038216036106665760405163973d02cb60e01b815260206004820152600360248201526241534360e81b60448201526064016102d6565b60405163a480ca7960e01b81526001600160a01b0382811660048301527f0000000000000000000000000000000000000000000000000000000000000000169063a480ca799060240161048f565b6001546001600160a01b031633146106f55760405163973d02cb60e01b815260206004820152600360248201526225a6a760e91b60448201526064016102d6565b604051636036999760e11b81526001600160a01b037f0000000000000000000000000000000000000000000000000000000000000000169063c06d332e9061074590869086908690600401610af3565b5f604051808303815f87803b15801561075c575f80fd5b505af115801561076e573d5f803e3d5ffd5b50505050505050565b5f546001600160a01b031633146107a15760405163973d02cb60e01b81526004016102d690610ad6565b600280546001600160a01b0383166001600160a01b031990911681179091556040517f1cf4c2f10398d18e27c3336eeadbf9ce9571462b7cb30d5d9a4024580f208d21906105db906020808252601190820152702332b2a1b7b63632b1ba37b920b236b4b760791b604082015260600190565b5f546001600160a01b0316331461083e5760405163973d02cb60e01b81526004016102d690610ad6565b5f8281526003602090815260408083206001600160a01b0385168085529252808320805460ff1916600117905551909184917f27daa31eb11d4ea91ef8a88ef50f12ae0b425b2b68d36f2f5456e6ee9c58e13f9190a35050565b5f546001600160a01b031633146108c25760405163973d02cb60e01b81526004016102d690610ad6565b5f80546001600160a01b0319166001600160a01b038316908117825560405190917f3dfb6c6d21810b686165869b055f693e744f89585a0489d144380e4cd185f79f91a250565b5f546001600160a01b031633146109335760405163973d02cb60e01b81526004016102d690610ad6565b604051633825b60160e11b81526001600160a01b0382811660048301527f0000000000000000000000000000000000000000000000000000000000000000169063704b6c029060240161048f565b80356001600160a01b0381168114610997575f80fd5b919050565b5f80604083850312156109ad575f80fd5b823591506109bd60208401610981565b90509250929050565b5f602082840312156109d6575f80fd5b5035919050565b5f602082840312156109ed575f80fd5b6109f682610981565b9392505050565b634e487b7160e01b5f52604160045260245ffd5b5f805f60608486031215610a23575f80fd5b8335925060208401359150604084013567ffffffffffffffff811115610a47575f80fd5b8401601f81018613610a57575f80fd5b803567ffffffffffffffff811115610a7157610a716109fd565b604051601f8201601f19908116603f0116810167ffffffffffffffff81118282101715610aa057610aa06109fd565b604052818152828201602001881015610ab7575f80fd5b816020840160208301375f602083830101528093505050509250925092565b6020808252600390820152624d415360e81b604082015260600190565b838152826020820152606060408201525f82518060608401528060208501608085015e5f608082850101526080601f19601f83011684010191505094935050505056fea2646970667358221220f278a23d8380da0b5915fdc766a7118231094dce15682ad76d9f7da2737a91b364736f6c634300081a0033","linkReferences":{}},"methodIdentifiers":{"addBlacklistManager(uint256,address)":"d1bb2d9d","blacklistEntity(uint256,address)":"2303bdff","blacklistManagers(uint256,address)":"2d93a53e","collectFees(address)":"a480ca79","coreContract()":"e80db5db","feeCollectorAdmin()":"f484599e","keyManagerAdmin()":"bf71963f","masterAdmin()":"2a68f64e","registerKey(uint256,uint256,bytes)":"c06d332e","removeBlacklistManager(uint256,address)":"6da7cf7d","revokeKey(bytes32)":"572f2210","setAdminOnBaseContract(address)":"fa9ad195","setFeeCollectorAdmin(address)":"ca04b334","setKeyManagerAdmin(address)":"a06b89ea","setMasterAdmin(address)":"ede6346d","unblacklistEntity(uint256,address)":"4db64cfd"},"storageLayout":{"storage":[{"astId":53355,"contract":"src/admin/KeyringCoreV2AdminProxy.sol:KeyringCoreV2AdminProxy","label":"masterAdmin","offset":0,"slot":"0","type":"t_address"},{"astId":53357,"contract":"src/admin/KeyringCoreV2AdminProxy.sol:KeyringCoreV2AdminProxy","label":"keyManagerAdmin","offset":0,"slot":"1","type":"t_address"},{"astId":53359,"contract":"src/admin/KeyringCoreV2AdminProxy.sol:KeyringCoreV2AdminProxy","label":"feeCollectorAdmin","offset":0,"slot":"2","type":"t_address"},{"astId":53365,"contract":"src/admin/KeyringCoreV2AdminProxy.sol:KeyringCoreV2AdminProxy","label":"blacklistManagers","offset":0,"slot":"3","type":"t_mapping(t_uint256,t_mapping(t_address,t_bool))"}],"types":{"t_address":{"encoding":"inplace","label":"address","numberOfBytes":"20"},"t_bool":{"encoding":"inplace","label":"bool","numberOfBytes":"1"},"t_mapping(t_address,t_bool)":{"encoding":"mapping","key":"t_address","label":"mapping(address => bool)","numberOfBytes":"32","value":"t_bool"},"t_mapping(t_uint256,t_mapping(t_address,t_bool))":{"encoding":"mapping","key":"t_uint256","label":"mapping(uint256 => mapping(address => bool))","numberOfBytes":"32","value":"t_mapping(t_address,t_bool)"},"t_uint256":{"encoding":"inplace","label":"uint256","numberOfBytes":"32"}}},"id":57}