{"abi":[{"type":"function","name":"checkCredential","inputs":[{"name":"trader","type":"address","internalType":"address"},{"name":"admissionPolicyId","type":"uint32","internalType":"uint32"}],"outputs":[{"name":"passed","type":"bool","internalType":"bool"}],"stateMutability":"view"},{"type":"function","name":"set","inputs":[{"name":"trader","type":"address","internalType":"address"},{"name":"admissionPolicyId","type":"uint256","internalType":"uint256"},{"name":"passed","type":"bool","internalType":"bool"}],"outputs":[],"stateMutability":"nonpayable"}],"bytecode":{"object":"0x6080604052348015600e575f80fd5b506101a38061001c5f395ff3fe608060405234801561000f575f80fd5b5060043610610034575f3560e01c80630b1391941461003857806337deb79114610085575b5f80fd5b6100836100463660046100ef565b63ffffffff9091165f908152602081815260408083206001600160a01b03909516835293905291909120805491151560ff19909216919091179055565b005b6100c0610093366004610130565b63ffffffff165f908152602081815260408083206001600160a01b03949094168352929052205460ff1690565b604051901515815260200160405180910390f35b80356001600160a01b03811681146100ea575f80fd5b919050565b5f805f60608486031215610101575f80fd5b61010a846100d4565b92506020840135915060408401358015158114610125575f80fd5b809150509250925092565b5f8060408385031215610141575f80fd5b61014a836100d4565b9150602083013563ffffffff81168114610162575f80fd5b80915050925092905056fea26469706673582212203ac53bdb0fd0a8c27dd07f75d820c5ec8e5172ee9531c2ac43dd3dd6b23fb93764736f6c634300081a0033","linkReferences":{}},"methodIdentifiers":{"checkCredential(address,uint32)":"37deb791","set(address,uint256,bool)":"0b139194"},"storageLayout":{"storage":[{"astId":62060,"contract":"test/mocks/KeyringCredentialMock.sol:KeyringCredentialMock","label":"walletCheck","offset":0,"slot":"0","type":"t_mapping(t_uint32,t_mapping(t_address,t_bool))"}],"types":{"t_address":{"encoding":"inplace","label":"address","numberOfBytes":"20"},"t_bool":{"encoding":"inplace","label":"bool","numberOfBytes":"1"},"t_mapping(t_address,t_bool)":{"encoding":"mapping","key":"t_address","label":"mapping(address => bool)","numberOfBytes":"32","value":"t_bool"},"t_mapping(t_uint32,t_mapping(t_address,t_bool))":{"encoding":"mapping","key":"t_uint32","label":"mapping(uint32 => mapping(address => bool))","numberOfBytes":"32","value":"t_mapping(t_address,t_bool)"},"t_uint32":{"encoding":"inplace","label":"uint32","numberOfBytes":"4"}}},"id":76}