{"abi":[{"type":"constructor","inputs":[{"name":"_credentialCache_","type":"address","internalType":"address"}],"stateMutability":"nonpayable"},{"type":"function","name":"CREDENTIALCACHE","inputs":[],"outputs":[{"name":"","type":"address","internalType":"address"}],"stateMutability":"view"},{"type":"function","name":"TEST","inputs":[],"outputs":[{"name":"","type":"bytes32","internalType":"bytes32"}],"stateMutability":"view"},{"type":"function","name":"UPGRADE_INTERFACE_VERSION","inputs":[],"outputs":[{"name":"","type":"string","internalType":"string"}],"stateMutability":"view"},{"type":"function","name":"checkCredential","inputs":[{"name":"policyId_","type":"uint256","internalType":"uint256"},{"name":"entity_","type":"address","internalType":"address"}],"outputs":[{"name":"","type":"bool","internalType":"bool"}],"stateMutability":"view"},{"type":"function","name":"initialize","inputs":[],"outputs":[],"stateMutability":"nonpayable"},{"type":"function","name":"owner","inputs":[],"outputs":[{"name":"","type":"address","internalType":"address"}],"stateMutability":"view"},{"type":"function","name":"proxiableUUID","inputs":[],"outputs":[{"name":"","type":"bytes32","internalType":"bytes32"}],"stateMutability":"view"},{"type":"function","name":"renounceOwnership","inputs":[],"outputs":[],"stateMutability":"nonpayable"},{"type":"function","name":"transferOwnership","inputs":[{"name":"newOwner","type":"address","internalType":"address"}],"outputs":[],"stateMutability":"nonpayable"},{"type":"function","name":"upgradeToAndCall","inputs":[{"name":"newImplementation","type":"address","internalType":"address"},{"name":"data","type":"bytes","internalType":"bytes"}],"outputs":[],"stateMutability":"payable"},{"type":"event","name":"Initialized","inputs":[{"name":"version","type":"uint64","indexed":false,"internalType":"uint64"}],"anonymous":false},{"type":"event","name":"OwnershipTransferred","inputs":[{"name":"previousOwner","type":"address","indexed":true,"internalType":"address"},{"name":"newOwner","type":"address","indexed":true,"internalType":"address"}],"anonymous":false},{"type":"event","name":"Upgraded","inputs":[{"name":"implementation","type":"address","indexed":true,"internalType":"address"}],"anonymous":false},{"type":"error","name":"AddressEmptyCode","inputs":[{"name":"target","type":"address","internalType":"address"}]},{"type":"error","name":"ERC1967InvalidImplementation","inputs":[{"name":"implementation","type":"address","internalType":"address"}]},{"type":"error","name":"ERC1967NonPayable","inputs":[]},{"type":"error","name":"FailedInnerCall","inputs":[]},{"type":"error","name":"InvalidInitialization","inputs":[]},{"type":"error","name":"NotInitializing","inputs":[]},{"type":"error","name":"OwnableInvalidOwner","inputs":[{"name":"owner","type":"address","internalType":"address"}]},{"type":"error","name":"OwnableUnauthorizedAccount","inputs":[{"name":"account","type":"address","internalType":"address"}]},{"type":"error","name":"PolicyOverflows","inputs":[]},{"type":"error","name":"UUPSUnauthorizedCallContext","inputs":[]},{"type":"error","name":"UUPSUnsupportedProxiableUUID","inputs":[{"name":"slot","type":"bytes32","internalType":"bytes32"}]}],"bytecode":{"object":"0x60c060405230608052348015610013575f80fd5b50604051610c15380380610c15833981016040819052610032916100ff565b6001600160a01b03811660a05261004761004d565b5061012c565b7ff0c57e16840df040f15088dc2f81fe391c3923bec73e23a9662efc9c229c6a00805468010000000000000000900460ff161561009d5760405163f92ee8a960e01b815260040160405180910390fd5b80546001600160401b03908116146100fc5780546001600160401b0319166001600160401b0390811782556040519081527fc7f505b2f371ae2175ee4913f4499e1f2633a7b5936321eed1cdaeb6115181d29060200160405180910390a15b50565b5f6020828403121561010f575f80fd5b81516001600160a01b0381168114610125575f80fd5b9392505050565b60805160a051610ab36101625f395f81816101f701526103a501525f81816104620152818161048b01526105cf0152610ab35ff3fe60806040526004361061008f575f3560e01c80638776b120116100575780638776b1201461012a5780638da5cb5b14610159578063ad3cb1cc146101a9578063e881d08a146101e6578063f2fde38b14610219575f80fd5b80634f1ef2861461009357806351d977a6146100a857806352d1902d146100ee578063715018a6146101025780638129fc1c14610116575b5f80fd5b6100a66100a13660046108d5565b610238565b005b3480156100b3575f80fd5b506100db7f852daa74cc3c31fe64542bb9b8764cfb91cc30f9acf9389071ffb44a9eefde4681565b6040519081526020015b60405180910390f35b3480156100f9575f80fd5b506100db610257565b34801561010d575f80fd5b506100a6610272565b348015610121575f80fd5b506100a6610285565b348015610135575f80fd5b50610149610144366004610999565b610354565b60405190151581526020016100e5565b348015610164575f80fd5b507f9016d09d72d40fdae2fd8ceac6b6234c7706214fd39c1cd1e609a0528c199300546001600160a01b03165b6040516001600160a01b0390911681526020016100e5565b3480156101b4575f80fd5b506101d9604051806040016040528060058152602001640352e302e360dc1b81525081565b6040516100e591906109c3565b3480156101f1575f80fd5b506101917f000000000000000000000000000000000000000000000000000000000000000081565b348015610224575f80fd5b506100a66102333660046109f8565b610415565b610240610457565b610249826104fb565b6102538282610503565b5050565b5f6102606105c4565b505f80516020610a5e83398151915290565b61027a61060d565b6102835f610668565b565b7ff0c57e16840df040f15088dc2f81fe391c3923bec73e23a9662efc9c229c6a00805460029190600160401b900460ff16806102cf5750805467ffffffffffffffff808416911610155b156102ed5760405163f92ee8a960e01b815260040160405180910390fd5b805468ffffffffffffffffff191667ffffffffffffffff8316908117600160401b1768ff0000000000000000191682556040519081527fc7f505b2f371ae2175ee4913f4499e1f2633a7b5936321eed1cdaeb6115181d29060200160405180910390a15050565b5f63ffffffff83111561037a5760405163687ddf6760e11b815260040160405180910390fd5b6040516337deb79160e01b81526001600160a01b03838116600483015263ffffffff851660248301527f000000000000000000000000000000000000000000000000000000000000000016906337deb79190604401602060405180830381865afa1580156103ea573d5f803e3d5ffd5b505050506040513d601f19601f8201168201806040525081019061040e9190610a11565b9392505050565b61041d61060d565b6001600160a01b03811661044b57604051631e4fbdf760e01b81525f60048201526024015b60405180910390fd5b61045481610668565b50565b306001600160a01b037f00000000000000000000000000000000000000000000000000000000000000001614806104dd57507f00000000000000000000000000000000000000000000000000000000000000006001600160a01b03166104d15f80516020610a5e833981519152546001600160a01b031690565b6001600160a01b031614155b156102835760405163703e46dd60e11b815260040160405180910390fd5b61045461060d565b816001600160a01b03166352d1902d6040518163ffffffff1660e01b8152600401602060405180830381865afa92505050801561055d575060408051601f3d908101601f1916820190925261055a91810190610a30565b60015b61058557604051634c9c8ce360e01b81526001600160a01b0383166004820152602401610442565b5f80516020610a5e83398151915281146105b557604051632a87526960e21b815260048101829052602401610442565b6105bf83836106d8565b505050565b306001600160a01b037f000000000000000000000000000000000000000000000000000000000000000016146102835760405163703e46dd60e11b815260040160405180910390fd5b3361063f7f9016d09d72d40fdae2fd8ceac6b6234c7706214fd39c1cd1e609a0528c199300546001600160a01b031690565b6001600160a01b0316146102835760405163118cdaa760e01b8152336004820152602401610442565b7f9016d09d72d40fdae2fd8ceac6b6234c7706214fd39c1cd1e609a0528c19930080546001600160a01b031981166001600160a01b03848116918217845560405192169182907f8be0079c531659141344cd1fd0a4f28419497f9722a3daafe3b4186f6b6457e0905f90a3505050565b6106e18261072d565b6040516001600160a01b038316907fbc7cd75a20ee27fd9adebab32041f755214dbc6bffa90cc0225b39da2e5c2d3b905f90a2805115610725576105bf8282610790565b610253610802565b806001600160a01b03163b5f0361076257604051634c9c8ce360e01b81526001600160a01b0382166004820152602401610442565b5f80516020610a5e83398151915280546001600160a01b0319166001600160a01b0392909216919091179055565b60605f80846001600160a01b0316846040516107ac9190610a47565b5f60405180830381855af49150503d805f81146107e4576040519150601f19603f3d011682016040523d82523d5f602084013e6107e9565b606091505b50915091506107f9858383610821565b95945050505050565b34156102835760405163b398979f60e01b815260040160405180910390fd5b606082610836576108318261087d565b61040e565b815115801561084d57506001600160a01b0384163b155b1561087657604051639996b31560e01b81526001600160a01b0385166004820152602401610442565b5092915050565b80511561088d5780518082602001fd5b604051630a12f52160e11b815260040160405180910390fd5b80356001600160a01b03811681146108bc575f80fd5b919050565b634e487b7160e01b5f52604160045260245ffd5b5f80604083850312156108e6575f80fd5b6108ef836108a6565b9150602083013567ffffffffffffffff81111561090a575f80fd5b8301601f8101851361091a575f80fd5b803567ffffffffffffffff811115610934576109346108c1565b604051601f8201601f19908116603f0116810167ffffffffffffffff81118282101715610963576109636108c1565b60405281815282820160200187101561097a575f80fd5b816020840160208301375f602083830101528093505050509250929050565b5f80604083850312156109aa575f80fd5b823591506109ba602084016108a6565b90509250929050565b602081525f82518060208401528060208501604085015e5f604082850101526040601f19601f83011684010191505092915050565b5f60208284031215610a08575f80fd5b61040e826108a6565b5f60208284031215610a21575f80fd5b8151801515811461040e575f80fd5b5f60208284031215610a40575f80fd5b5051919050565b5f82518060208501845e5f92019182525091905056fe360894a13ba1a3210667c828492db98dca3e2076cc3735a920a3ca505d382bbca2646970667358221220e79cbac24a4501dedabada87630f204e6a926359b4d405a30791372b303206b464736f6c634300081a0033","linkReferences":{}},"methodIdentifiers":{"CREDENTIALCACHE()":"e881d08a","TEST()":"51d977a6","UPGRADE_INTERFACE_VERSION()":"ad3cb1cc","checkCredential(uint256,address)":"8776b120","initialize()":"8129fc1c","owner()":"8da5cb5b","proxiableUUID()":"52d1902d","renounceOwnership()":"715018a6","transferOwnership(address)":"f2fde38b","upgradeToAndCall(address,bytes)":"4f1ef286"},"storageLayout":{"storage":[],"types":{}},"id":74}