{"abi":[{"type":"constructor","inputs":[{"name":"_credentialCache_","type":"address","internalType":"address"}],"stateMutability":"nonpayable"},{"type":"function","name":"CREDENTIALCACHE","inputs":[],"outputs":[{"name":"","type":"address","internalType":"address"}],"stateMutability":"view"},{"type":"function","name":"UPGRADE_INTERFACE_VERSION","inputs":[],"outputs":[{"name":"","type":"string","internalType":"string"}],"stateMutability":"view"},{"type":"function","name":"checkCredential","inputs":[{"name":"entity_","type":"address","internalType":"address"},{"name":"policyId_","type":"uint32","internalType":"uint32"}],"outputs":[{"name":"","type":"bool","internalType":"bool"}],"stateMutability":"view"},{"type":"function","name":"checkCredential","inputs":[{"name":"policyId_","type":"uint256","internalType":"uint256"},{"name":"entity_","type":"address","internalType":"address"}],"outputs":[{"name":"","type":"bool","internalType":"bool"}],"stateMutability":"view"},{"type":"function","name":"initialize","inputs":[],"outputs":[],"stateMutability":"nonpayable"},{"type":"function","name":"owner","inputs":[],"outputs":[{"name":"","type":"address","internalType":"address"}],"stateMutability":"view"},{"type":"function","name":"proxiableUUID","inputs":[],"outputs":[{"name":"","type":"bytes32","internalType":"bytes32"}],"stateMutability":"view"},{"type":"function","name":"renounceOwnership","inputs":[],"outputs":[],"stateMutability":"nonpayable"},{"type":"function","name":"transferOwnership","inputs":[{"name":"newOwner","type":"address","internalType":"address"}],"outputs":[],"stateMutability":"nonpayable"},{"type":"function","name":"upgradeToAndCall","inputs":[{"name":"newImplementation","type":"address","internalType":"address"},{"name":"data","type":"bytes","internalType":"bytes"}],"outputs":[],"stateMutability":"payable"},{"type":"event","name":"Initialized","inputs":[{"name":"version","type":"uint64","indexed":false,"internalType":"uint64"}],"anonymous":false},{"type":"event","name":"OwnershipTransferred","inputs":[{"name":"previousOwner","type":"address","indexed":true,"internalType":"address"},{"name":"newOwner","type":"address","indexed":true,"internalType":"address"}],"anonymous":false},{"type":"event","name":"Upgraded","inputs":[{"name":"implementation","type":"address","indexed":true,"internalType":"address"}],"anonymous":false},{"type":"error","name":"AddressEmptyCode","inputs":[{"name":"target","type":"address","internalType":"address"}]},{"type":"error","name":"ERC1967InvalidImplementation","inputs":[{"name":"implementation","type":"address","internalType":"address"}]},{"type":"error","name":"ERC1967NonPayable","inputs":[]},{"type":"error","name":"FailedInnerCall","inputs":[]},{"type":"error","name":"InvalidInitialization","inputs":[]},{"type":"error","name":"NotInitializing","inputs":[]},{"type":"error","name":"OwnableInvalidOwner","inputs":[{"name":"owner","type":"address","internalType":"address"}]},{"type":"error","name":"OwnableUnauthorizedAccount","inputs":[{"name":"account","type":"address","internalType":"address"}]},{"type":"error","name":"PolicyOverflows","inputs":[]},{"type":"error","name":"UUPSUnauthorizedCallContext","inputs":[]},{"type":"error","name":"UUPSUnsupportedProxiableUUID","inputs":[{"name":"slot","type":"bytes32","internalType":"bytes32"}]}],"bytecode":{"object":"0x60c06040523060805234801561001457600080fd5b50604051610cb2380380610cb283398101604081905261003391610100565b6001600160a01b03811660a05261004861004e565b50610130565b7ff0c57e16840df040f15088dc2f81fe391c3923bec73e23a9662efc9c229c6a00805468010000000000000000900460ff161561009e5760405163f92ee8a960e01b815260040160405180910390fd5b80546001600160401b03908116146100fd5780546001600160401b0319166001600160401b0390811782556040519081527fc7f505b2f371ae2175ee4913f4499e1f2633a7b5936321eed1cdaeb6115181d29060200160405180910390a15b50565b60006020828403121561011257600080fd5b81516001600160a01b038116811461012957600080fd5b9392505050565b60805160a051610b4861016a600039600081816101ee01526103ba0152600081816104730152818161049c01526105e20152610b486000f3fe6080604052600436106100915760003560e01c80638776b120116100595780638776b1201461012d5780638da5cb5b1461014d578063ad3cb1cc1461019e578063e881d08a146101dc578063f2fde38b1461021057600080fd5b806337deb791146100965780634f1ef286146100cb57806352d1902d146100e0578063715018a6146101035780638129fc1c14610118575b600080fd5b3480156100a257600080fd5b506100b66100b13660046108dd565b610230565b60405190151581526020015b60405180910390f35b6100de6100d9366004610933565b610249565b005b3480156100ec57600080fd5b506100f5610268565b6040519081526020016100c2565b34801561010f57600080fd5b506100de610285565b34801561012457600080fd5b506100de610299565b34801561013957600080fd5b506100b66101483660046109fd565b610368565b34801561015957600080fd5b507f9016d09d72d40fdae2fd8ceac6b6234c7706214fd39c1cd1e609a0528c199300546001600160a01b03165b6040516001600160a01b0390911681526020016100c2565b3480156101aa57600080fd5b506101cf604051806040016040528060058152602001640352e302e360dc1b81525081565b6040516100c29190610a4d565b3480156101e857600080fd5b506101867f000000000000000000000000000000000000000000000000000000000000000081565b34801561021c57600080fd5b506100de61022b366004610a80565b610425565b60006102428263ffffffff1684610368565b9392505050565b610251610468565b61025a8261050d565b6102648282610515565b5050565b60006102726105d7565b50600080516020610af383398151915290565b61028d610620565b610297600061067b565b565b7ff0c57e16840df040f15088dc2f81fe391c3923bec73e23a9662efc9c229c6a00805460029190600160401b900460ff16806102e35750805467ffffffffffffffff808416911610155b156103015760405163f92ee8a960e01b815260040160405180910390fd5b805468ffffffffffffffffff191667ffffffffffffffff8316908117600160401b1768ff0000000000000000191682556040519081527fc7f505b2f371ae2175ee4913f4499e1f2633a7b5936321eed1cdaeb6115181d29060200160405180910390a15050565b600063ffffffff83111561038f5760405163687ddf6760e11b815260040160405180910390fd5b6040516337deb79160e01b81526001600160a01b03838116600483015263ffffffff851660248301527f000000000000000000000000000000000000000000000000000000000000000016906337deb79190604401602060405180830381865afa158015610401573d6000803e3d6000fd5b505050506040513d601f19601f820116820180604052508101906102429190610a9b565b61042d610620565b6001600160a01b03811661045c57604051631e4fbdf760e01b8152600060048201526024015b60405180910390fd5b6104658161067b565b50565b306001600160a01b037f00000000000000000000000000000000000000000000000000000000000000001614806104ef57507f00000000000000000000000000000000000000000000000000000000000000006001600160a01b03166104e3600080516020610af3833981519152546001600160a01b031690565b6001600160a01b031614155b156102975760405163703e46dd60e11b815260040160405180910390fd5b610465610620565b816001600160a01b03166352d1902d6040518163ffffffff1660e01b8152600401602060405180830381865afa92505050801561056f575060408051601f3d908101601f1916820190925261056c91810190610abd565b60015b61059757604051634c9c8ce360e01b81526001600160a01b0383166004820152602401610453565b600080516020610af383398151915281146105c857604051632a87526960e21b815260048101829052602401610453565b6105d283836106ec565b505050565b306001600160a01b037f000000000000000000000000000000000000000000000000000000000000000016146102975760405163703e46dd60e11b815260040160405180910390fd5b336106527f9016d09d72d40fdae2fd8ceac6b6234c7706214fd39c1cd1e609a0528c199300546001600160a01b031690565b6001600160a01b0316146102975760405163118cdaa760e01b8152336004820152602401610453565b7f9016d09d72d40fdae2fd8ceac6b6234c7706214fd39c1cd1e609a0528c19930080546001600160a01b031981166001600160a01b03848116918217845560405192169182907f8be0079c531659141344cd1fd0a4f28419497f9722a3daafe3b4186f6b6457e090600090a3505050565b6106f582610742565b6040516001600160a01b038316907fbc7cd75a20ee27fd9adebab32041f755214dbc6bffa90cc0225b39da2e5c2d3b90600090a280511561073a576105d282826107a7565b61026461081d565b806001600160a01b03163b60000361077857604051634c9c8ce360e01b81526001600160a01b0382166004820152602401610453565b600080516020610af383398151915280546001600160a01b0319166001600160a01b0392909216919091179055565b6060600080846001600160a01b0316846040516107c49190610ad6565b600060405180830381855af49150503d80600081146107ff576040519150601f19603f3d011682016040523d82523d6000602084013e610804565b606091505b509150915061081485838361083c565b95945050505050565b34156102975760405163b398979f60e01b815260040160405180910390fd5b6060826108515761084c82610898565b610242565b815115801561086857506001600160a01b0384163b155b1561089157604051639996b31560e01b81526001600160a01b0385166004820152602401610453565b5092915050565b8051156108a85780518082602001fd5b604051630a12f52160e11b815260040160405180910390fd5b80356001600160a01b03811681146108d857600080fd5b919050565b600080604083850312156108f057600080fd5b6108f9836108c1565b9150602083013563ffffffff8116811461091257600080fd5b809150509250929050565b634e487b7160e01b600052604160045260246000fd5b6000806040838503121561094657600080fd5b61094f836108c1565b9150602083013567ffffffffffffffff81111561096b57600080fd5b8301601f8101851361097c57600080fd5b803567ffffffffffffffff8111156109965761099661091d565b604051601f8201601f19908116603f0116810167ffffffffffffffff811182821017156109c5576109c561091d565b6040528181528282016020018710156109dd57600080fd5b816020840160208301376000602083830101528093505050509250929050565b60008060408385031215610a1057600080fd5b82359150610a20602084016108c1565b90509250929050565b60005b83811015610a44578181015183820152602001610a2c565b50506000910152565b6020815260008251806020840152610a6c816040850160208701610a29565b601f01601f19169190910160400192915050565b600060208284031215610a9257600080fd5b610242826108c1565b600060208284031215610aad57600080fd5b8151801515811461024257600080fd5b600060208284031215610acf57600080fd5b5051919050565b60008251610ae8818460208701610a29565b919091019291505056fe360894a13ba1a3210667c828492db98dca3e2076cc3735a920a3ca505d382bbca264697066735822122005ff7626e3771a020604ec96e0f032bddcccc171f9d2ea9cfb58fdf1b015149b64736f6c634300081a0033","linkReferences":{}},"methodIdentifiers":{"CREDENTIALCACHE()":"e881d08a","UPGRADE_INTERFACE_VERSION()":"ad3cb1cc","checkCredential(address,uint32)":"37deb791","checkCredential(uint256,address)":"8776b120","initialize()":"8129fc1c","owner()":"8da5cb5b","proxiableUUID()":"52d1902d","renounceOwnership()":"715018a6","transferOwnership(address)":"f2fde38b","upgradeToAndCall(address,bytes)":"4f1ef286"},"storageLayout":{"storage":[],"types":{}},"id":54}